{
	"contracts/1_Storage.sol": {
		"CustomVoting": {
			"abi": [
				{
					"inputs": [
						{
							"internalType": "string[]",
							"name": "_initialCandidateNames",
							"type": "string[]"
						},
						{
							"internalType": "uint256",
							"name": "_durationInMinutes",
							"type": "uint256"
						}
					],
					"stateMutability": "nonpayable",
					"type": "constructor"
				},
				{
					"inputs": [],
					"name": "NumberOfCandidates",
					"outputs": [
						{
							"internalType": "uint256",
							"name": "",
							"type": "uint256"
						}
					],
					"stateMutability": "view",
					"type": "function"
				},
				{
					"inputs": [
						{
							"internalType": "string",
							"name": "_name",
							"type": "string"
						}
					],
					"name": "addNewCandidate",
					"outputs": [],
					"stateMutability": "nonpayable",
					"type": "function"
				},
				{
					"inputs": [
						{
							"internalType": "uint256",
							"name": "",
							"type": "uint256"
						}
					],
					"name": "candidates",
					"outputs": [
						{
							"internalType": "string",
							"name": "name",
							"type": "string"
						},
						{
							"internalType": "uint256",
							"name": "voteCount",
							"type": "uint256"
						}
					],
					"stateMutability": "view",
					"type": "function"
				},
				{
					"inputs": [
						{
							"internalType": "uint256",
							"name": "_candidateIndex",
							"type": "uint256"
						}
					],
					"name": "castVote",
					"outputs": [],
					"stateMutability": "nonpayable",
					"type": "function"
				},
				{
					"inputs": [],
					"name": "getAllCandidates",
					"outputs": [
						{
							"internalType": "string[]",
							"name": "",
							"type": "string[]"
						},
						{
							"internalType": "uint256[]",
							"name": "",
							"type": "uint256[]"
						}
					],
					"stateMutability": "view",
					"type": "function"
				},
				{
					"inputs": [
						{
							"internalType": "uint256",
							"name": "_candidateIndex",
							"type": "uint256"
						}
					],
					"name": "getCandidateVotes",
					"outputs": [
						{
							"internalType": "uint256",
							"name": "",
							"type": "uint256"
						}
					],
					"stateMutability": "view",
					"type": "function"
				},
				{
					"inputs": [],
					"name": "getRemainingTime",
					"outputs": [
						{
							"internalType": "uint256",
							"name": "",
							"type": "uint256"
						}
					],
					"stateMutability": "view",
					"type": "function"
				},
				{
					"inputs": [],
					"name": "getVotingStatus",
					"outputs": [
						{
							"internalType": "bool",
							"name": "",
							"type": "bool"
						}
					],
					"stateMutability": "view",
					"type": "function"
				},
				{
					"inputs": [
						{
							"internalType": "address",
							"name": "",
							"type": "address"
						}
					],
					"name": "hasVoted",
					"outputs": [
						{
							"internalType": "bool",
							"name": "",
							"type": "bool"
						}
					],
					"stateMutability": "view",
					"type": "function"
				},
				{
					"inputs": [],
					"name": "owner",
					"outputs": [
						{
							"internalType": "address",
							"name": "",
							"type": "address"
						}
					],
					"stateMutability": "view",
					"type": "function"
				},
				{
					"inputs": [],
					"name": "votingEnd",
					"outputs": [
						{
							"internalType": "uint256",
							"name": "",
							"type": "uint256"
						}
					],
					"stateMutability": "view",
					"type": "function"
				},
				{
					"inputs": [],
					"name": "votingStart",
					"outputs": [
						{
							"internalType": "uint256",
							"name": "",
							"type": "uint256"
						}
					],
					"stateMutability": "view",
					"type": "function"
				}
			],
			"devdoc": {
				"kind": "dev",
				"methods": {},
				"version": 1
			},
			"evm": {
				"assembly": "    /* \"contracts/1_Storage.sol\":57:2717  contract CustomVoting {... */\n  mstore(0x40, 0x80)\n    /* \"contracts/1_Storage.sol\":613:1054  constructor(string[] memory _initialCandidateNames, uint256 _durationInMinutes) {... */\n  callvalue\n  dup1\n  iszero\n  tag_1\n  jumpi\n  0x00\n  dup1\n  revert\ntag_1:\n  pop\n  mload(0x40)\n  sub(codesize, bytecodeSize)\n  dup1\n  bytecodeSize\n  dup4\n  codecopy\n  dup2\n  dup2\n  add\n  0x40\n  mstore\n  dup2\n  add\n  swap1\n  tag_2\n  swap2\n  swap1\n  tag_3\n  jump\t// in\ntag_2:\n    /* \"contracts/1_Storage.sol\":708:717  uint256 i */\n  0x00\n    /* \"contracts/1_Storage.sol\":703:909  for (uint256 i = 0; i < _initialCandidateNames.length; i++) {... */\ntag_6:\n    /* \"contracts/1_Storage.sol\":727:749  _initialCandidateNames */\n  dup3\n    /* \"contracts/1_Storage.sol\":727:756  _initialCandidateNames.length */\n  mload\n    /* \"contracts/1_Storage.sol\":723:724  i */\n  dup2\n    /* \"contracts/1_Storage.sol\":723:756  i < _initialCandidateNames.length */\n  lt\n    /* \"contracts/1_Storage.sol\":703:909  for (uint256 i = 0; i < _initialCandidateNames.length; i++) {... */\n  iszero\n  tag_7\n  jumpi\n    /* \"contracts/1_Storage.sol\":777:787  candidates */\n  0x00\n    /* \"contracts/1_Storage.sol\":793:897  Candidate({... */\n  mload(0x40)\n  dup1\n  0x40\n  add\n  0x40\n  mstore\n  dup1\n    /* \"contracts/1_Storage.sol\":827:849  _initialCandidateNames */\n  dup6\n    /* \"contracts/1_Storage.sol\":850:851  i */\n  dup5\n    /* \"contracts/1_Storage.sol\":827:852  _initialCandidateNames[i] */\n  dup2\n  mload\n  dup2\n  lt\n  tag_9\n  jumpi\n  tag_10\n  tag_11\n  jump\t// in\ntag_10:\ntag_9:\n  0x20\n  mul\n  0x20\n  add\n  add\n  mload\n    /* \"contracts/1_Storage.sol\":793:897  Candidate({... */\n  dup2\n  mstore\n  0x20\n  add\n    /* \"contracts/1_Storage.sol\":881:882  0 */\n  0x00\n    /* \"contracts/1_Storage.sol\":793:897  Candidate({... */\n  dup2\n  mstore\n  pop\n    /* \"contracts/1_Storage.sol\":777:898  candidates.push(Candidate({... */\n  swap1\n  dup1\n  0x01\n  dup2\n  sload\n  add\n  dup1\n  dup3\n  sstore\n  dup1\n  swap2\n  pop\n  pop\n  0x01\n  swap1\n  sub\n  swap1\n  0x00\n  mstore\n  keccak256(0x00, 0x20)\n  swap1\n  0x02\n  mul\n  add\n  0x00\n  swap1\n  swap2\n  swap1\n  swap2\n  swap1\n  swap2\n  pop\n  0x00\n  dup3\n  add\n  mload\n  dup2\n  0x00\n  add\n  swap1\n  dup2\n  tag_13\n  swap2\n  swap1\n  tag_14\n  jump\t// in\ntag_13:\n  pop\n  0x20\n  dup3\n  add\n  mload\n  dup2\n  0x01\n  add\n  sstore\n  pop\n  pop\n    /* \"contracts/1_Storage.sol\":758:761  i++ */\n  dup1\n  dup1\n  0x01\n  add\n  swap2\n  pop\n  pop\n    /* \"contracts/1_Storage.sol\":703:909  for (uint256 i = 0; i < _initialCandidateNames.length; i++) {... */\n  jump(tag_6)\ntag_7:\n  pop\n    /* \"contracts/1_Storage.sol\":926:936  msg.sender */\n  caller\n    /* \"contracts/1_Storage.sol\":918:923  owner */\n  0x01\n  0x00\n    /* \"contracts/1_Storage.sol\":918:936  owner = msg.sender */\n  0x0100\n  exp\n  dup2\n  sload\n  dup2\n  0xffffffffffffffffffffffffffffffffffffffff\n  mul\n  not\n  and\n  swap1\n  dup4\n  0xffffffffffffffffffffffffffffffffffffffff\n  and\n  mul\n  or\n  swap1\n  sstore\n  pop\n    /* \"contracts/1_Storage.sol\":960:975  block.timestamp */\n  timestamp\n    /* \"contracts/1_Storage.sol\":946:957  votingStart */\n  0x03\n    /* \"contracts/1_Storage.sol\":946:975  votingStart = block.timestamp */\n  dup2\n  swap1\n  sstore\n  pop\n    /* \"contracts/1_Storage.sol\":1037:1046  1 minutes */\n  0x3c\n    /* \"contracts/1_Storage.sol\":1016:1034  _durationInMinutes */\n  dup2\n    /* \"contracts/1_Storage.sol\":1016:1046  _durationInMinutes * 1 minutes */\n  tag_15\n  swap2\n  swap1\n  tag_16\n  jump\t// in\ntag_15:\n    /* \"contracts/1_Storage.sol\":997:1012  block.timestamp */\n  timestamp\n    /* \"contracts/1_Storage.sol\":997:1047  block.timestamp + (_durationInMinutes * 1 minutes) */\n  tag_17\n  swap2\n  swap1\n  tag_18\n  jump\t// in\ntag_17:\n    /* \"contracts/1_Storage.sol\":985:994  votingEnd */\n  0x04\n    /* \"contracts/1_Storage.sol\":985:1047  votingEnd = block.timestamp + (_durationInMinutes * 1 minutes) */\n  dup2\n  swap1\n  sstore\n  pop\n    /* \"contracts/1_Storage.sol\":613:1054  constructor(string[] memory _initialCandidateNames, uint256 _durationInMinutes) {... */\n  pop\n  pop\n    /* \"contracts/1_Storage.sol\":57:2717  contract CustomVoting {... */\n  jump(tag_19)\n    /* \"#utility.yul\":7:82   */\ntag_20:\n    /* \"#utility.yul\":40:46   */\n  0x00\n    /* \"#utility.yul\":73:75   */\n  0x40\n    /* \"#utility.yul\":67:76   */\n  mload\n    /* \"#utility.yul\":57:76   */\n  swap1\n  pop\n    /* \"#utility.yul\":7:82   */\n  swap1\n  jump\t// out\n    /* \"#utility.yul\":88:205   */\ntag_21:\n    /* \"#utility.yul\":197:198   */\n  0x00\n    /* \"#utility.yul\":194:195   */\n  dup1\n    /* \"#utility.yul\":187:199   */\n  revert\n    /* \"#utility.yul\":211:328   */\ntag_22:\n    /* \"#utility.yul\":320:321   */\n  0x00\n    /* \"#utility.yul\":317:318   */\n  dup1\n    /* \"#utility.yul\":310:322   */\n  revert\n    /* \"#utility.yul\":334:451   */\ntag_23:\n    /* \"#utility.yul\":443:444   */\n  0x00\n    /* \"#utility.yul\":440:441   */\n  dup1\n    /* \"#utility.yul\":433:445   */\n  revert\n    /* \"#utility.yul\":457:559   */\ntag_24:\n    /* \"#utility.yul\":498:504   */\n  0x00\n    /* \"#utility.yul\":549:551   */\n  0x1f\n    /* \"#utility.yul\":545:552   */\n  not\n    /* \"#utility.yul\":540:542   */\n  0x1f\n    /* \"#utility.yul\":533:538   */\n  dup4\n    /* \"#utility.yul\":529:543   */\n  add\n    /* \"#utility.yul\":525:553   */\n  and\n    /* \"#utility.yul\":515:553   */\n  swap1\n  pop\n    /* \"#utility.yul\":457:559   */\n  swap2\n  swap1\n  pop\n  jump\t// out\n    /* \"#utility.yul\":565:745   */\ntag_25:\n    /* \"#utility.yul\":613:690   */\n  0x4e487b7100000000000000000000000000000000000000000000000000000000\n    /* \"#utility.yul\":610:611   */\n  0x00\n    /* \"#utility.yul\":603:691   */\n  mstore\n    /* \"#utility.yul\":710:714   */\n  0x41\n    /* \"#utility.yul\":707:708   */\n  0x04\n    /* \"#utility.yul\":700:715   */\n  mstore\n    /* \"#utility.yul\":734:738   */\n  0x24\n    /* \"#utility.yul\":731:732   */\n  0x00\n    /* \"#utility.yul\":724:739   */\n  revert\n    /* \"#utility.yul\":751:1032   */\ntag_26:\n    /* \"#utility.yul\":834:861   */\n  tag_67\n    /* \"#utility.yul\":856:860   */\n  dup3\n    /* \"#utility.yul\":834:861   */\n  tag_24\n  jump\t// in\ntag_67:\n    /* \"#utility.yul\":826:832   */\n  dup2\n    /* \"#utility.yul\":822:862   */\n  add\n    /* \"#utility.yul\":964:970   */\n  dup2\n    /* \"#utility.yul\":952:962   */\n  dup2\n    /* \"#utility.yul\":949:971   */\n  lt\n    /* \"#utility.yul\":928:946   */\n  0xffffffffffffffff\n    /* \"#utility.yul\":916:926   */\n  dup3\n    /* \"#utility.yul\":913:947   */\n  gt\n    /* \"#utility.yul\":910:972   */\n  or\n    /* \"#utility.yul\":907:995   */\n  iszero\n  tag_68\n  jumpi\n    /* \"#utility.yul\":975:993   */\n  tag_69\n  tag_25\n  jump\t// in\ntag_69:\n    /* \"#utility.yul\":907:995   */\ntag_68:\n    /* \"#utility.yul\":1015:1025   */\n  dup1\n    /* \"#utility.yul\":1011:1013   */\n  0x40\n    /* \"#utility.yul\":1004:1026   */\n  mstore\n    /* \"#utility.yul\":794:1032   */\n  pop\n    /* \"#utility.yul\":751:1032   */\n  pop\n  pop\n  jump\t// out\n    /* \"#utility.yul\":1038:1167   */\ntag_27:\n    /* \"#utility.yul\":1072:1078   */\n  0x00\n    /* \"#utility.yul\":1099:1119   */\n  tag_71\n  tag_20\n  jump\t// in\ntag_71:\n    /* \"#utility.yul\":1089:1119   */\n  swap1\n  pop\n    /* \"#utility.yul\":1128:1161   */\n  tag_72\n    /* \"#utility.yul\":1156:1160   */\n  dup3\n    /* \"#utility.yul\":1148:1154   */\n  dup3\n    /* \"#utility.yul\":1128:1161   */\n  tag_26\n  jump\t// in\ntag_72:\n    /* \"#utility.yul\":1038:1167   */\n  swap2\n  swap1\n  pop\n  jump\t// out\n    /* \"#utility.yul\":1173:1494   */\ntag_28:\n    /* \"#utility.yul\":1260:1264   */\n  0x00\n    /* \"#utility.yul\":1350:1368   */\n  0xffffffffffffffff\n    /* \"#utility.yul\":1342:1348   */\n  dup3\n    /* \"#utility.yul\":1339:1369   */\n  gt\n    /* \"#utility.yul\":1336:1392   */\n  iszero\n  tag_74\n  jumpi\n    /* \"#utility.yul\":1372:1390   */\n  tag_75\n  tag_25\n  jump\t// in\ntag_75:\n    /* \"#utility.yul\":1336:1392   */\ntag_74:\n    /* \"#utility.yul\":1422:1426   */\n  0x20\n    /* \"#utility.yul\":1414:1420   */\n  dup3\n    /* \"#utility.yul\":1410:1427   */\n  mul\n    /* \"#utility.yul\":1402:1427   */\n  swap1\n  pop\n    /* \"#utility.yul\":1482:1486   */\n  0x20\n    /* \"#utility.yul\":1476:1480   */\n  dup2\n    /* \"#utility.yul\":1472:1487   */\n  add\n    /* \"#utility.yul\":1464:1487   */\n  swap1\n  pop\n    /* \"#utility.yul\":1173:1494   */\n  swap2\n  swap1\n  pop\n  jump\t// out\n    /* \"#utility.yul\":1500:1617   */\ntag_29:\n    /* \"#utility.yul\":1609:1610   */\n  0x00\n    /* \"#utility.yul\":1606:1607   */\n  dup1\n    /* \"#utility.yul\":1599:1611   */\n  revert\n    /* \"#utility.yul\":1623:1740   */\ntag_30:\n    /* \"#utility.yul\":1732:1733   */\n  0x00\n    /* \"#utility.yul\":1729:1730   */\n  dup1\n    /* \"#utility.yul\":1722:1734   */\n  revert\n    /* \"#utility.yul\":1746:2054   */\ntag_31:\n    /* \"#utility.yul\":1808:1812   */\n  0x00\n    /* \"#utility.yul\":1898:1916   */\n  0xffffffffffffffff\n    /* \"#utility.yul\":1890:1896   */\n  dup3\n    /* \"#utility.yul\":1887:1917   */\n  gt\n    /* \"#utility.yul\":1884:1940   */\n  iszero\n  tag_79\n  jumpi\n    /* \"#utility.yul\":1920:1938   */\n  tag_80\n  tag_25\n  jump\t// in\ntag_80:\n    /* \"#utility.yul\":1884:1940   */\ntag_79:\n    /* \"#utility.yul\":1958:1987   */\n  tag_81\n    /* \"#utility.yul\":1980:1986   */\n  dup3\n    /* \"#utility.yul\":1958:1987   */\n  tag_24\n  jump\t// in\ntag_81:\n    /* \"#utility.yul\":1950:1987   */\n  swap1\n  pop\n    /* \"#utility.yul\":2042:2046   */\n  0x20\n    /* \"#utility.yul\":2036:2040   */\n  dup2\n    /* \"#utility.yul\":2032:2047   */\n  add\n    /* \"#utility.yul\":2024:2047   */\n  swap1\n  pop\n    /* \"#utility.yul\":1746:2054   */\n  swap2\n  swap1\n  pop\n  jump\t// out\n    /* \"#utility.yul\":2060:2199   */\ntag_32:\n    /* \"#utility.yul\":2149:2155   */\n  dup3\n    /* \"#utility.yul\":2144:2147   */\n  dup2\n    /* \"#utility.yul\":2139:2142   */\n  dup4\n    /* \"#utility.yul\":2133:2156   */\n  mcopy\n    /* \"#utility.yul\":2190:2191   */\n  0x00\n    /* \"#utility.yul\":2181:2187   */\n  dup4\n    /* \"#utility.yul\":2176:2179   */\n  dup4\n    /* \"#utility.yul\":2172:2188   */\n  add\n    /* \"#utility.yul\":2165:2192   */\n  mstore\n    /* \"#utility.yul\":2060:2199   */\n  pop\n  pop\n  pop\n  jump\t// out\n    /* \"#utility.yul\":2205:2639   */\ntag_33:\n    /* \"#utility.yul\":2294:2299   */\n  0x00\n    /* \"#utility.yul\":2319:2385   */\n  tag_84\n    /* \"#utility.yul\":2335:2384   */\n  tag_85\n    /* \"#utility.yul\":2377:2383   */\n  dup5\n    /* \"#utility.yul\":2335:2384   */\n  tag_31\n  jump\t// in\ntag_85:\n    /* \"#utility.yul\":2319:2385   */\n  tag_27\n  jump\t// in\ntag_84:\n    /* \"#utility.yul\":2310:2385   */\n  swap1\n  pop\n    /* \"#utility.yul\":2408:2414   */\n  dup3\n    /* \"#utility.yul\":2401:2406   */\n  dup2\n    /* \"#utility.yul\":2394:2415   */\n  mstore\n    /* \"#utility.yul\":2446:2450   */\n  0x20\n    /* \"#utility.yul\":2439:2444   */\n  dup2\n    /* \"#utility.yul\":2435:2451   */\n  add\n    /* \"#utility.yul\":2484:2487   */\n  dup5\n    /* \"#utility.yul\":2475:2481   */\n  dup5\n    /* \"#utility.yul\":2470:2473   */\n  dup5\n    /* \"#utility.yul\":2466:2482   */\n  add\n    /* \"#utility.yul\":2463:2488   */\n  gt\n    /* \"#utility.yul\":2460:2572   */\n  iszero\n  tag_86\n  jumpi\n    /* \"#utility.yul\":2491:2570   */\n  tag_87\n  tag_30\n  jump\t// in\ntag_87:\n    /* \"#utility.yul\":2460:2572   */\ntag_86:\n    /* \"#utility.yul\":2581:2633   */\n  tag_88\n    /* \"#utility.yul\":2626:2632   */\n  dup5\n    /* \"#utility.yul\":2621:2624   */\n  dup3\n    /* \"#utility.yul\":2616:2619   */\n  dup6\n    /* \"#utility.yul\":2581:2633   */\n  tag_32\n  jump\t// in\ntag_88:\n    /* \"#utility.yul\":2300:2639   */\n  pop\n    /* \"#utility.yul\":2205:2639   */\n  swap4\n  swap3\n  pop\n  pop\n  pop\n  jump\t// out\n    /* \"#utility.yul\":2659:3014   */\ntag_34:\n    /* \"#utility.yul\":2726:2731   */\n  0x00\n    /* \"#utility.yul\":2775:2778   */\n  dup3\n    /* \"#utility.yul\":2768:2772   */\n  0x1f\n    /* \"#utility.yul\":2760:2766   */\n  dup4\n    /* \"#utility.yul\":2756:2773   */\n  add\n    /* \"#utility.yul\":2752:2779   */\n  slt\n    /* \"#utility.yul\":2742:2864   */\n  tag_90\n  jumpi\n    /* \"#utility.yul\":2783:2862   */\n  tag_91\n  tag_23\n  jump\t// in\ntag_91:\n    /* \"#utility.yul\":2742:2864   */\ntag_90:\n    /* \"#utility.yul\":2893:2899   */\n  dup2\n    /* \"#utility.yul\":2887:2900   */\n  mload\n    /* \"#utility.yul\":2918:3008   */\n  tag_92\n    /* \"#utility.yul\":3004:3007   */\n  dup5\n    /* \"#utility.yul\":2996:3002   */\n  dup3\n    /* \"#utility.yul\":2989:2993   */\n  0x20\n    /* \"#utility.yul\":2981:2987   */\n  dup7\n    /* \"#utility.yul\":2977:2994   */\n  add\n    /* \"#utility.yul\":2918:3008   */\n  tag_33\n  jump\t// in\ntag_92:\n    /* \"#utility.yul\":2909:3008   */\n  swap2\n  pop\n    /* \"#utility.yul\":2732:3014   */\n  pop\n    /* \"#utility.yul\":2659:3014   */\n  swap3\n  swap2\n  pop\n  pop\n  jump\t// out\n    /* \"#utility.yul\":3036:3996   */\ntag_35:\n    /* \"#utility.yul\":3153:3158   */\n  0x00\n    /* \"#utility.yul\":3178:3269   */\n  tag_94\n    /* \"#utility.yul\":3194:3268   */\n  tag_95\n    /* \"#utility.yul\":3261:3267   */\n  dup5\n    /* \"#utility.yul\":3194:3268   */\n  tag_28\n  jump\t// in\ntag_95:\n    /* \"#utility.yul\":3178:3269   */\n  tag_27\n  jump\t// in\ntag_94:\n    /* \"#utility.yul\":3169:3269   */\n  swap1\n  pop\n    /* \"#utility.yul\":3289:3294   */\n  dup1\n    /* \"#utility.yul\":3318:3324   */\n  dup4\n    /* \"#utility.yul\":3311:3316   */\n  dup3\n    /* \"#utility.yul\":3304:3325   */\n  mstore\n    /* \"#utility.yul\":3352:3356   */\n  0x20\n    /* \"#utility.yul\":3345:3350   */\n  dup3\n    /* \"#utility.yul\":3341:3357   */\n  add\n    /* \"#utility.yul\":3334:3357   */\n  swap1\n  pop\n    /* \"#utility.yul\":3405:3409   */\n  0x20\n    /* \"#utility.yul\":3397:3403   */\n  dup5\n    /* \"#utility.yul\":3393:3410   */\n  mul\n    /* \"#utility.yul\":3385:3391   */\n  dup4\n    /* \"#utility.yul\":3381:3411   */\n  add\n    /* \"#utility.yul\":3434:3437   */\n  dup6\n    /* \"#utility.yul\":3426:3432   */\n  dup2\n    /* \"#utility.yul\":3423:3438   */\n  gt\n    /* \"#utility.yul\":3420:3542   */\n  iszero\n  tag_96\n  jumpi\n    /* \"#utility.yul\":3453:3532   */\n  tag_97\n  tag_29\n  jump\t// in\ntag_97:\n    /* \"#utility.yul\":3420:3542   */\ntag_96:\n    /* \"#utility.yul\":3568:3574   */\n  dup4\n    /* \"#utility.yul\":3551:3990   */\ntag_98:\n    /* \"#utility.yul\":3585:3591   */\n  dup2\n    /* \"#utility.yul\":3580:3583   */\n  dup2\n    /* \"#utility.yul\":3577:3592   */\n  lt\n    /* \"#utility.yul\":3551:3990   */\n  iszero\n  tag_100\n  jumpi\n    /* \"#utility.yul\":3667:3670   */\n  dup1\n    /* \"#utility.yul\":3661:3671   */\n  mload\n    /* \"#utility.yul\":3703:3721   */\n  0xffffffffffffffff\n    /* \"#utility.yul\":3690:3701   */\n  dup2\n    /* \"#utility.yul\":3687:3722   */\n  gt\n    /* \"#utility.yul\":3684:3806   */\n  iszero\n  tag_101\n  jumpi\n    /* \"#utility.yul\":3725:3804   */\n  tag_102\n  tag_23\n  jump\t// in\ntag_102:\n    /* \"#utility.yul\":3684:3806   */\ntag_101:\n    /* \"#utility.yul\":3849:3860   */\n  dup1\n    /* \"#utility.yul\":3841:3847   */\n  dup7\n    /* \"#utility.yul\":3837:3861   */\n  add\n    /* \"#utility.yul\":3887:3945   */\n  tag_103\n    /* \"#utility.yul\":3941:3944   */\n  dup10\n    /* \"#utility.yul\":3929:3939   */\n  dup3\n    /* \"#utility.yul\":3887:3945   */\n  tag_34\n  jump\t// in\ntag_103:\n    /* \"#utility.yul\":3882:3885   */\n  dup6\n    /* \"#utility.yul\":3875:3946   */\n  mstore\n    /* \"#utility.yul\":3975:3979   */\n  0x20\n    /* \"#utility.yul\":3970:3973   */\n  dup6\n    /* \"#utility.yul\":3966:3980   */\n  add\n    /* \"#utility.yul\":3959:3980   */\n  swap5\n  pop\n    /* \"#utility.yul\":3627:3990   */\n  pop\n  pop\n    /* \"#utility.yul\":3611:3615   */\n  0x20\n    /* \"#utility.yul\":3606:3609   */\n  dup2\n    /* \"#utility.yul\":3602:3616   */\n  add\n    /* \"#utility.yul\":3595:3616   */\n  swap1\n  pop\n    /* \"#utility.yul\":3551:3990   */\n  jump(tag_98)\ntag_100:\n    /* \"#utility.yul\":3555:3576   */\n  pop\n    /* \"#utility.yul\":3159:3996   */\n  pop\n  pop\n    /* \"#utility.yul\":3036:3996   */\n  swap4\n  swap3\n  pop\n  pop\n  pop\n  jump\t// out\n    /* \"#utility.yul\":4018:4423   */\ntag_36:\n    /* \"#utility.yul\":4110:4115   */\n  0x00\n    /* \"#utility.yul\":4159:4162   */\n  dup3\n    /* \"#utility.yul\":4152:4156   */\n  0x1f\n    /* \"#utility.yul\":4144:4150   */\n  dup4\n    /* \"#utility.yul\":4140:4157   */\n  add\n    /* \"#utility.yul\":4136:4163   */\n  slt\n    /* \"#utility.yul\":4126:4248   */\n  tag_105\n  jumpi\n    /* \"#utility.yul\":4167:4246   */\n  tag_106\n  tag_23\n  jump\t// in\ntag_106:\n    /* \"#utility.yul\":4126:4248   */\ntag_105:\n    /* \"#utility.yul\":4277:4283   */\n  dup2\n    /* \"#utility.yul\":4271:4284   */\n  mload\n    /* \"#utility.yul\":4302:4417   */\n  tag_107\n    /* \"#utility.yul\":4413:4416   */\n  dup5\n    /* \"#utility.yul\":4405:4411   */\n  dup3\n    /* \"#utility.yul\":4398:4402   */\n  0x20\n    /* \"#utility.yul\":4390:4396   */\n  dup7\n    /* \"#utility.yul\":4386:4403   */\n  add\n    /* \"#utility.yul\":4302:4417   */\n  tag_35\n  jump\t// in\ntag_107:\n    /* \"#utility.yul\":4293:4417   */\n  swap2\n  pop\n    /* \"#utility.yul\":4116:4423   */\n  pop\n    /* \"#utility.yul\":4018:4423   */\n  swap3\n  swap2\n  pop\n  pop\n  jump\t// out\n    /* \"#utility.yul\":4429:4506   */\ntag_37:\n    /* \"#utility.yul\":4466:4473   */\n  0x00\n    /* \"#utility.yul\":4495:4500   */\n  dup2\n    /* \"#utility.yul\":4484:4500   */\n  swap1\n  pop\n    /* \"#utility.yul\":4429:4506   */\n  swap2\n  swap1\n  pop\n  jump\t// out\n    /* \"#utility.yul\":4512:4634   */\ntag_38:\n    /* \"#utility.yul\":4585:4609   */\n  tag_110\n    /* \"#utility.yul\":4603:4608   */\n  dup2\n    /* \"#utility.yul\":4585:4609   */\n  tag_37\n  jump\t// in\ntag_110:\n    /* \"#utility.yul\":4578:4583   */\n  dup2\n    /* \"#utility.yul\":4575:4610   */\n  eq\n    /* \"#utility.yul\":4565:4628   */\n  tag_111\n  jumpi\n    /* \"#utility.yul\":4624:4625   */\n  0x00\n    /* \"#utility.yul\":4621:4622   */\n  dup1\n    /* \"#utility.yul\":4614:4626   */\n  revert\n    /* \"#utility.yul\":4565:4628   */\ntag_111:\n    /* \"#utility.yul\":4512:4634   */\n  pop\n  jump\t// out\n    /* \"#utility.yul\":4640:4783   */\ntag_39:\n    /* \"#utility.yul\":4697:4702   */\n  0x00\n    /* \"#utility.yul\":4728:4734   */\n  dup2\n    /* \"#utility.yul\":4722:4735   */\n  mload\n    /* \"#utility.yul\":4713:4735   */\n  swap1\n  pop\n    /* \"#utility.yul\":4744:4777   */\n  tag_113\n    /* \"#utility.yul\":4771:4776   */\n  dup2\n    /* \"#utility.yul\":4744:4777   */\n  tag_38\n  jump\t// in\ntag_113:\n    /* \"#utility.yul\":4640:4783   */\n  swap3\n  swap2\n  pop\n  pop\n  jump\t// out\n    /* \"#utility.yul\":4789:5519   */\ntag_3:\n    /* \"#utility.yul\":4903:4909   */\n  0x00\n    /* \"#utility.yul\":4911:4917   */\n  dup1\n    /* \"#utility.yul\":4960:4962   */\n  0x40\n    /* \"#utility.yul\":4948:4957   */\n  dup4\n    /* \"#utility.yul\":4939:4946   */\n  dup6\n    /* \"#utility.yul\":4935:4958   */\n  sub\n    /* \"#utility.yul\":4931:4963   */\n  slt\n    /* \"#utility.yul\":4928:5047   */\n  iszero\n  tag_115\n  jumpi\n    /* \"#utility.yul\":4966:5045   */\n  tag_116\n  tag_21\n  jump\t// in\ntag_116:\n    /* \"#utility.yul\":4928:5047   */\ntag_115:\n    /* \"#utility.yul\":5107:5108   */\n  0x00\n    /* \"#utility.yul\":5096:5105   */\n  dup4\n    /* \"#utility.yul\":5092:5109   */\n  add\n    /* \"#utility.yul\":5086:5110   */\n  mload\n    /* \"#utility.yul\":5137:5155   */\n  0xffffffffffffffff\n    /* \"#utility.yul\":5129:5135   */\n  dup2\n    /* \"#utility.yul\":5126:5156   */\n  gt\n    /* \"#utility.yul\":5123:5240   */\n  iszero\n  tag_117\n  jumpi\n    /* \"#utility.yul\":5159:5238   */\n  tag_118\n  tag_22\n  jump\t// in\ntag_118:\n    /* \"#utility.yul\":5123:5240   */\ntag_117:\n    /* \"#utility.yul\":5264:5363   */\n  tag_119\n    /* \"#utility.yul\":5355:5362   */\n  dup6\n    /* \"#utility.yul\":5346:5352   */\n  dup3\n    /* \"#utility.yul\":5335:5344   */\n  dup7\n    /* \"#utility.yul\":5331:5353   */\n  add\n    /* \"#utility.yul\":5264:5363   */\n  tag_36\n  jump\t// in\ntag_119:\n    /* \"#utility.yul\":5254:5363   */\n  swap3\n  pop\n    /* \"#utility.yul\":5057:5373   */\n  pop\n    /* \"#utility.yul\":5412:5414   */\n  0x20\n    /* \"#utility.yul\":5438:5502   */\n  tag_120\n    /* \"#utility.yul\":5494:5501   */\n  dup6\n    /* \"#utility.yul\":5485:5491   */\n  dup3\n    /* \"#utility.yul\":5474:5483   */\n  dup7\n    /* \"#utility.yul\":5470:5492   */\n  add\n    /* \"#utility.yul\":5438:5502   */\n  tag_39\n  jump\t// in\ntag_120:\n    /* \"#utility.yul\":5428:5502   */\n  swap2\n  pop\n    /* \"#utility.yul\":5383:5512   */\n  pop\n    /* \"#utility.yul\":4789:5519   */\n  swap3\n  pop\n  swap3\n  swap1\n  pop\n  jump\t// out\n    /* \"#utility.yul\":5525:5705   */\ntag_11:\n    /* \"#utility.yul\":5573:5650   */\n  0x4e487b7100000000000000000000000000000000000000000000000000000000\n    /* \"#utility.yul\":5570:5571   */\n  0x00\n    /* \"#utility.yul\":5563:5651   */\n  mstore\n    /* \"#utility.yul\":5670:5674   */\n  0x32\n    /* \"#utility.yul\":5667:5668   */\n  0x04\n    /* \"#utility.yul\":5660:5675   */\n  mstore\n    /* \"#utility.yul\":5694:5698   */\n  0x24\n    /* \"#utility.yul\":5691:5692   */\n  0x00\n    /* \"#utility.yul\":5684:5699   */\n  revert\n    /* \"#utility.yul\":5711:5810   */\ntag_40:\n    /* \"#utility.yul\":5763:5769   */\n  0x00\n    /* \"#utility.yul\":5797:5802   */\n  dup2\n    /* \"#utility.yul\":5791:5803   */\n  mload\n    /* \"#utility.yul\":5781:5803   */\n  swap1\n  pop\n    /* \"#utility.yul\":5711:5810   */\n  swap2\n  swap1\n  pop\n  jump\t// out\n    /* \"#utility.yul\":5816:5996   */\ntag_41:\n    /* \"#utility.yul\":5864:5941   */\n  0x4e487b7100000000000000000000000000000000000000000000000000000000\n    /* \"#utility.yul\":5861:5862   */\n  0x00\n    /* \"#utility.yul\":5854:5942   */\n  mstore\n    /* \"#utility.yul\":5961:5965   */\n  0x22\n    /* \"#utility.yul\":5958:5959   */\n  0x04\n    /* \"#utility.yul\":5951:5966   */\n  mstore\n    /* \"#utility.yul\":5985:5989   */\n  0x24\n    /* \"#utility.yul\":5982:5983   */\n  0x00\n    /* \"#utility.yul\":5975:5990   */\n  revert\n    /* \"#utility.yul\":6002:6322   */\ntag_42:\n    /* \"#utility.yul\":6046:6052   */\n  0x00\n    /* \"#utility.yul\":6083:6084   */\n  0x02\n    /* \"#utility.yul\":6077:6081   */\n  dup3\n    /* \"#utility.yul\":6073:6085   */\n  div\n    /* \"#utility.yul\":6063:6085   */\n  swap1\n  pop\n    /* \"#utility.yul\":6130:6131   */\n  0x01\n    /* \"#utility.yul\":6124:6128   */\n  dup3\n    /* \"#utility.yul\":6120:6132   */\n  and\n    /* \"#utility.yul\":6151:6169   */\n  dup1\n    /* \"#utility.yul\":6141:6222   */\n  tag_125\n  jumpi\n    /* \"#utility.yul\":6207:6211   */\n  0x7f\n    /* \"#utility.yul\":6199:6205   */\n  dup3\n    /* \"#utility.yul\":6195:6212   */\n  and\n    /* \"#utility.yul\":6185:6212   */\n  swap2\n  pop\n    /* \"#utility.yul\":6141:6222   */\ntag_125:\n    /* \"#utility.yul\":6269:6271   */\n  0x20\n    /* \"#utility.yul\":6261:6267   */\n  dup3\n    /* \"#utility.yul\":6258:6272   */\n  lt\n    /* \"#utility.yul\":6238:6256   */\n  dup2\n    /* \"#utility.yul\":6235:6273   */\n  sub\n    /* \"#utility.yul\":6232:6316   */\n  tag_126\n  jumpi\n    /* \"#utility.yul\":6288:6306   */\n  tag_127\n  tag_41\n  jump\t// in\ntag_127:\n    /* \"#utility.yul\":6232:6316   */\ntag_126:\n    /* \"#utility.yul\":6053:6322   */\n  pop\n    /* \"#utility.yul\":6002:6322   */\n  swap2\n  swap1\n  pop\n  jump\t// out\n    /* \"#utility.yul\":6328:6469   */\ntag_43:\n    /* \"#utility.yul\":6377:6381   */\n  0x00\n    /* \"#utility.yul\":6400:6403   */\n  dup2\n    /* \"#utility.yul\":6392:6403   */\n  swap1\n  pop\n    /* \"#utility.yul\":6423:6426   */\n  dup2\n    /* \"#utility.yul\":6420:6421   */\n  0x00\n    /* \"#utility.yul\":6413:6427   */\n  mstore\n    /* \"#utility.yul\":6457:6461   */\n  0x20\n    /* \"#utility.yul\":6454:6455   */\n  0x00\n    /* \"#utility.yul\":6444:6462   */\n  keccak256\n    /* \"#utility.yul\":6436:6462   */\n  swap1\n  pop\n    /* \"#utility.yul\":6328:6469   */\n  swap2\n  swap1\n  pop\n  jump\t// out\n    /* \"#utility.yul\":6475:6568   */\ntag_44:\n    /* \"#utility.yul\":6512:6518   */\n  0x00\n    /* \"#utility.yul\":6559:6561   */\n  0x20\n    /* \"#utility.yul\":6554:6556   */\n  0x1f\n    /* \"#utility.yul\":6547:6552   */\n  dup4\n    /* \"#utility.yul\":6543:6557   */\n  add\n    /* \"#utility.yul\":6539:6562   */\n  div\n    /* \"#utility.yul\":6529:6562   */\n  swap1\n  pop\n    /* \"#utility.yul\":6475:6568   */\n  swap2\n  swap1\n  pop\n  jump\t// out\n    /* \"#utility.yul\":6574:6681   */\ntag_45:\n    /* \"#utility.yul\":6618:6626   */\n  0x00\n    /* \"#utility.yul\":6668:6673   */\n  dup3\n    /* \"#utility.yul\":6662:6666   */\n  dup3\n    /* \"#utility.yul\":6658:6674   */\n  shl\n    /* \"#utility.yul\":6637:6674   */\n  swap1\n  pop\n    /* \"#utility.yul\":6574:6681   */\n  swap3\n  swap2\n  pop\n  pop\n  jump\t// out\n    /* \"#utility.yul\":6687:7080   */\ntag_46:\n    /* \"#utility.yul\":6756:6762   */\n  0x00\n    /* \"#utility.yul\":6806:6807   */\n  0x08\n    /* \"#utility.yul\":6794:6804   */\n  dup4\n    /* \"#utility.yul\":6790:6808   */\n  mul\n    /* \"#utility.yul\":6829:6926   */\n  tag_132\n    /* \"#utility.yul\":6859:6925   */\n  0xffffffffffffffffffffffffffffffffffffffffffffffffffffffffffffffff\n    /* \"#utility.yul\":6848:6857   */\n  dup3\n    /* \"#utility.yul\":6829:6926   */\n  tag_45\n  jump\t// in\ntag_132:\n    /* \"#utility.yul\":6947:6986   */\n  tag_133\n    /* \"#utility.yul\":6977:6985   */\n  dup7\n    /* \"#utility.yul\":6966:6975   */\n  dup4\n    /* \"#utility.yul\":6947:6986   */\n  tag_45\n  jump\t// in\ntag_133:\n    /* \"#utility.yul\":6935:6986   */\n  swap6\n  pop\n    /* \"#utility.yul\":7019:7023   */\n  dup1\n    /* \"#utility.yul\":7015:7024   */\n  not\n    /* \"#utility.yul\":7008:7013   */\n  dup5\n    /* \"#utility.yul\":7004:7025   */\n  and\n    /* \"#utility.yul\":6995:7025   */\n  swap4\n  pop\n    /* \"#utility.yul\":7068:7072   */\n  dup1\n    /* \"#utility.yul\":7058:7066   */\n  dup7\n    /* \"#utility.yul\":7054:7073   */\n  and\n    /* \"#utility.yul\":7047:7052   */\n  dup5\n    /* \"#utility.yul\":7044:7074   */\n  or\n    /* \"#utility.yul\":7034:7074   */\n  swap3\n  pop\n    /* \"#utility.yul\":6763:7080   */\n  pop\n  pop\n    /* \"#utility.yul\":6687:7080   */\n  swap4\n  swap3\n  pop\n  pop\n  pop\n  jump\t// out\n    /* \"#utility.yul\":7086:7146   */\ntag_47:\n    /* \"#utility.yul\":7114:7117   */\n  0x00\n    /* \"#utility.yul\":7135:7140   */\n  dup2\n    /* \"#utility.yul\":7128:7140   */\n  swap1\n  pop\n    /* \"#utility.yul\":7086:7146   */\n  swap2\n  swap1\n  pop\n  jump\t// out\n    /* \"#utility.yul\":7152:7294   */\ntag_48:\n    /* \"#utility.yul\":7202:7211   */\n  0x00\n    /* \"#utility.yul\":7235:7288   */\n  tag_136\n    /* \"#utility.yul\":7253:7287   */\n  tag_137\n    /* \"#utility.yul\":7262:7286   */\n  tag_138\n    /* \"#utility.yul\":7280:7285   */\n  dup5\n    /* \"#utility.yul\":7262:7286   */\n  tag_37\n  jump\t// in\ntag_138:\n    /* \"#utility.yul\":7253:7287   */\n  tag_47\n  jump\t// in\ntag_137:\n    /* \"#utility.yul\":7235:7288   */\n  tag_37\n  jump\t// in\ntag_136:\n    /* \"#utility.yul\":7222:7288   */\n  swap1\n  pop\n    /* \"#utility.yul\":7152:7294   */\n  swap2\n  swap1\n  pop\n  jump\t// out\n    /* \"#utility.yul\":7300:7375   */\ntag_49:\n    /* \"#utility.yul\":7343:7346   */\n  0x00\n    /* \"#utility.yul\":7364:7369   */\n  dup2\n    /* \"#utility.yul\":7357:7369   */\n  swap1\n  pop\n    /* \"#utility.yul\":7300:7375   */\n  swap2\n  swap1\n  pop\n  jump\t// out\n    /* \"#utility.yul\":7381:7650   */\ntag_50:\n    /* \"#utility.yul\":7491:7530   */\n  tag_141\n    /* \"#utility.yul\":7522:7529   */\n  dup4\n    /* \"#utility.yul\":7491:7530   */\n  tag_48\n  jump\t// in\ntag_141:\n    /* \"#utility.yul\":7552:7643   */\n  tag_142\n    /* \"#utility.yul\":7601:7642   */\n  tag_143\n    /* \"#utility.yul\":7625:7641   */\n  dup3\n    /* \"#utility.yul\":7601:7642   */\n  tag_49\n  jump\t// in\ntag_143:\n    /* \"#utility.yul\":7593:7599   */\n  dup5\n    /* \"#utility.yul\":7586:7590   */\n  dup5\n    /* \"#utility.yul\":7580:7591   */\n  sload\n    /* \"#utility.yul\":7552:7643   */\n  tag_46\n  jump\t// in\ntag_142:\n    /* \"#utility.yul\":7546:7550   */\n  dup3\n    /* \"#utility.yul\":7539:7644   */\n  sstore\n    /* \"#utility.yul\":7457:7650   */\n  pop\n    /* \"#utility.yul\":7381:7650   */\n  pop\n  pop\n  pop\n  jump\t// out\n    /* \"#utility.yul\":7656:7729   */\ntag_51:\n    /* \"#utility.yul\":7701:7704   */\n  0x00\n    /* \"#utility.yul\":7656:7729   */\n  swap1\n  jump\t// out\n    /* \"#utility.yul\":7735:7924   */\ntag_52:\n    /* \"#utility.yul\":7812:7844   */\n  tag_146\n  tag_51\n  jump\t// in\ntag_146:\n    /* \"#utility.yul\":7853:7918   */\n  tag_147\n    /* \"#utility.yul\":7911:7917   */\n  dup2\n    /* \"#utility.yul\":7903:7909   */\n  dup5\n    /* \"#utility.yul\":7897:7901   */\n  dup5\n    /* \"#utility.yul\":7853:7918   */\n  tag_50\n  jump\t// in\ntag_147:\n    /* \"#utility.yul\":7788:7924   */\n  pop\n    /* \"#utility.yul\":7735:7924   */\n  pop\n  pop\n  jump\t// out\n    /* \"#utility.yul\":7930:8116   */\ntag_53:\n    /* \"#utility.yul\":7990:8110   */\ntag_149:\n    /* \"#utility.yul\":8007:8010   */\n  dup2\n    /* \"#utility.yul\":8000:8005   */\n  dup2\n    /* \"#utility.yul\":7997:8011   */\n  lt\n    /* \"#utility.yul\":7990:8110   */\n  iszero\n  tag_151\n  jumpi\n    /* \"#utility.yul\":8061:8100   */\n  tag_152\n    /* \"#utility.yul\":8098:8099   */\n  0x00\n    /* \"#utility.yul\":8091:8096   */\n  dup3\n    /* \"#utility.yul\":8061:8100   */\n  tag_52\n  jump\t// in\ntag_152:\n    /* \"#utility.yul\":8034:8035   */\n  0x01\n    /* \"#utility.yul\":8027:8032   */\n  dup2\n    /* \"#utility.yul\":8023:8036   */\n  add\n    /* \"#utility.yul\":8014:8036   */\n  swap1\n  pop\n    /* \"#utility.yul\":7990:8110   */\n  jump(tag_149)\ntag_151:\n    /* \"#utility.yul\":7930:8116   */\n  pop\n  pop\n  jump\t// out\n    /* \"#utility.yul\":8122:8665   */\ntag_54:\n    /* \"#utility.yul\":8223:8225   */\n  0x1f\n    /* \"#utility.yul\":8218:8221   */\n  dup3\n    /* \"#utility.yul\":8215:8226   */\n  gt\n    /* \"#utility.yul\":8212:8658   */\n  iszero\n  tag_154\n  jumpi\n    /* \"#utility.yul\":8257:8295   */\n  tag_155\n    /* \"#utility.yul\":8289:8294   */\n  dup2\n    /* \"#utility.yul\":8257:8295   */\n  tag_43\n  jump\t// in\ntag_155:\n    /* \"#utility.yul\":8341:8370   */\n  tag_156\n    /* \"#utility.yul\":8359:8369   */\n  dup5\n    /* \"#utility.yul\":8341:8370   */\n  tag_44\n  jump\t// in\ntag_156:\n    /* \"#utility.yul\":8331:8339   */\n  dup2\n    /* \"#utility.yul\":8327:8371   */\n  add\n    /* \"#utility.yul\":8524:8526   */\n  0x20\n    /* \"#utility.yul\":8512:8522   */\n  dup6\n    /* \"#utility.yul\":8509:8527   */\n  lt\n    /* \"#utility.yul\":8506:8555   */\n  iszero\n  tag_157\n  jumpi\n    /* \"#utility.yul\":8545:8553   */\n  dup2\n    /* \"#utility.yul\":8530:8553   */\n  swap1\n  pop\n    /* \"#utility.yul\":8506:8555   */\ntag_157:\n    /* \"#utility.yul\":8568:8648   */\n  tag_158\n    /* \"#utility.yul\":8624:8646   */\n  tag_159\n    /* \"#utility.yul\":8642:8645   */\n  dup6\n    /* \"#utility.yul\":8624:8646   */\n  tag_44\n  jump\t// in\ntag_159:\n    /* \"#utility.yul\":8614:8622   */\n  dup4\n    /* \"#utility.yul\":8610:8647   */\n  add\n    /* \"#utility.yul\":8597:8608   */\n  dup3\n    /* \"#utility.yul\":8568:8648   */\n  tag_53\n  jump\t// in\ntag_158:\n    /* \"#utility.yul\":8227:8658   */\n  pop\n  pop\n    /* \"#utility.yul\":8212:8658   */\ntag_154:\n    /* \"#utility.yul\":8122:8665   */\n  pop\n  pop\n  pop\n  jump\t// out\n    /* \"#utility.yul\":8671:8788   */\ntag_55:\n    /* \"#utility.yul\":8725:8733   */\n  0x00\n    /* \"#utility.yul\":8775:8780   */\n  dup3\n    /* \"#utility.yul\":8769:8773   */\n  dup3\n    /* \"#utility.yul\":8765:8781   */\n  shr\n    /* \"#utility.yul\":8744:8781   */\n  swap1\n  pop\n    /* \"#utility.yul\":8671:8788   */\n  swap3\n  swap2\n  pop\n  pop\n  jump\t// out\n    /* \"#utility.yul\":8794:8963   */\ntag_56:\n    /* \"#utility.yul\":8838:8844   */\n  0x00\n    /* \"#utility.yul\":8871:8922   */\n  tag_162\n    /* \"#utility.yul\":8919:8920   */\n  0x00\n    /* \"#utility.yul\":8915:8921   */\n  not\n    /* \"#utility.yul\":8907:8912   */\n  dup5\n    /* \"#utility.yul\":8904:8905   */\n  0x08\n    /* \"#utility.yul\":8900:8913   */\n  mul\n    /* \"#utility.yul\":8871:8922   */\n  tag_55\n  jump\t// in\ntag_162:\n    /* \"#utility.yul\":8867:8923   */\n  not\n    /* \"#utility.yul\":8952:8956   */\n  dup1\n    /* \"#utility.yul\":8946:8950   */\n  dup4\n    /* \"#utility.yul\":8942:8957   */\n  and\n    /* \"#utility.yul\":8932:8957   */\n  swap2\n  pop\n    /* \"#utility.yul\":8845:8963   */\n  pop\n    /* \"#utility.yul\":8794:8963   */\n  swap3\n  swap2\n  pop\n  pop\n  jump\t// out\n    /* \"#utility.yul\":8968:9263   */\ntag_57:\n    /* \"#utility.yul\":9044:9048   */\n  0x00\n    /* \"#utility.yul\":9190:9219   */\n  tag_164\n    /* \"#utility.yul\":9215:9218   */\n  dup4\n    /* \"#utility.yul\":9209:9213   */\n  dup4\n    /* \"#utility.yul\":9190:9219   */\n  tag_56\n  jump\t// in\ntag_164:\n    /* \"#utility.yul\":9182:9219   */\n  swap2\n  pop\n    /* \"#utility.yul\":9252:9255   */\n  dup3\n    /* \"#utility.yul\":9249:9250   */\n  0x02\n    /* \"#utility.yul\":9245:9256   */\n  mul\n    /* \"#utility.yul\":9239:9243   */\n  dup3\n    /* \"#utility.yul\":9236:9257   */\n  or\n    /* \"#utility.yul\":9228:9257   */\n  swap1\n  pop\n    /* \"#utility.yul\":8968:9263   */\n  swap3\n  swap2\n  pop\n  pop\n  jump\t// out\n    /* \"#utility.yul\":9268:10663   */\ntag_14:\n    /* \"#utility.yul\":9385:9422   */\n  tag_166\n    /* \"#utility.yul\":9418:9421   */\n  dup3\n    /* \"#utility.yul\":9385:9422   */\n  tag_40\n  jump\t// in\ntag_166:\n    /* \"#utility.yul\":9487:9505   */\n  0xffffffffffffffff\n    /* \"#utility.yul\":9479:9485   */\n  dup2\n    /* \"#utility.yul\":9476:9506   */\n  gt\n    /* \"#utility.yul\":9473:9529   */\n  iszero\n  tag_167\n  jumpi\n    /* \"#utility.yul\":9509:9527   */\n  tag_168\n  tag_25\n  jump\t// in\ntag_168:\n    /* \"#utility.yul\":9473:9529   */\ntag_167:\n    /* \"#utility.yul\":9553:9591   */\n  tag_169\n    /* \"#utility.yul\":9585:9589   */\n  dup3\n    /* \"#utility.yul\":9579:9590   */\n  sload\n    /* \"#utility.yul\":9553:9591   */\n  tag_42\n  jump\t// in\ntag_169:\n    /* \"#utility.yul\":9638:9705   */\n  tag_170\n    /* \"#utility.yul\":9698:9704   */\n  dup3\n    /* \"#utility.yul\":9690:9696   */\n  dup3\n    /* \"#utility.yul\":9684:9688   */\n  dup6\n    /* \"#utility.yul\":9638:9705   */\n  tag_54\n  jump\t// in\ntag_170:\n    /* \"#utility.yul\":9732:9733   */\n  0x00\n    /* \"#utility.yul\":9756:9760   */\n  0x20\n    /* \"#utility.yul\":9743:9760   */\n  swap1\n  pop\n    /* \"#utility.yul\":9788:9790   */\n  0x1f\n    /* \"#utility.yul\":9780:9786   */\n  dup4\n    /* \"#utility.yul\":9777:9791   */\n  gt\n    /* \"#utility.yul\":9805:9806   */\n  0x01\n    /* \"#utility.yul\":9800:10418   */\n  dup2\n  eq\n  tag_172\n  jumpi\n    /* \"#utility.yul\":10462:10463   */\n  0x00\n    /* \"#utility.yul\":10479:10485   */\n  dup5\n    /* \"#utility.yul\":10476:10553   */\n  iszero\n  tag_173\n  jumpi\n    /* \"#utility.yul\":10528:10537   */\n  dup3\n    /* \"#utility.yul\":10523:10526   */\n  dup8\n    /* \"#utility.yul\":10519:10538   */\n  add\n    /* \"#utility.yul\":10513:10539   */\n  mload\n    /* \"#utility.yul\":10504:10539   */\n  swap1\n  pop\n    /* \"#utility.yul\":10476:10553   */\ntag_173:\n    /* \"#utility.yul\":10579:10646   */\n  tag_174\n    /* \"#utility.yul\":10639:10645   */\n  dup6\n    /* \"#utility.yul\":10632:10637   */\n  dup3\n    /* \"#utility.yul\":10579:10646   */\n  tag_57\n  jump\t// in\ntag_174:\n    /* \"#utility.yul\":10573:10577   */\n  dup7\n    /* \"#utility.yul\":10566:10647   */\n  sstore\n    /* \"#utility.yul\":10435:10657   */\n  pop\n    /* \"#utility.yul\":9770:10657   */\n  jump(tag_171)\n    /* \"#utility.yul\":9800:10418   */\ntag_172:\n    /* \"#utility.yul\":9852:9856   */\n  0x1f\n    /* \"#utility.yul\":9848:9857   */\n  not\n    /* \"#utility.yul\":9840:9846   */\n  dup5\n    /* \"#utility.yul\":9836:9858   */\n  and\n    /* \"#utility.yul\":9886:9923   */\n  tag_175\n    /* \"#utility.yul\":9918:9922   */\n  dup7\n    /* \"#utility.yul\":9886:9923   */\n  tag_43\n  jump\t// in\ntag_175:\n    /* \"#utility.yul\":9945:9946   */\n  0x00\n    /* \"#utility.yul\":9959:10167   */\ntag_176:\n    /* \"#utility.yul\":9973:9980   */\n  dup3\n    /* \"#utility.yul\":9970:9971   */\n  dup2\n    /* \"#utility.yul\":9967:9981   */\n  lt\n    /* \"#utility.yul\":9959:10167   */\n  iszero\n  tag_178\n  jumpi\n    /* \"#utility.yul\":10052:10061   */\n  dup5\n    /* \"#utility.yul\":10047:10050   */\n  dup10\n    /* \"#utility.yul\":10043:10062   */\n  add\n    /* \"#utility.yul\":10037:10063   */\n  mload\n    /* \"#utility.yul\":10029:10035   */\n  dup3\n    /* \"#utility.yul\":10022:10064   */\n  sstore\n    /* \"#utility.yul\":10103:10104   */\n  0x01\n    /* \"#utility.yul\":10095:10101   */\n  dup3\n    /* \"#utility.yul\":10091:10105   */\n  add\n    /* \"#utility.yul\":10081:10105   */\n  swap2\n  pop\n    /* \"#utility.yul\":10150:10152   */\n  0x20\n    /* \"#utility.yul\":10139:10148   */\n  dup6\n    /* \"#utility.yul\":10135:10153   */\n  add\n    /* \"#utility.yul\":10122:10153   */\n  swap5\n  pop\n    /* \"#utility.yul\":9996:10000   */\n  0x20\n    /* \"#utility.yul\":9993:9994   */\n  dup2\n    /* \"#utility.yul\":9989:10001   */\n  add\n    /* \"#utility.yul\":9984:10001   */\n  swap1\n  pop\n    /* \"#utility.yul\":9959:10167   */\n  jump(tag_176)\ntag_178:\n    /* \"#utility.yul\":10195:10201   */\n  dup7\n    /* \"#utility.yul\":10186:10193   */\n  dup4\n    /* \"#utility.yul\":10183:10202   */\n  lt\n    /* \"#utility.yul\":10180:10359   */\n  iszero\n  tag_179\n  jumpi\n    /* \"#utility.yul\":10253:10262   */\n  dup5\n    /* \"#utility.yul\":10248:10251   */\n  dup10\n    /* \"#utility.yul\":10244:10263   */\n  add\n    /* \"#utility.yul\":10238:10264   */\n  mload\n    /* \"#utility.yul\":10296:10344   */\n  tag_180\n    /* \"#utility.yul\":10338:10342   */\n  0x1f\n    /* \"#utility.yul\":10330:10336   */\n  dup10\n    /* \"#utility.yul\":10326:10343   */\n  and\n    /* \"#utility.yul\":10315:10324   */\n  dup3\n    /* \"#utility.yul\":10296:10344   */\n  tag_56\n  jump\t// in\ntag_180:\n    /* \"#utility.yul\":10288:10294   */\n  dup4\n    /* \"#utility.yul\":10281:10345   */\n  sstore\n    /* \"#utility.yul\":10203:10359   */\n  pop\n    /* \"#utility.yul\":10180:10359   */\ntag_179:\n    /* \"#utility.yul\":10405:10406   */\n  0x01\n    /* \"#utility.yul\":10401:10402   */\n  0x02\n    /* \"#utility.yul\":10393:10399   */\n  dup9\n    /* \"#utility.yul\":10389:10403   */\n  mul\n    /* \"#utility.yul\":10385:10407   */\n  add\n    /* \"#utility.yul\":10379:10383   */\n  dup9\n    /* \"#utility.yul\":10372:10408   */\n  sstore\n    /* \"#utility.yul\":9807:10418   */\n  pop\n  pop\n  pop\n    /* \"#utility.yul\":9770:10657   */\ntag_171:\n  pop\n    /* \"#utility.yul\":9360:10663   */\n  pop\n  pop\n  pop\n    /* \"#utility.yul\":9268:10663   */\n  pop\n  pop\n  jump\t// out\n    /* \"#utility.yul\":10669:10849   */\ntag_58:\n    /* \"#utility.yul\":10717:10794   */\n  0x4e487b7100000000000000000000000000000000000000000000000000000000\n    /* \"#utility.yul\":10714:10715   */\n  0x00\n    /* \"#utility.yul\":10707:10795   */\n  mstore\n    /* \"#utility.yul\":10814:10818   */\n  0x11\n    /* \"#utility.yul\":10811:10812   */\n  0x04\n    /* \"#utility.yul\":10804:10819   */\n  mstore\n    /* \"#utility.yul\":10838:10842   */\n  0x24\n    /* \"#utility.yul\":10835:10836   */\n  0x00\n    /* \"#utility.yul\":10828:10843   */\n  revert\n    /* \"#utility.yul\":10855:11265   */\ntag_16:\n    /* \"#utility.yul\":10895:10902   */\n  0x00\n    /* \"#utility.yul\":10918:10938   */\n  tag_183\n    /* \"#utility.yul\":10936:10937   */\n  dup3\n    /* \"#utility.yul\":10918:10938   */\n  tag_37\n  jump\t// in\ntag_183:\n    /* \"#utility.yul\":10913:10938   */\n  swap2\n  pop\n    /* \"#utility.yul\":10952:10972   */\n  tag_184\n    /* \"#utility.yul\":10970:10971   */\n  dup4\n    /* \"#utility.yul\":10952:10972   */\n  tag_37\n  jump\t// in\ntag_184:\n    /* \"#utility.yul\":10947:10972   */\n  swap3\n  pop\n    /* \"#utility.yul\":11007:11008   */\n  dup3\n    /* \"#utility.yul\":11004:11005   */\n  dup3\n    /* \"#utility.yul\":11000:11009   */\n  mul\n    /* \"#utility.yul\":11029:11059   */\n  tag_185\n    /* \"#utility.yul\":11047:11058   */\n  dup2\n    /* \"#utility.yul\":11029:11059   */\n  tag_37\n  jump\t// in\ntag_185:\n    /* \"#utility.yul\":11018:11059   */\n  swap2\n  pop\n    /* \"#utility.yul\":11208:11209   */\n  dup3\n    /* \"#utility.yul\":11199:11206   */\n  dup3\n    /* \"#utility.yul\":11195:11210   */\n  div\n    /* \"#utility.yul\":11192:11193   */\n  dup5\n    /* \"#utility.yul\":11189:11211   */\n  eq\n    /* \"#utility.yul\":11169:11170   */\n  dup4\n    /* \"#utility.yul\":11162:11171   */\n  iszero\n    /* \"#utility.yul\":11142:11225   */\n  or\n    /* \"#utility.yul\":11119:11258   */\n  tag_186\n  jumpi\n    /* \"#utility.yul\":11238:11256   */\n  tag_187\n  tag_58\n  jump\t// in\ntag_187:\n    /* \"#utility.yul\":11119:11258   */\ntag_186:\n    /* \"#utility.yul\":10903:11265   */\n  pop\n    /* \"#utility.yul\":10855:11265   */\n  swap3\n  swap2\n  pop\n  pop\n  jump\t// out\n    /* \"#utility.yul\":11271:11462   */\ntag_18:\n    /* \"#utility.yul\":11311:11314   */\n  0x00\n    /* \"#utility.yul\":11330:11350   */\n  tag_189\n    /* \"#utility.yul\":11348:11349   */\n  dup3\n    /* \"#utility.yul\":11330:11350   */\n  tag_37\n  jump\t// in\ntag_189:\n    /* \"#utility.yul\":11325:11350   */\n  swap2\n  pop\n    /* \"#utility.yul\":11364:11384   */\n  tag_190\n    /* \"#utility.yul\":11382:11383   */\n  dup4\n    /* \"#utility.yul\":11364:11384   */\n  tag_37\n  jump\t// in\ntag_190:\n    /* \"#utility.yul\":11359:11384   */\n  swap3\n  pop\n    /* \"#utility.yul\":11407:11408   */\n  dup3\n    /* \"#utility.yul\":11404:11405   */\n  dup3\n    /* \"#utility.yul\":11400:11409   */\n  add\n    /* \"#utility.yul\":11393:11409   */\n  swap1\n  pop\n    /* \"#utility.yul\":11428:11431   */\n  dup1\n    /* \"#utility.yul\":11425:11426   */\n  dup3\n    /* \"#utility.yul\":11422:11432   */\n  gt\n    /* \"#utility.yul\":11419:11455   */\n  iszero\n  tag_191\n  jumpi\n    /* \"#utility.yul\":11435:11453   */\n  tag_192\n  tag_58\n  jump\t// in\ntag_192:\n    /* \"#utility.yul\":11419:11455   */\ntag_191:\n    /* \"#utility.yul\":11271:11462   */\n  swap3\n  swap2\n  pop\n  pop\n  jump\t// out\n    /* \"contracts/1_Storage.sol\":57:2717  contract CustomVoting {... */\ntag_19:\n  dataSize(sub_0)\n  dup1\n  dataOffset(sub_0)\n  0x00\n  codecopy\n  0x00\n  return\nstop\n\nsub_0: assembly {\n        /* \"contracts/1_Storage.sol\":57:2717  contract CustomVoting {... */\n      mstore(0x40, 0x80)\n      callvalue\n      dup1\n      iszero\n      tag_1\n      jumpi\n      0x00\n      dup1\n      revert\n    tag_1:\n      pop\n      jumpi(tag_2, lt(calldatasize, 0x04))\n      shr(0xe0, calldataload(0x00))\n      dup1\n      0x3eb76b9c\n      gt\n      tag_15\n      jumpi\n      dup1\n      0x3eb76b9c\n      eq\n      tag_9\n      jumpi\n      dup1\n      0x581c281c\n      eq\n      tag_10\n      jumpi\n      dup1\n      0x85a38635\n      eq\n      tag_11\n      jumpi\n      dup1\n      0x866163c0\n      eq\n      tag_12\n      jumpi\n      dup1\n      0x8da5cb5b\n      eq\n      tag_13\n      jumpi\n      dup1\n      0xefb98bcf\n      eq\n      tag_14\n      jumpi\n      jump(tag_2)\n    tag_15:\n      dup1\n      0x09eef43e\n      eq\n      tag_3\n      jumpi\n      dup1\n      0x101158af\n      eq\n      tag_4\n      jumpi\n      dup1\n      0x2d307d60\n      eq\n      tag_5\n      jumpi\n      dup1\n      0x2e6997fe\n      eq\n      tag_6\n      jumpi\n      dup1\n      0x3477ee2e\n      eq\n      tag_7\n      jumpi\n      dup1\n      0x37836c8d\n      eq\n      tag_8\n      jumpi\n    tag_2:\n      0x00\n      dup1\n      revert\n        /* \"contracts/1_Storage.sol\":224:264  mapping(address => bool) public hasVoted */\n    tag_3:\n      tag_16\n      0x04\n      dup1\n      calldatasize\n      sub\n      dup2\n      add\n      swap1\n      tag_17\n      swap2\n      swap1\n      tag_18\n      jump\t// in\n    tag_17:\n      tag_19\n      jump\t// in\n    tag_16:\n      mload(0x40)\n      tag_20\n      swap2\n      swap1\n      tag_21\n      jump\t// in\n    tag_20:\n      mload(0x40)\n      dup1\n      swap2\n      sub\n      swap1\n      return\n        /* \"contracts/1_Storage.sol\":271:297  uint256 public votingStart */\n    tag_4:\n      tag_22\n      tag_23\n      jump\t// in\n    tag_22:\n      mload(0x40)\n      tag_24\n      swap2\n      swap1\n      tag_25\n      jump\t// in\n    tag_24:\n      mload(0x40)\n      dup1\n      swap2\n      sub\n      swap1\n      return\n        /* \"contracts/1_Storage.sol\":1060:1229  function addNewCandidate(string memory _name) public onlyOwner {... */\n    tag_5:\n      tag_26\n      0x04\n      dup1\n      calldatasize\n      sub\n      dup2\n      add\n      swap1\n      tag_27\n      swap2\n      swap1\n      tag_28\n      jump\t// in\n    tag_27:\n      tag_29\n      jump\t// in\n    tag_26:\n      stop\n        /* \"contracts/1_Storage.sol\":2182:2619  function getAllCandidates() public view returns (string[] memory, uint256[] memory) {... */\n    tag_6:\n      tag_30\n      tag_31\n      jump\t// in\n    tag_30:\n      mload(0x40)\n      tag_32\n      swap3\n      swap2\n      swap1\n      tag_33\n      jump\t// in\n    tag_32:\n      mload(0x40)\n      dup1\n      swap2\n      sub\n      swap1\n      return\n        /* \"contracts/1_Storage.sol\":163:192  Candidate[] public candidates */\n    tag_7:\n      tag_34\n      0x04\n      dup1\n      calldatasize\n      sub\n      dup2\n      add\n      swap1\n      tag_35\n      swap2\n      swap1\n      tag_36\n      jump\t// in\n    tag_35:\n      tag_37\n      jump\t// in\n    tag_34:\n      mload(0x40)\n      tag_38\n      swap3\n      swap2\n      swap1\n      tag_39\n      jump\t// in\n    tag_38:\n      mload(0x40)\n      dup1\n      swap2\n      sub\n      swap1\n      return\n        /* \"contracts/1_Storage.sol\":2621:2714  function NumberOfCandidates() public view returns (uint256) {... */\n    tag_8:\n      tag_40\n      tag_41\n      jump\t// in\n    tag_40:\n      mload(0x40)\n      tag_42\n      swap2\n      swap1\n      tag_25\n      jump\t// in\n    tag_42:\n      mload(0x40)\n      dup1\n      swap2\n      sub\n      swap1\n      return\n        /* \"contracts/1_Storage.sol\":1235:1581  function castVote(uint256 _candidateIndex) public validCandidate(_candidateIndex) {... */\n    tag_9:\n      tag_43\n      0x04\n      dup1\n      calldatasize\n      sub\n      dup2\n      add\n      swap1\n      tag_44\n      swap2\n      swap1\n      tag_36\n      jump\t// in\n    tag_44:\n      tag_45\n      jump\t// in\n    tag_43:\n      stop\n        /* \"contracts/1_Storage.sol\":1768:1909  function getVotingStatus() public view returns (bool) {... */\n    tag_10:\n      tag_46\n      tag_47\n      jump\t// in\n    tag_46:\n      mload(0x40)\n      tag_48\n      swap2\n      swap1\n      tag_21\n      jump\t// in\n    tag_48:\n      mload(0x40)\n      dup1\n      swap2\n      sub\n      swap1\n      return\n        /* \"contracts/1_Storage.sol\":303:327  uint256 public votingEnd */\n    tag_11:\n      tag_49\n      tag_50\n      jump\t// in\n    tag_49:\n      mload(0x40)\n      tag_51\n      swap2\n      swap1\n      tag_25\n      jump\t// in\n    tag_51:\n      mload(0x40)\n      dup1\n      swap2\n      sub\n      swap1\n      return\n        /* \"contracts/1_Storage.sol\":1587:1762  function getCandidateVotes(uint256 _candidateIndex) public view validCandidate(_candidateIndex) returns (uint256) {... */\n    tag_12:\n      tag_52\n      0x04\n      dup1\n      calldatasize\n      sub\n      dup2\n      add\n      swap1\n      tag_53\n      swap2\n      swap1\n      tag_36\n      jump\t// in\n    tag_53:\n      tag_54\n      jump\t// in\n    tag_52:\n      mload(0x40)\n      tag_55\n      swap2\n      swap1\n      tag_25\n      jump\t// in\n    tag_55:\n      mload(0x40)\n      dup1\n      swap2\n      sub\n      swap1\n      return\n        /* \"contracts/1_Storage.sol\":198:218  address public owner */\n    tag_13:\n      tag_56\n      tag_57\n      jump\t// in\n    tag_56:\n      mload(0x40)\n      tag_58\n      swap2\n      swap1\n      tag_59\n      jump\t// in\n    tag_58:\n      mload(0x40)\n      dup1\n      swap2\n      sub\n      swap1\n      return\n        /* \"contracts/1_Storage.sol\":1915:2180  function getRemainingTime() public view returns (uint256) {... */\n    tag_14:\n      tag_60\n      tag_61\n      jump\t// in\n    tag_60:\n      mload(0x40)\n      tag_62\n      swap2\n      swap1\n      tag_25\n      jump\t// in\n    tag_62:\n      mload(0x40)\n      dup1\n      swap2\n      sub\n      swap1\n      return\n        /* \"contracts/1_Storage.sol\":224:264  mapping(address => bool) public hasVoted */\n    tag_19:\n      mstore(0x20, 0x02)\n      dup1\n      0x00\n      mstore\n      keccak256(0x00, 0x40)\n      0x00\n      swap2\n      pop\n      sload\n      swap1\n      0x0100\n      exp\n      swap1\n      div\n      0xff\n      and\n      dup2\n      jump\t// out\n        /* \"contracts/1_Storage.sol\":271:297  uint256 public votingStart */\n    tag_23:\n      sload(0x03)\n      dup2\n      jump\t// out\n        /* \"contracts/1_Storage.sol\":1060:1229  function addNewCandidate(string memory _name) public onlyOwner {... */\n    tag_29:\n        /* \"contracts/1_Storage.sol\":385:390  owner */\n      0x01\n      0x00\n      swap1\n      sload\n      swap1\n      0x0100\n      exp\n      swap1\n      div\n      0xffffffffffffffffffffffffffffffffffffffff\n      and\n        /* \"contracts/1_Storage.sol\":371:390  msg.sender == owner */\n      0xffffffffffffffffffffffffffffffffffffffff\n      and\n        /* \"contracts/1_Storage.sol\":371:381  msg.sender */\n      caller\n        /* \"contracts/1_Storage.sol\":371:390  msg.sender == owner */\n      0xffffffffffffffffffffffffffffffffffffffff\n      and\n      eq\n        /* \"contracts/1_Storage.sol\":363:434  require(msg.sender == owner, \"Only the owner can perform this action.\") */\n      tag_64\n      jumpi\n      mload(0x40)\n      0x08c379a000000000000000000000000000000000000000000000000000000000\n      dup2\n      mstore\n      0x04\n      add\n      tag_65\n      swap1\n      tag_66\n      jump\t// in\n    tag_65:\n      mload(0x40)\n      dup1\n      swap2\n      sub\n      swap1\n      revert\n    tag_64:\n        /* \"contracts/1_Storage.sol\":1133:1143  candidates */\n      0x00\n        /* \"contracts/1_Storage.sol\":1149:1221  Candidate({... */\n      mload(0x40)\n      dup1\n      0x40\n      add\n      0x40\n      mstore\n      dup1\n        /* \"contracts/1_Storage.sol\":1179:1184  _name */\n      dup4\n        /* \"contracts/1_Storage.sol\":1149:1221  Candidate({... */\n      dup2\n      mstore\n      0x20\n      add\n        /* \"contracts/1_Storage.sol\":1209:1210  0 */\n      0x00\n        /* \"contracts/1_Storage.sol\":1149:1221  Candidate({... */\n      dup2\n      mstore\n      pop\n        /* \"contracts/1_Storage.sol\":1133:1222  candidates.push(Candidate({... */\n      swap1\n      dup1\n      0x01\n      dup2\n      sload\n      add\n      dup1\n      dup3\n      sstore\n      dup1\n      swap2\n      pop\n      pop\n      0x01\n      swap1\n      sub\n      swap1\n      0x00\n      mstore\n      keccak256(0x00, 0x20)\n      swap1\n      0x02\n      mul\n      add\n      0x00\n      swap1\n      swap2\n      swap1\n      swap2\n      swap1\n      swap2\n      pop\n      0x00\n      dup3\n      add\n      mload\n      dup2\n      0x00\n      add\n      swap1\n      dup2\n      tag_69\n      swap2\n      swap1\n      tag_70\n      jump\t// in\n    tag_69:\n      pop\n      0x20\n      dup3\n      add\n      mload\n      dup2\n      0x01\n      add\n      sstore\n      pop\n      pop\n        /* \"contracts/1_Storage.sol\":1060:1229  function addNewCandidate(string memory _name) public onlyOwner {... */\n      pop\n      jump\t// out\n        /* \"contracts/1_Storage.sol\":2182:2619  function getAllCandidates() public view returns (string[] memory, uint256[] memory) {... */\n    tag_31:\n        /* \"contracts/1_Storage.sol\":2231:2246  string[] memory */\n      0x60\n        /* \"contracts/1_Storage.sol\":2248:2264  uint256[] memory */\n      dup1\n        /* \"contracts/1_Storage.sol\":2272:2302  string[] memory candidateNames */\n      0x00\n        /* \"contracts/1_Storage.sol\":2318:2328  candidates */\n      dup1\n        /* \"contracts/1_Storage.sol\":2318:2335  candidates.length */\n      dup1\n      sload\n      swap1\n      pop\n        /* \"contracts/1_Storage.sol\":2305:2336  new string[](candidates.length) */\n      0xffffffffffffffff\n      dup2\n      gt\n      iszero\n      tag_72\n      jumpi\n      tag_73\n      tag_74\n      jump\t// in\n    tag_73:\n    tag_72:\n      mload(0x40)\n      swap1\n      dup1\n      dup3\n      mstore\n      dup1\n      0x20\n      mul\n      0x20\n      add\n      dup3\n      add\n      0x40\n      mstore\n      dup1\n      iszero\n      tag_75\n      jumpi\n      dup2\n      0x20\n      add\n    tag_76:\n      0x60\n      dup2\n      mstore\n      0x20\n      add\n      swap1\n      0x01\n      swap1\n      sub\n      swap1\n      dup2\n      tag_76\n      jumpi\n      swap1\n      pop\n    tag_75:\n      pop\n        /* \"contracts/1_Storage.sol\":2272:2336  string[] memory candidateNames = new string[](candidates.length) */\n      swap1\n      pop\n        /* \"contracts/1_Storage.sol\":2342:2373  uint256[] memory candidateVotes */\n      0x00\n        /* \"contracts/1_Storage.sol\":2390:2400  candidates */\n      dup1\n        /* \"contracts/1_Storage.sol\":2390:2407  candidates.length */\n      dup1\n      sload\n      swap1\n      pop\n        /* \"contracts/1_Storage.sol\":2376:2408  new uint256[](candidates.length) */\n      0xffffffffffffffff\n      dup2\n      gt\n      iszero\n      tag_77\n      jumpi\n      tag_78\n      tag_74\n      jump\t// in\n    tag_78:\n    tag_77:\n      mload(0x40)\n      swap1\n      dup1\n      dup3\n      mstore\n      dup1\n      0x20\n      mul\n      0x20\n      add\n      dup3\n      add\n      0x40\n      mstore\n      dup1\n      iszero\n      tag_79\n      jumpi\n      dup2\n      0x20\n      add\n      0x20\n      dup3\n      mul\n      dup1\n      calldatasize\n      dup4\n      calldatacopy\n      dup1\n      dup3\n      add\n      swap2\n      pop\n      pop\n      swap1\n      pop\n    tag_79:\n      pop\n        /* \"contracts/1_Storage.sol\":2342:2408  uint256[] memory candidateVotes = new uint256[](candidates.length) */\n      swap1\n      pop\n        /* \"contracts/1_Storage.sol\":2420:2429  uint256 i */\n      0x00\n        /* \"contracts/1_Storage.sol\":2415:2571  for (uint256 i = 0; i < candidates.length; i++) {... */\n    tag_80:\n        /* \"contracts/1_Storage.sol\":2439:2449  candidates */\n      0x00\n        /* \"contracts/1_Storage.sol\":2439:2456  candidates.length */\n      dup1\n      sload\n      swap1\n      pop\n        /* \"contracts/1_Storage.sol\":2435:2436  i */\n      dup2\n        /* \"contracts/1_Storage.sol\":2435:2456  i < candidates.length */\n      lt\n        /* \"contracts/1_Storage.sol\":2415:2571  for (uint256 i = 0; i < candidates.length; i++) {... */\n      iszero\n      tag_81\n      jumpi\n        /* \"contracts/1_Storage.sol\":2493:2503  candidates */\n      0x00\n        /* \"contracts/1_Storage.sol\":2504:2505  i */\n      dup2\n        /* \"contracts/1_Storage.sol\":2493:2506  candidates[i] */\n      dup2\n      sload\n      dup2\n      lt\n      tag_83\n      jumpi\n      tag_84\n      tag_85\n      jump\t// in\n    tag_84:\n    tag_83:\n      swap1\n      0x00\n      mstore\n      keccak256(0x00, 0x20)\n      swap1\n      0x02\n      mul\n      add\n        /* \"contracts/1_Storage.sol\":2493:2511  candidates[i].name */\n      0x00\n      add\n        /* \"contracts/1_Storage.sol\":2473:2511  candidateNames[i] = candidates[i].name */\n      dup1\n      sload\n      tag_87\n      swap1\n      tag_88\n      jump\t// in\n    tag_87:\n      dup1\n      0x1f\n      add\n      0x20\n      dup1\n      swap2\n      div\n      mul\n      0x20\n      add\n      mload(0x40)\n      swap1\n      dup2\n      add\n      0x40\n      mstore\n      dup1\n      swap3\n      swap2\n      swap1\n      dup2\n      dup2\n      mstore\n      0x20\n      add\n      dup3\n      dup1\n      sload\n      tag_89\n      swap1\n      tag_88\n      jump\t// in\n    tag_89:\n      dup1\n      iszero\n      tag_90\n      jumpi\n      dup1\n      0x1f\n      lt\n      tag_91\n      jumpi\n      0x0100\n      dup1\n      dup4\n      sload\n      div\n      mul\n      dup4\n      mstore\n      swap2\n      0x20\n      add\n      swap2\n      jump(tag_90)\n    tag_91:\n      dup3\n      add\n      swap2\n      swap1\n      0x00\n      mstore\n      keccak256(0x00, 0x20)\n      swap1\n    tag_92:\n      dup2\n      sload\n      dup2\n      mstore\n      swap1\n      0x01\n      add\n      swap1\n      0x20\n      add\n      dup1\n      dup4\n      gt\n      tag_92\n      jumpi\n      dup3\n      swap1\n      sub\n      0x1f\n      and\n      dup3\n      add\n      swap2\n    tag_90:\n      pop\n      pop\n      pop\n      pop\n      pop\n        /* \"contracts/1_Storage.sol\":2473:2487  candidateNames */\n      dup4\n        /* \"contracts/1_Storage.sol\":2488:2489  i */\n      dup3\n        /* \"contracts/1_Storage.sol\":2473:2490  candidateNames[i] */\n      dup2\n      mload\n      dup2\n      lt\n      tag_93\n      jumpi\n      tag_94\n      tag_85\n      jump\t// in\n    tag_94:\n    tag_93:\n      0x20\n      mul\n      0x20\n      add\n      add\n        /* \"contracts/1_Storage.sol\":2473:2511  candidateNames[i] = candidates[i].name */\n      dup2\n      swap1\n      mstore\n      pop\n        /* \"contracts/1_Storage.sol\":2541:2551  candidates */\n      0x00\n        /* \"contracts/1_Storage.sol\":2552:2553  i */\n      dup2\n        /* \"contracts/1_Storage.sol\":2541:2554  candidates[i] */\n      dup2\n      sload\n      dup2\n      lt\n      tag_95\n      jumpi\n      tag_96\n      tag_85\n      jump\t// in\n    tag_96:\n    tag_95:\n      swap1\n      0x00\n      mstore\n      keccak256(0x00, 0x20)\n      swap1\n      0x02\n      mul\n      add\n        /* \"contracts/1_Storage.sol\":2541:2564  candidates[i].voteCount */\n      0x01\n      add\n      sload\n        /* \"contracts/1_Storage.sol\":2521:2535  candidateVotes */\n      dup3\n        /* \"contracts/1_Storage.sol\":2536:2537  i */\n      dup3\n        /* \"contracts/1_Storage.sol\":2521:2538  candidateVotes[i] */\n      dup2\n      mload\n      dup2\n      lt\n      tag_98\n      jumpi\n      tag_99\n      tag_85\n      jump\t// in\n    tag_99:\n    tag_98:\n      0x20\n      mul\n      0x20\n      add\n      add\n        /* \"contracts/1_Storage.sol\":2521:2564  candidateVotes[i] = candidates[i].voteCount */\n      dup2\n      dup2\n      mstore\n      pop\n      pop\n        /* \"contracts/1_Storage.sol\":2458:2461  i++ */\n      dup1\n      dup1\n      0x01\n      add\n      swap2\n      pop\n      pop\n        /* \"contracts/1_Storage.sol\":2415:2571  for (uint256 i = 0; i < candidates.length; i++) {... */\n      jump(tag_80)\n    tag_81:\n      pop\n        /* \"contracts/1_Storage.sol\":2585:2599  candidateNames */\n      dup2\n        /* \"contracts/1_Storage.sol\":2601:2615  candidateVotes */\n      dup2\n        /* \"contracts/1_Storage.sol\":2577:2616  return (candidateNames, candidateVotes) */\n      swap4\n      pop\n      swap4\n      pop\n      pop\n      pop\n        /* \"contracts/1_Storage.sol\":2182:2619  function getAllCandidates() public view returns (string[] memory, uint256[] memory) {... */\n      swap1\n      swap2\n      jump\t// out\n        /* \"contracts/1_Storage.sol\":163:192  Candidate[] public candidates */\n    tag_37:\n      0x00\n      dup2\n      dup2\n      sload\n      dup2\n      lt\n      tag_100\n      jumpi\n      0x00\n      dup1\n      revert\n    tag_100:\n      swap1\n      0x00\n      mstore\n      keccak256(0x00, 0x20)\n      swap1\n      0x02\n      mul\n      add\n      0x00\n      swap2\n      pop\n      swap1\n      pop\n      dup1\n      0x00\n      add\n      dup1\n      sload\n      tag_102\n      swap1\n      tag_88\n      jump\t// in\n    tag_102:\n      dup1\n      0x1f\n      add\n      0x20\n      dup1\n      swap2\n      div\n      mul\n      0x20\n      add\n      mload(0x40)\n      swap1\n      dup2\n      add\n      0x40\n      mstore\n      dup1\n      swap3\n      swap2\n      swap1\n      dup2\n      dup2\n      mstore\n      0x20\n      add\n      dup3\n      dup1\n      sload\n      tag_103\n      swap1\n      tag_88\n      jump\t// in\n    tag_103:\n      dup1\n      iszero\n      tag_104\n      jumpi\n      dup1\n      0x1f\n      lt\n      tag_105\n      jumpi\n      0x0100\n      dup1\n      dup4\n      sload\n      div\n      mul\n      dup4\n      mstore\n      swap2\n      0x20\n      add\n      swap2\n      jump(tag_104)\n    tag_105:\n      dup3\n      add\n      swap2\n      swap1\n      0x00\n      mstore\n      keccak256(0x00, 0x20)\n      swap1\n    tag_106:\n      dup2\n      sload\n      dup2\n      mstore\n      swap1\n      0x01\n      add\n      swap1\n      0x20\n      add\n      dup1\n      dup4\n      gt\n      tag_106\n      jumpi\n      dup3\n      swap1\n      sub\n      0x1f\n      and\n      dup3\n      add\n      swap2\n    tag_104:\n      pop\n      pop\n      pop\n      pop\n      pop\n      swap1\n      dup1\n      0x01\n      add\n      sload\n      swap1\n      pop\n      dup3\n      jump\t// out\n        /* \"contracts/1_Storage.sol\":2621:2714  function NumberOfCandidates() public view returns (uint256) {... */\n    tag_41:\n        /* \"contracts/1_Storage.sol\":2672:2679  uint256 */\n      0x00\n        /* \"contracts/1_Storage.sol\":2694:2704  candidates */\n      dup1\n        /* \"contracts/1_Storage.sol\":2694:2711  candidates.length */\n      dup1\n      sload\n      swap1\n      pop\n        /* \"contracts/1_Storage.sol\":2687:2711  return candidates.length */\n      swap1\n      pop\n        /* \"contracts/1_Storage.sol\":2621:2714  function NumberOfCandidates() public view returns (uint256) {... */\n      swap1\n      jump\t// out\n        /* \"contracts/1_Storage.sol\":1235:1581  function castVote(uint256 _candidateIndex) public validCandidate(_candidateIndex) {... */\n    tag_45:\n        /* \"contracts/1_Storage.sol\":1300:1315  _candidateIndex */\n      dup1\n        /* \"contracts/1_Storage.sol\":543:553  candidates */\n      0x00\n        /* \"contracts/1_Storage.sol\":543:560  candidates.length */\n      dup1\n      sload\n      swap1\n      pop\n        /* \"contracts/1_Storage.sol\":525:540  _candidateIndex */\n      dup2\n        /* \"contracts/1_Storage.sol\":525:560  _candidateIndex < candidates.length */\n      lt\n        /* \"contracts/1_Storage.sol\":517:589  require(_candidateIndex < candidates.length, \"Invalid candidate index.\") */\n      tag_109\n      jumpi\n      mload(0x40)\n      0x08c379a000000000000000000000000000000000000000000000000000000000\n      dup2\n      mstore\n      0x04\n      add\n      tag_110\n      swap1\n      tag_111\n      jump\t// in\n    tag_110:\n      mload(0x40)\n      dup1\n      swap2\n      sub\n      swap1\n      revert\n    tag_109:\n        /* \"contracts/1_Storage.sol\":1336:1344  hasVoted */\n      0x02\n        /* \"contracts/1_Storage.sol\":1336:1356  hasVoted[msg.sender] */\n      0x00\n        /* \"contracts/1_Storage.sol\":1345:1355  msg.sender */\n      caller\n        /* \"contracts/1_Storage.sol\":1336:1356  hasVoted[msg.sender] */\n      0xffffffffffffffffffffffffffffffffffffffff\n      and\n      0xffffffffffffffffffffffffffffffffffffffff\n      and\n      dup2\n      mstore\n      0x20\n      add\n      swap1\n      dup2\n      mstore\n      0x20\n      add\n      0x00\n      keccak256\n      0x00\n      swap1\n      sload\n      swap1\n      0x0100\n      exp\n      swap1\n      div\n      0xff\n      and\n        /* \"contracts/1_Storage.sol\":1335:1356  !hasVoted[msg.sender] */\n      iszero\n        /* \"contracts/1_Storage.sol\":1327:1384  require(!hasVoted[msg.sender], \"You have already voted.\") */\n      tag_113\n      jumpi\n      mload(0x40)\n      0x08c379a000000000000000000000000000000000000000000000000000000000\n      dup2\n      mstore\n      0x04\n      add\n      tag_114\n      swap1\n      tag_115\n      jump\t// in\n    tag_114:\n      mload(0x40)\n      dup1\n      swap2\n      sub\n      swap1\n      revert\n    tag_113:\n        /* \"contracts/1_Storage.sol\":1421:1432  votingStart */\n      sload(0x03)\n        /* \"contracts/1_Storage.sol\":1402:1417  block.timestamp */\n      timestamp\n        /* \"contracts/1_Storage.sol\":1402:1432  block.timestamp >= votingStart */\n      lt\n      iszero\n        /* \"contracts/1_Storage.sol\":1402:1463  block.timestamp >= votingStart && block.timestamp < votingEnd */\n      dup1\n      iszero\n      tag_116\n      jumpi\n      pop\n        /* \"contracts/1_Storage.sol\":1454:1463  votingEnd */\n      sload(0x04)\n        /* \"contracts/1_Storage.sol\":1436:1451  block.timestamp */\n      timestamp\n        /* \"contracts/1_Storage.sol\":1436:1463  block.timestamp < votingEnd */\n      lt\n        /* \"contracts/1_Storage.sol\":1402:1463  block.timestamp >= votingStart && block.timestamp < votingEnd */\n    tag_116:\n        /* \"contracts/1_Storage.sol\":1394:1487  require(block.timestamp >= votingStart && block.timestamp < votingEnd, \"Voting is not open.\") */\n      tag_117\n      jumpi\n      mload(0x40)\n      0x08c379a000000000000000000000000000000000000000000000000000000000\n      dup2\n      mstore\n      0x04\n      add\n      tag_118\n      swap1\n      tag_119\n      jump\t// in\n    tag_118:\n      mload(0x40)\n      dup1\n      swap2\n      sub\n      swap1\n      revert\n    tag_117:\n        /* \"contracts/1_Storage.sol\":1498:1508  candidates */\n      0x00\n        /* \"contracts/1_Storage.sol\":1509:1524  _candidateIndex */\n      dup3\n        /* \"contracts/1_Storage.sol\":1498:1525  candidates[_candidateIndex] */\n      dup2\n      sload\n      dup2\n      lt\n      tag_120\n      jumpi\n      tag_121\n      tag_85\n      jump\t// in\n    tag_121:\n    tag_120:\n      swap1\n      0x00\n      mstore\n      keccak256(0x00, 0x20)\n      swap1\n      0x02\n      mul\n      add\n        /* \"contracts/1_Storage.sol\":1498:1535  candidates[_candidateIndex].voteCount */\n      0x01\n      add\n      0x00\n        /* \"contracts/1_Storage.sol\":1498:1537  candidates[_candidateIndex].voteCount++ */\n      dup2\n      sload\n      dup1\n      swap3\n      swap2\n      swap1\n      tag_123\n      swap1\n      tag_124\n      jump\t// in\n    tag_123:\n      swap2\n      swap1\n      pop\n      sstore\n      pop\n        /* \"contracts/1_Storage.sol\":1570:1574  true */\n      0x01\n        /* \"contracts/1_Storage.sol\":1547:1555  hasVoted */\n      0x02\n        /* \"contracts/1_Storage.sol\":1547:1567  hasVoted[msg.sender] */\n      0x00\n        /* \"contracts/1_Storage.sol\":1556:1566  msg.sender */\n      caller\n        /* \"contracts/1_Storage.sol\":1547:1567  hasVoted[msg.sender] */\n      0xffffffffffffffffffffffffffffffffffffffff\n      and\n      0xffffffffffffffffffffffffffffffffffffffff\n      and\n      dup2\n      mstore\n      0x20\n      add\n      swap1\n      dup2\n      mstore\n      0x20\n      add\n      0x00\n      keccak256\n      0x00\n        /* \"contracts/1_Storage.sol\":1547:1574  hasVoted[msg.sender] = true */\n      0x0100\n      exp\n      dup2\n      sload\n      dup2\n      0xff\n      mul\n      not\n      and\n      swap1\n      dup4\n      iszero\n      iszero\n      mul\n      or\n      swap1\n      sstore\n      pop\n        /* \"contracts/1_Storage.sol\":1235:1581  function castVote(uint256 _candidateIndex) public validCandidate(_candidateIndex) {... */\n      pop\n      pop\n      jump\t// out\n        /* \"contracts/1_Storage.sol\":1768:1909  function getVotingStatus() public view returns (bool) {... */\n    tag_47:\n        /* \"contracts/1_Storage.sol\":1816:1820  bool */\n      0x00\n        /* \"contracts/1_Storage.sol\":1859:1870  votingStart */\n      sload(0x03)\n        /* \"contracts/1_Storage.sol\":1840:1855  block.timestamp */\n      timestamp\n        /* \"contracts/1_Storage.sol\":1840:1870  block.timestamp >= votingStart */\n      lt\n      iszero\n        /* \"contracts/1_Storage.sol\":1840:1901  block.timestamp >= votingStart && block.timestamp < votingEnd */\n      dup1\n      iszero\n      tag_126\n      jumpi\n      pop\n        /* \"contracts/1_Storage.sol\":1892:1901  votingEnd */\n      sload(0x04)\n        /* \"contracts/1_Storage.sol\":1874:1889  block.timestamp */\n      timestamp\n        /* \"contracts/1_Storage.sol\":1874:1901  block.timestamp < votingEnd */\n      lt\n        /* \"contracts/1_Storage.sol\":1840:1901  block.timestamp >= votingStart && block.timestamp < votingEnd */\n    tag_126:\n        /* \"contracts/1_Storage.sol\":1832:1902  return (block.timestamp >= votingStart && block.timestamp < votingEnd) */\n      swap1\n      pop\n        /* \"contracts/1_Storage.sol\":1768:1909  function getVotingStatus() public view returns (bool) {... */\n      swap1\n      jump\t// out\n        /* \"contracts/1_Storage.sol\":303:327  uint256 public votingEnd */\n    tag_50:\n      sload(0x04)\n      dup2\n      jump\t// out\n        /* \"contracts/1_Storage.sol\":1587:1762  function getCandidateVotes(uint256 _candidateIndex) public view validCandidate(_candidateIndex) returns (uint256) {... */\n    tag_54:\n        /* \"contracts/1_Storage.sol\":1692:1699  uint256 */\n      0x00\n        /* \"contracts/1_Storage.sol\":1666:1681  _candidateIndex */\n      dup2\n        /* \"contracts/1_Storage.sol\":543:553  candidates */\n      0x00\n        /* \"contracts/1_Storage.sol\":543:560  candidates.length */\n      dup1\n      sload\n      swap1\n      pop\n        /* \"contracts/1_Storage.sol\":525:540  _candidateIndex */\n      dup2\n        /* \"contracts/1_Storage.sol\":525:560  _candidateIndex < candidates.length */\n      lt\n        /* \"contracts/1_Storage.sol\":517:589  require(_candidateIndex < candidates.length, \"Invalid candidate index.\") */\n      tag_128\n      jumpi\n      mload(0x40)\n      0x08c379a000000000000000000000000000000000000000000000000000000000\n      dup2\n      mstore\n      0x04\n      add\n      tag_129\n      swap1\n      tag_111\n      jump\t// in\n    tag_129:\n      mload(0x40)\n      dup1\n      swap2\n      sub\n      swap1\n      revert\n    tag_128:\n        /* \"contracts/1_Storage.sol\":1718:1728  candidates */\n      0x00\n        /* \"contracts/1_Storage.sol\":1729:1744  _candidateIndex */\n      dup4\n        /* \"contracts/1_Storage.sol\":1718:1745  candidates[_candidateIndex] */\n      dup2\n      sload\n      dup2\n      lt\n      tag_131\n      jumpi\n      tag_132\n      tag_85\n      jump\t// in\n    tag_132:\n    tag_131:\n      swap1\n      0x00\n      mstore\n      keccak256(0x00, 0x20)\n      swap1\n      0x02\n      mul\n      add\n        /* \"contracts/1_Storage.sol\":1718:1755  candidates[_candidateIndex].voteCount */\n      0x01\n      add\n      sload\n        /* \"contracts/1_Storage.sol\":1711:1755  return candidates[_candidateIndex].voteCount */\n      swap2\n      pop\n        /* \"contracts/1_Storage.sol\":1587:1762  function getCandidateVotes(uint256 _candidateIndex) public view validCandidate(_candidateIndex) returns (uint256) {... */\n      pop\n      swap2\n      swap1\n      pop\n      jump\t// out\n        /* \"contracts/1_Storage.sol\":198:218  address public owner */\n    tag_57:\n      0x01\n      0x00\n      swap1\n      sload\n      swap1\n      0x0100\n      exp\n      swap1\n      div\n      0xffffffffffffffffffffffffffffffffffffffff\n      and\n      dup2\n      jump\t// out\n        /* \"contracts/1_Storage.sol\":1915:2180  function getRemainingTime() public view returns (uint256) {... */\n    tag_61:\n        /* \"contracts/1_Storage.sol\":1964:1971  uint256 */\n      0x00\n        /* \"contracts/1_Storage.sol\":2010:2021  votingStart */\n      sload(0x03)\n        /* \"contracts/1_Storage.sol\":1991:2006  block.timestamp */\n      timestamp\n        /* \"contracts/1_Storage.sol\":1991:2021  block.timestamp >= votingStart */\n      lt\n      iszero\n        /* \"contracts/1_Storage.sol\":1983:2053  require(block.timestamp >= votingStart, \"Voting has not started yet.\") */\n      tag_135\n      jumpi\n      mload(0x40)\n      0x08c379a000000000000000000000000000000000000000000000000000000000\n      dup2\n      mstore\n      0x04\n      add\n      tag_136\n      swap1\n      tag_137\n      jump\t// in\n    tag_136:\n      mload(0x40)\n      dup1\n      swap2\n      sub\n      swap1\n      revert\n    tag_135:\n        /* \"contracts/1_Storage.sol\":2086:2095  votingEnd */\n      sload(0x04)\n        /* \"contracts/1_Storage.sol\":2067:2082  block.timestamp */\n      timestamp\n        /* \"contracts/1_Storage.sol\":2067:2095  block.timestamp >= votingEnd */\n      lt\n        /* \"contracts/1_Storage.sol\":2063:2130  if (block.timestamp >= votingEnd) {... */\n      tag_138\n      jumpi\n        /* \"contracts/1_Storage.sol\":2118:2119  0 */\n      0x00\n        /* \"contracts/1_Storage.sol\":2111:2119  return 0 */\n      swap1\n      pop\n      jump(tag_134)\n        /* \"contracts/1_Storage.sol\":2063:2130  if (block.timestamp >= votingEnd) {... */\n    tag_138:\n        /* \"contracts/1_Storage.sol\":2158:2173  block.timestamp */\n      timestamp\n        /* \"contracts/1_Storage.sol\":2146:2155  votingEnd */\n      sload(0x04)\n        /* \"contracts/1_Storage.sol\":2146:2173  votingEnd - block.timestamp */\n      tag_139\n      swap2\n      swap1\n      tag_140\n      jump\t// in\n    tag_139:\n        /* \"contracts/1_Storage.sol\":2139:2173  return votingEnd - block.timestamp */\n      swap1\n      pop\n        /* \"contracts/1_Storage.sol\":1915:2180  function getRemainingTime() public view returns (uint256) {... */\n    tag_134:\n      swap1\n      jump\t// out\n        /* \"#utility.yul\":7:82   */\n    tag_141:\n        /* \"#utility.yul\":40:46   */\n      0x00\n        /* \"#utility.yul\":73:75   */\n      0x40\n        /* \"#utility.yul\":67:76   */\n      mload\n        /* \"#utility.yul\":57:76   */\n      swap1\n      pop\n        /* \"#utility.yul\":7:82   */\n      swap1\n      jump\t// out\n        /* \"#utility.yul\":88:205   */\n    tag_142:\n        /* \"#utility.yul\":197:198   */\n      0x00\n        /* \"#utility.yul\":194:195   */\n      dup1\n        /* \"#utility.yul\":187:199   */\n      revert\n        /* \"#utility.yul\":211:328   */\n    tag_143:\n        /* \"#utility.yul\":320:321   */\n      0x00\n        /* \"#utility.yul\":317:318   */\n      dup1\n        /* \"#utility.yul\":310:322   */\n      revert\n        /* \"#utility.yul\":334:460   */\n    tag_144:\n        /* \"#utility.yul\":371:378   */\n      0x00\n        /* \"#utility.yul\":411:453   */\n      0xffffffffffffffffffffffffffffffffffffffff\n        /* \"#utility.yul\":404:409   */\n      dup3\n        /* \"#utility.yul\":400:454   */\n      and\n        /* \"#utility.yul\":389:454   */\n      swap1\n      pop\n        /* \"#utility.yul\":334:460   */\n      swap2\n      swap1\n      pop\n      jump\t// out\n        /* \"#utility.yul\":466:562   */\n    tag_145:\n        /* \"#utility.yul\":503:510   */\n      0x00\n        /* \"#utility.yul\":532:556   */\n      tag_216\n        /* \"#utility.yul\":550:555   */\n      dup3\n        /* \"#utility.yul\":532:556   */\n      tag_144\n      jump\t// in\n    tag_216:\n        /* \"#utility.yul\":521:556   */\n      swap1\n      pop\n        /* \"#utility.yul\":466:562   */\n      swap2\n      swap1\n      pop\n      jump\t// out\n        /* \"#utility.yul\":568:690   */\n    tag_146:\n        /* \"#utility.yul\":641:665   */\n      tag_218\n        /* \"#utility.yul\":659:664   */\n      dup2\n        /* \"#utility.yul\":641:665   */\n      tag_145\n      jump\t// in\n    tag_218:\n        /* \"#utility.yul\":634:639   */\n      dup2\n        /* \"#utility.yul\":631:666   */\n      eq\n        /* \"#utility.yul\":621:684   */\n      tag_219\n      jumpi\n        /* \"#utility.yul\":680:681   */\n      0x00\n        /* \"#utility.yul\":677:678   */\n      dup1\n        /* \"#utility.yul\":670:682   */\n      revert\n        /* \"#utility.yul\":621:684   */\n    tag_219:\n        /* \"#utility.yul\":568:690   */\n      pop\n      jump\t// out\n        /* \"#utility.yul\":696:835   */\n    tag_147:\n        /* \"#utility.yul\":742:747   */\n      0x00\n        /* \"#utility.yul\":780:786   */\n      dup2\n        /* \"#utility.yul\":767:787   */\n      calldataload\n        /* \"#utility.yul\":758:787   */\n      swap1\n      pop\n        /* \"#utility.yul\":796:829   */\n      tag_221\n        /* \"#utility.yul\":823:828   */\n      dup2\n        /* \"#utility.yul\":796:829   */\n      tag_146\n      jump\t// in\n    tag_221:\n        /* \"#utility.yul\":696:835   */\n      swap3\n      swap2\n      pop\n      pop\n      jump\t// out\n        /* \"#utility.yul\":841:1170   */\n    tag_18:\n        /* \"#utility.yul\":900:906   */\n      0x00\n        /* \"#utility.yul\":949:951   */\n      0x20\n        /* \"#utility.yul\":937:946   */\n      dup3\n        /* \"#utility.yul\":928:935   */\n      dup5\n        /* \"#utility.yul\":924:947   */\n      sub\n        /* \"#utility.yul\":920:952   */\n      slt\n        /* \"#utility.yul\":917:1036   */\n      iszero\n      tag_223\n      jumpi\n        /* \"#utility.yul\":955:1034   */\n      tag_224\n      tag_142\n      jump\t// in\n    tag_224:\n        /* \"#utility.yul\":917:1036   */\n    tag_223:\n        /* \"#utility.yul\":1075:1076   */\n      0x00\n        /* \"#utility.yul\":1100:1153   */\n      tag_225\n        /* \"#utility.yul\":1145:1152   */\n      dup5\n        /* \"#utility.yul\":1136:1142   */\n      dup3\n        /* \"#utility.yul\":1125:1134   */\n      dup6\n        /* \"#utility.yul\":1121:1143   */\n      add\n        /* \"#utility.yul\":1100:1153   */\n      tag_147\n      jump\t// in\n    tag_225:\n        /* \"#utility.yul\":1090:1153   */\n      swap2\n      pop\n        /* \"#utility.yul\":1046:1163   */\n      pop\n        /* \"#utility.yul\":841:1170   */\n      swap3\n      swap2\n      pop\n      pop\n      jump\t// out\n        /* \"#utility.yul\":1176:1266   */\n    tag_148:\n        /* \"#utility.yul\":1210:1217   */\n      0x00\n        /* \"#utility.yul\":1253:1258   */\n      dup2\n        /* \"#utility.yul\":1246:1259   */\n      iszero\n        /* \"#utility.yul\":1239:1260   */\n      iszero\n        /* \"#utility.yul\":1228:1260   */\n      swap1\n      pop\n        /* \"#utility.yul\":1176:1266   */\n      swap2\n      swap1\n      pop\n      jump\t// out\n        /* \"#utility.yul\":1272:1381   */\n    tag_149:\n        /* \"#utility.yul\":1353:1374   */\n      tag_228\n        /* \"#utility.yul\":1368:1373   */\n      dup2\n        /* \"#utility.yul\":1353:1374   */\n      tag_148\n      jump\t// in\n    tag_228:\n        /* \"#utility.yul\":1348:1351   */\n      dup3\n        /* \"#utility.yul\":1341:1375   */\n      mstore\n        /* \"#utility.yul\":1272:1381   */\n      pop\n      pop\n      jump\t// out\n        /* \"#utility.yul\":1387:1597   */\n    tag_21:\n        /* \"#utility.yul\":1474:1478   */\n      0x00\n        /* \"#utility.yul\":1512:1514   */\n      0x20\n        /* \"#utility.yul\":1501:1510   */\n      dup3\n        /* \"#utility.yul\":1497:1515   */\n      add\n        /* \"#utility.yul\":1489:1515   */\n      swap1\n      pop\n        /* \"#utility.yul\":1525:1590   */\n      tag_230\n        /* \"#utility.yul\":1587:1588   */\n      0x00\n        /* \"#utility.yul\":1576:1585   */\n      dup4\n        /* \"#utility.yul\":1572:1589   */\n      add\n        /* \"#utility.yul\":1563:1569   */\n      dup5\n        /* \"#utility.yul\":1525:1590   */\n      tag_149\n      jump\t// in\n    tag_230:\n        /* \"#utility.yul\":1387:1597   */\n      swap3\n      swap2\n      pop\n      pop\n      jump\t// out\n        /* \"#utility.yul\":1603:1680   */\n    tag_150:\n        /* \"#utility.yul\":1640:1647   */\n      0x00\n        /* \"#utility.yul\":1669:1674   */\n      dup2\n        /* \"#utility.yul\":1658:1674   */\n      swap1\n      pop\n        /* \"#utility.yul\":1603:1680   */\n      swap2\n      swap1\n      pop\n      jump\t// out\n        /* \"#utility.yul\":1686:1804   */\n    tag_151:\n        /* \"#utility.yul\":1773:1797   */\n      tag_233\n        /* \"#utility.yul\":1791:1796   */\n      dup2\n        /* \"#utility.yul\":1773:1797   */\n      tag_150\n      jump\t// in\n    tag_233:\n        /* \"#utility.yul\":1768:1771   */\n      dup3\n        /* \"#utility.yul\":1761:1798   */\n      mstore\n        /* \"#utility.yul\":1686:1804   */\n      pop\n      pop\n      jump\t// out\n        /* \"#utility.yul\":1810:2032   */\n    tag_25:\n        /* \"#utility.yul\":1903:1907   */\n      0x00\n        /* \"#utility.yul\":1941:1943   */\n      0x20\n        /* \"#utility.yul\":1930:1939   */\n      dup3\n        /* \"#utility.yul\":1926:1944   */\n      add\n        /* \"#utility.yul\":1918:1944   */\n      swap1\n      pop\n        /* \"#utility.yul\":1954:2025   */\n      tag_235\n        /* \"#utility.yul\":2022:2023   */\n      0x00\n        /* \"#utility.yul\":2011:2020   */\n      dup4\n        /* \"#utility.yul\":2007:2024   */\n      add\n        /* \"#utility.yul\":1998:2004   */\n      dup5\n        /* \"#utility.yul\":1954:2025   */\n      tag_151\n      jump\t// in\n    tag_235:\n        /* \"#utility.yul\":1810:2032   */\n      swap3\n      swap2\n      pop\n      pop\n      jump\t// out\n        /* \"#utility.yul\":2038:2155   */\n    tag_152:\n        /* \"#utility.yul\":2147:2148   */\n      0x00\n        /* \"#utility.yul\":2144:2145   */\n      dup1\n        /* \"#utility.yul\":2137:2149   */\n      revert\n        /* \"#utility.yul\":2161:2278   */\n    tag_153:\n        /* \"#utility.yul\":2270:2271   */\n      0x00\n        /* \"#utility.yul\":2267:2268   */\n      dup1\n        /* \"#utility.yul\":2260:2272   */\n      revert\n        /* \"#utility.yul\":2284:2386   */\n    tag_154:\n        /* \"#utility.yul\":2325:2331   */\n      0x00\n        /* \"#utility.yul\":2376:2378   */\n      0x1f\n        /* \"#utility.yul\":2372:2379   */\n      not\n        /* \"#utility.yul\":2367:2369   */\n      0x1f\n        /* \"#utility.yul\":2360:2365   */\n      dup4\n        /* \"#utility.yul\":2356:2370   */\n      add\n        /* \"#utility.yul\":2352:2380   */\n      and\n        /* \"#utility.yul\":2342:2380   */\n      swap1\n      pop\n        /* \"#utility.yul\":2284:2386   */\n      swap2\n      swap1\n      pop\n      jump\t// out\n        /* \"#utility.yul\":2392:2572   */\n    tag_74:\n        /* \"#utility.yul\":2440:2517   */\n      0x4e487b7100000000000000000000000000000000000000000000000000000000\n        /* \"#utility.yul\":2437:2438   */\n      0x00\n        /* \"#utility.yul\":2430:2518   */\n      mstore\n        /* \"#utility.yul\":2537:2541   */\n      0x41\n        /* \"#utility.yul\":2534:2535   */\n      0x04\n        /* \"#utility.yul\":2527:2542   */\n      mstore\n        /* \"#utility.yul\":2561:2565   */\n      0x24\n        /* \"#utility.yul\":2558:2559   */\n      0x00\n        /* \"#utility.yul\":2551:2566   */\n      revert\n        /* \"#utility.yul\":2578:2859   */\n    tag_155:\n        /* \"#utility.yul\":2661:2688   */\n      tag_241\n        /* \"#utility.yul\":2683:2687   */\n      dup3\n        /* \"#utility.yul\":2661:2688   */\n      tag_154\n      jump\t// in\n    tag_241:\n        /* \"#utility.yul\":2653:2659   */\n      dup2\n        /* \"#utility.yul\":2649:2689   */\n      add\n        /* \"#utility.yul\":2791:2797   */\n      dup2\n        /* \"#utility.yul\":2779:2789   */\n      dup2\n        /* \"#utility.yul\":2776:2798   */\n      lt\n        /* \"#utility.yul\":2755:2773   */\n      0xffffffffffffffff\n        /* \"#utility.yul\":2743:2753   */\n      dup3\n        /* \"#utility.yul\":2740:2774   */\n      gt\n        /* \"#utility.yul\":2737:2799   */\n      or\n        /* \"#utility.yul\":2734:2822   */\n      iszero\n      tag_242\n      jumpi\n        /* \"#utility.yul\":2802:2820   */\n      tag_243\n      tag_74\n      jump\t// in\n    tag_243:\n        /* \"#utility.yul\":2734:2822   */\n    tag_242:\n        /* \"#utility.yul\":2842:2852   */\n      dup1\n        /* \"#utility.yul\":2838:2840   */\n      0x40\n        /* \"#utility.yul\":2831:2853   */\n      mstore\n        /* \"#utility.yul\":2621:2859   */\n      pop\n        /* \"#utility.yul\":2578:2859   */\n      pop\n      pop\n      jump\t// out\n        /* \"#utility.yul\":2865:2994   */\n    tag_156:\n        /* \"#utility.yul\":2899:2905   */\n      0x00\n        /* \"#utility.yul\":2926:2946   */\n      tag_245\n      tag_141\n      jump\t// in\n    tag_245:\n        /* \"#utility.yul\":2916:2946   */\n      swap1\n      pop\n        /* \"#utility.yul\":2955:2988   */\n      tag_246\n        /* \"#utility.yul\":2983:2987   */\n      dup3\n        /* \"#utility.yul\":2975:2981   */\n      dup3\n        /* \"#utility.yul\":2955:2988   */\n      tag_155\n      jump\t// in\n    tag_246:\n        /* \"#utility.yul\":2865:2994   */\n      swap2\n      swap1\n      pop\n      jump\t// out\n        /* \"#utility.yul\":3000:3308   */\n    tag_157:\n        /* \"#utility.yul\":3062:3066   */\n      0x00\n        /* \"#utility.yul\":3152:3170   */\n      0xffffffffffffffff\n        /* \"#utility.yul\":3144:3150   */\n      dup3\n        /* \"#utility.yul\":3141:3171   */\n      gt\n        /* \"#utility.yul\":3138:3194   */\n      iszero\n      tag_248\n      jumpi\n        /* \"#utility.yul\":3174:3192   */\n      tag_249\n      tag_74\n      jump\t// in\n    tag_249:\n        /* \"#utility.yul\":3138:3194   */\n    tag_248:\n        /* \"#utility.yul\":3212:3241   */\n      tag_250\n        /* \"#utility.yul\":3234:3240   */\n      dup3\n        /* \"#utility.yul\":3212:3241   */\n      tag_154\n      jump\t// in\n    tag_250:\n        /* \"#utility.yul\":3204:3241   */\n      swap1\n      pop\n        /* \"#utility.yul\":3296:3300   */\n      0x20\n        /* \"#utility.yul\":3290:3294   */\n      dup2\n        /* \"#utility.yul\":3286:3301   */\n      add\n        /* \"#utility.yul\":3278:3301   */\n      swap1\n      pop\n        /* \"#utility.yul\":3000:3308   */\n      swap2\n      swap1\n      pop\n      jump\t// out\n        /* \"#utility.yul\":3314:3462   */\n    tag_158:\n        /* \"#utility.yul\":3412:3418   */\n      dup3\n        /* \"#utility.yul\":3407:3410   */\n      dup2\n        /* \"#utility.yul\":3402:3405   */\n      dup4\n        /* \"#utility.yul\":3389:3419   */\n      calldatacopy\n        /* \"#utility.yul\":3453:3454   */\n      0x00\n        /* \"#utility.yul\":3444:3450   */\n      dup4\n        /* \"#utility.yul\":3439:3442   */\n      dup4\n        /* \"#utility.yul\":3435:3451   */\n      add\n        /* \"#utility.yul\":3428:3455   */\n      mstore\n        /* \"#utility.yul\":3314:3462   */\n      pop\n      pop\n      pop\n      jump\t// out\n        /* \"#utility.yul\":3468:3893   */\n    tag_159:\n        /* \"#utility.yul\":3546:3551   */\n      0x00\n        /* \"#utility.yul\":3571:3637   */\n      tag_253\n        /* \"#utility.yul\":3587:3636   */\n      tag_254\n        /* \"#utility.yul\":3629:3635   */\n      dup5\n        /* \"#utility.yul\":3587:3636   */\n      tag_157\n      jump\t// in\n    tag_254:\n        /* \"#utility.yul\":3571:3637   */\n      tag_156\n      jump\t// in\n    tag_253:\n        /* \"#utility.yul\":3562:3637   */\n      swap1\n      pop\n        /* \"#utility.yul\":3660:3666   */\n      dup3\n        /* \"#utility.yul\":3653:3658   */\n      dup2\n        /* \"#utility.yul\":3646:3667   */\n      mstore\n        /* \"#utility.yul\":3698:3702   */\n      0x20\n        /* \"#utility.yul\":3691:3696   */\n      dup2\n        /* \"#utility.yul\":3687:3703   */\n      add\n        /* \"#utility.yul\":3736:3739   */\n      dup5\n        /* \"#utility.yul\":3727:3733   */\n      dup5\n        /* \"#utility.yul\":3722:3725   */\n      dup5\n        /* \"#utility.yul\":3718:3734   */\n      add\n        /* \"#utility.yul\":3715:3740   */\n      gt\n        /* \"#utility.yul\":3712:3824   */\n      iszero\n      tag_255\n      jumpi\n        /* \"#utility.yul\":3743:3822   */\n      tag_256\n      tag_153\n      jump\t// in\n    tag_256:\n        /* \"#utility.yul\":3712:3824   */\n    tag_255:\n        /* \"#utility.yul\":3833:3887   */\n      tag_257\n        /* \"#utility.yul\":3880:3886   */\n      dup5\n        /* \"#utility.yul\":3875:3878   */\n      dup3\n        /* \"#utility.yul\":3870:3873   */\n      dup6\n        /* \"#utility.yul\":3833:3887   */\n      tag_158\n      jump\t// in\n    tag_257:\n        /* \"#utility.yul\":3552:3893   */\n      pop\n        /* \"#utility.yul\":3468:3893   */\n      swap4\n      swap3\n      pop\n      pop\n      pop\n      jump\t// out\n        /* \"#utility.yul\":3913:4253   */\n    tag_160:\n        /* \"#utility.yul\":3969:3974   */\n      0x00\n        /* \"#utility.yul\":4018:4021   */\n      dup3\n        /* \"#utility.yul\":4011:4015   */\n      0x1f\n        /* \"#utility.yul\":4003:4009   */\n      dup4\n        /* \"#utility.yul\":3999:4016   */\n      add\n        /* \"#utility.yul\":3995:4022   */\n      slt\n        /* \"#utility.yul\":3985:4107   */\n      tag_259\n      jumpi\n        /* \"#utility.yul\":4026:4105   */\n      tag_260\n      tag_152\n      jump\t// in\n    tag_260:\n        /* \"#utility.yul\":3985:4107   */\n    tag_259:\n        /* \"#utility.yul\":4143:4149   */\n      dup2\n        /* \"#utility.yul\":4130:4150   */\n      calldataload\n        /* \"#utility.yul\":4168:4247   */\n      tag_261\n        /* \"#utility.yul\":4243:4246   */\n      dup5\n        /* \"#utility.yul\":4235:4241   */\n      dup3\n        /* \"#utility.yul\":4228:4232   */\n      0x20\n        /* \"#utility.yul\":4220:4226   */\n      dup7\n        /* \"#utility.yul\":4216:4233   */\n      add\n        /* \"#utility.yul\":4168:4247   */\n      tag_159\n      jump\t// in\n    tag_261:\n        /* \"#utility.yul\":4159:4247   */\n      swap2\n      pop\n        /* \"#utility.yul\":3975:4253   */\n      pop\n        /* \"#utility.yul\":3913:4253   */\n      swap3\n      swap2\n      pop\n      pop\n      jump\t// out\n        /* \"#utility.yul\":4259:4768   */\n    tag_28:\n        /* \"#utility.yul\":4328:4334   */\n      0x00\n        /* \"#utility.yul\":4377:4379   */\n      0x20\n        /* \"#utility.yul\":4365:4374   */\n      dup3\n        /* \"#utility.yul\":4356:4363   */\n      dup5\n        /* \"#utility.yul\":4352:4375   */\n      sub\n        /* \"#utility.yul\":4348:4380   */\n      slt\n        /* \"#utility.yul\":4345:4464   */\n      iszero\n      tag_263\n      jumpi\n        /* \"#utility.yul\":4383:4462   */\n      tag_264\n      tag_142\n      jump\t// in\n    tag_264:\n        /* \"#utility.yul\":4345:4464   */\n    tag_263:\n        /* \"#utility.yul\":4531:4532   */\n      0x00\n        /* \"#utility.yul\":4520:4529   */\n      dup3\n        /* \"#utility.yul\":4516:4533   */\n      add\n        /* \"#utility.yul\":4503:4534   */\n      calldataload\n        /* \"#utility.yul\":4561:4579   */\n      0xffffffffffffffff\n        /* \"#utility.yul\":4553:4559   */\n      dup2\n        /* \"#utility.yul\":4550:4580   */\n      gt\n        /* \"#utility.yul\":4547:4664   */\n      iszero\n      tag_265\n      jumpi\n        /* \"#utility.yul\":4583:4662   */\n      tag_266\n      tag_143\n      jump\t// in\n    tag_266:\n        /* \"#utility.yul\":4547:4664   */\n    tag_265:\n        /* \"#utility.yul\":4688:4751   */\n      tag_267\n        /* \"#utility.yul\":4743:4750   */\n      dup5\n        /* \"#utility.yul\":4734:4740   */\n      dup3\n        /* \"#utility.yul\":4723:4732   */\n      dup6\n        /* \"#utility.yul\":4719:4741   */\n      add\n        /* \"#utility.yul\":4688:4751   */\n      tag_160\n      jump\t// in\n    tag_267:\n        /* \"#utility.yul\":4678:4751   */\n      swap2\n      pop\n        /* \"#utility.yul\":4474:4761   */\n      pop\n        /* \"#utility.yul\":4259:4768   */\n      swap3\n      swap2\n      pop\n      pop\n      jump\t// out\n        /* \"#utility.yul\":4774:4898   */\n    tag_161:\n        /* \"#utility.yul\":4851:4857   */\n      0x00\n        /* \"#utility.yul\":4885:4890   */\n      dup2\n        /* \"#utility.yul\":4879:4891   */\n      mload\n        /* \"#utility.yul\":4869:4891   */\n      swap1\n      pop\n        /* \"#utility.yul\":4774:4898   */\n      swap2\n      swap1\n      pop\n      jump\t// out\n        /* \"#utility.yul\":4904:5098   */\n    tag_162:\n        /* \"#utility.yul\":5013:5024   */\n      0x00\n        /* \"#utility.yul\":5047:5053   */\n      dup3\n        /* \"#utility.yul\":5042:5045   */\n      dup3\n        /* \"#utility.yul\":5035:5054   */\n      mstore\n        /* \"#utility.yul\":5087:5091   */\n      0x20\n        /* \"#utility.yul\":5082:5085   */\n      dup3\n        /* \"#utility.yul\":5078:5092   */\n      add\n        /* \"#utility.yul\":5063:5092   */\n      swap1\n      pop\n        /* \"#utility.yul\":4904:5098   */\n      swap3\n      swap2\n      pop\n      pop\n      jump\t// out\n        /* \"#utility.yul\":5104:5246   */\n    tag_163:\n        /* \"#utility.yul\":5181:5185   */\n      0x00\n        /* \"#utility.yul\":5204:5207   */\n      dup2\n        /* \"#utility.yul\":5196:5207   */\n      swap1\n      pop\n        /* \"#utility.yul\":5234:5238   */\n      0x20\n        /* \"#utility.yul\":5229:5232   */\n      dup3\n        /* \"#utility.yul\":5225:5239   */\n      add\n        /* \"#utility.yul\":5217:5239   */\n      swap1\n      pop\n        /* \"#utility.yul\":5104:5246   */\n      swap2\n      swap1\n      pop\n      jump\t// out\n        /* \"#utility.yul\":5252:5351   */\n    tag_164:\n        /* \"#utility.yul\":5304:5310   */\n      0x00\n        /* \"#utility.yul\":5338:5343   */\n      dup2\n        /* \"#utility.yul\":5332:5344   */\n      mload\n        /* \"#utility.yul\":5322:5344   */\n      swap1\n      pop\n        /* \"#utility.yul\":5252:5351   */\n      swap2\n      swap1\n      pop\n      jump\t// out\n        /* \"#utility.yul\":5357:5516   */\n    tag_165:\n        /* \"#utility.yul\":5431:5442   */\n      0x00\n        /* \"#utility.yul\":5465:5471   */\n      dup3\n        /* \"#utility.yul\":5460:5463   */\n      dup3\n        /* \"#utility.yul\":5453:5472   */\n      mstore\n        /* \"#utility.yul\":5505:5509   */\n      0x20\n        /* \"#utility.yul\":5500:5503   */\n      dup3\n        /* \"#utility.yul\":5496:5510   */\n      add\n        /* \"#utility.yul\":5481:5510   */\n      swap1\n      pop\n        /* \"#utility.yul\":5357:5516   */\n      swap3\n      swap2\n      pop\n      pop\n      jump\t// out\n        /* \"#utility.yul\":5522:5661   */\n    tag_166:\n        /* \"#utility.yul\":5611:5617   */\n      dup3\n        /* \"#utility.yul\":5606:5609   */\n      dup2\n        /* \"#utility.yul\":5601:5604   */\n      dup4\n        /* \"#utility.yul\":5595:5618   */\n      mcopy\n        /* \"#utility.yul\":5652:5653   */\n      0x00\n        /* \"#utility.yul\":5643:5649   */\n      dup4\n        /* \"#utility.yul\":5638:5641   */\n      dup4\n        /* \"#utility.yul\":5634:5650   */\n      add\n        /* \"#utility.yul\":5627:5654   */\n      mstore\n        /* \"#utility.yul\":5522:5661   */\n      pop\n      pop\n      pop\n      jump\t// out\n        /* \"#utility.yul\":5667:6024   */\n    tag_167:\n        /* \"#utility.yul\":5745:5748   */\n      0x00\n        /* \"#utility.yul\":5773:5812   */\n      tag_275\n        /* \"#utility.yul\":5806:5811   */\n      dup3\n        /* \"#utility.yul\":5773:5812   */\n      tag_164\n      jump\t// in\n    tag_275:\n        /* \"#utility.yul\":5828:5889   */\n      tag_276\n        /* \"#utility.yul\":5882:5888   */\n      dup2\n        /* \"#utility.yul\":5877:5880   */\n      dup6\n        /* \"#utility.yul\":5828:5889   */\n      tag_165\n      jump\t// in\n    tag_276:\n        /* \"#utility.yul\":5821:5889   */\n      swap4\n      pop\n        /* \"#utility.yul\":5898:5963   */\n      tag_277\n        /* \"#utility.yul\":5956:5962   */\n      dup2\n        /* \"#utility.yul\":5951:5954   */\n      dup6\n        /* \"#utility.yul\":5944:5948   */\n      0x20\n        /* \"#utility.yul\":5937:5942   */\n      dup7\n        /* \"#utility.yul\":5933:5949   */\n      add\n        /* \"#utility.yul\":5898:5963   */\n      tag_166\n      jump\t// in\n    tag_277:\n        /* \"#utility.yul\":5988:6017   */\n      tag_278\n        /* \"#utility.yul\":6010:6016   */\n      dup2\n        /* \"#utility.yul\":5988:6017   */\n      tag_154\n      jump\t// in\n    tag_278:\n        /* \"#utility.yul\":5983:5986   */\n      dup5\n        /* \"#utility.yul\":5979:6018   */\n      add\n        /* \"#utility.yul\":5972:6018   */\n      swap2\n      pop\n        /* \"#utility.yul\":5749:6024   */\n      pop\n        /* \"#utility.yul\":5667:6024   */\n      swap3\n      swap2\n      pop\n      pop\n      jump\t// out\n        /* \"#utility.yul\":6030:6226   */\n    tag_168:\n        /* \"#utility.yul\":6119:6129   */\n      0x00\n        /* \"#utility.yul\":6154:6220   */\n      tag_280\n        /* \"#utility.yul\":6216:6219   */\n      dup4\n        /* \"#utility.yul\":6208:6214   */\n      dup4\n        /* \"#utility.yul\":6154:6220   */\n      tag_167\n      jump\t// in\n    tag_280:\n        /* \"#utility.yul\":6140:6220   */\n      swap1\n      pop\n        /* \"#utility.yul\":6030:6226   */\n      swap3\n      swap2\n      pop\n      pop\n      jump\t// out\n        /* \"#utility.yul\":6232:6355   */\n    tag_169:\n        /* \"#utility.yul\":6312:6316   */\n      0x00\n        /* \"#utility.yul\":6344:6348   */\n      0x20\n        /* \"#utility.yul\":6339:6342   */\n      dup3\n        /* \"#utility.yul\":6335:6349   */\n      add\n        /* \"#utility.yul\":6327:6349   */\n      swap1\n      pop\n        /* \"#utility.yul\":6232:6355   */\n      swap2\n      swap1\n      pop\n      jump\t// out\n        /* \"#utility.yul\":6389:7380   */\n    tag_170:\n        /* \"#utility.yul\":6528:6531   */\n      0x00\n        /* \"#utility.yul\":6557:6621   */\n      tag_283\n        /* \"#utility.yul\":6615:6620   */\n      dup3\n        /* \"#utility.yul\":6557:6621   */\n      tag_161\n      jump\t// in\n    tag_283:\n        /* \"#utility.yul\":6637:6733   */\n      tag_284\n        /* \"#utility.yul\":6726:6732   */\n      dup2\n        /* \"#utility.yul\":6721:6724   */\n      dup6\n        /* \"#utility.yul\":6637:6733   */\n      tag_162\n      jump\t// in\n    tag_284:\n        /* \"#utility.yul\":6630:6733   */\n      swap4\n      pop\n        /* \"#utility.yul\":6759:6762   */\n      dup4\n        /* \"#utility.yul\":6804:6808   */\n      0x20\n        /* \"#utility.yul\":6796:6802   */\n      dup3\n        /* \"#utility.yul\":6792:6809   */\n      mul\n        /* \"#utility.yul\":6787:6790   */\n      dup6\n        /* \"#utility.yul\":6783:6810   */\n      add\n        /* \"#utility.yul\":6834:6900   */\n      tag_285\n        /* \"#utility.yul\":6894:6899   */\n      dup6\n        /* \"#utility.yul\":6834:6900   */\n      tag_163\n      jump\t// in\n    tag_285:\n        /* \"#utility.yul\":6923:6930   */\n      dup1\n        /* \"#utility.yul\":6954:6955   */\n      0x00\n        /* \"#utility.yul\":6939:7335   */\n    tag_286:\n        /* \"#utility.yul\":6964:6970   */\n      dup6\n        /* \"#utility.yul\":6961:6962   */\n      dup2\n        /* \"#utility.yul\":6958:6971   */\n      lt\n        /* \"#utility.yul\":6939:7335   */\n      iszero\n      tag_288\n      jumpi\n        /* \"#utility.yul\":7035:7044   */\n      dup5\n        /* \"#utility.yul\":7029:7033   */\n      dup5\n        /* \"#utility.yul\":7025:7045   */\n      sub\n        /* \"#utility.yul\":7020:7023   */\n      dup10\n        /* \"#utility.yul\":7013:7046   */\n      mstore\n        /* \"#utility.yul\":7086:7092   */\n      dup2\n        /* \"#utility.yul\":7080:7093   */\n      mload\n        /* \"#utility.yul\":7114:7198   */\n      tag_289\n        /* \"#utility.yul\":7193:7197   */\n      dup6\n        /* \"#utility.yul\":7178:7191   */\n      dup3\n        /* \"#utility.yul\":7114:7198   */\n      tag_168\n      jump\t// in\n    tag_289:\n        /* \"#utility.yul\":7106:7198   */\n      swap5\n      pop\n        /* \"#utility.yul\":7221:7291   */\n      tag_290\n        /* \"#utility.yul\":7284:7290   */\n      dup4\n        /* \"#utility.yul\":7221:7291   */\n      tag_169\n      jump\t// in\n    tag_290:\n        /* \"#utility.yul\":7211:7291   */\n      swap3\n      pop\n        /* \"#utility.yul\":7320:7324   */\n      0x20\n        /* \"#utility.yul\":7315:7318   */\n      dup11\n        /* \"#utility.yul\":7311:7325   */\n      add\n        /* \"#utility.yul\":7304:7325   */\n      swap10\n      pop\n        /* \"#utility.yul\":6999:7335   */\n      pop\n        /* \"#utility.yul\":6986:6987   */\n      0x01\n        /* \"#utility.yul\":6983:6984   */\n      dup2\n        /* \"#utility.yul\":6979:6988   */\n      add\n        /* \"#utility.yul\":6974:6988   */\n      swap1\n      pop\n        /* \"#utility.yul\":6939:7335   */\n      jump(tag_286)\n    tag_288:\n        /* \"#utility.yul\":6943:6957   */\n      pop\n        /* \"#utility.yul\":7351:7355   */\n      dup3\n        /* \"#utility.yul\":7344:7355   */\n      swap8\n      pop\n        /* \"#utility.yul\":7371:7374   */\n      dup8\n        /* \"#utility.yul\":7364:7374   */\n      swap6\n      pop\n        /* \"#utility.yul\":6533:7380   */\n      pop\n      pop\n      pop\n      pop\n      pop\n        /* \"#utility.yul\":6389:7380   */\n      swap3\n      swap2\n      pop\n      pop\n      jump\t// out\n        /* \"#utility.yul\":7386:7500   */\n    tag_171:\n        /* \"#utility.yul\":7453:7459   */\n      0x00\n        /* \"#utility.yul\":7487:7492   */\n      dup2\n        /* \"#utility.yul\":7481:7493   */\n      mload\n        /* \"#utility.yul\":7471:7493   */\n      swap1\n      pop\n        /* \"#utility.yul\":7386:7500   */\n      swap2\n      swap1\n      pop\n      jump\t// out\n        /* \"#utility.yul\":7506:7690   */\n    tag_172:\n        /* \"#utility.yul\":7605:7616   */\n      0x00\n        /* \"#utility.yul\":7639:7645   */\n      dup3\n        /* \"#utility.yul\":7634:7637   */\n      dup3\n        /* \"#utility.yul\":7627:7646   */\n      mstore\n        /* \"#utility.yul\":7679:7683   */\n      0x20\n        /* \"#utility.yul\":7674:7677   */\n      dup3\n        /* \"#utility.yul\":7670:7684   */\n      add\n        /* \"#utility.yul\":7655:7684   */\n      swap1\n      pop\n        /* \"#utility.yul\":7506:7690   */\n      swap3\n      swap2\n      pop\n      pop\n      jump\t// out\n        /* \"#utility.yul\":7696:7828   */\n    tag_173:\n        /* \"#utility.yul\":7763:7767   */\n      0x00\n        /* \"#utility.yul\":7786:7789   */\n      dup2\n        /* \"#utility.yul\":7778:7789   */\n      swap1\n      pop\n        /* \"#utility.yul\":7816:7820   */\n      0x20\n        /* \"#utility.yul\":7811:7814   */\n      dup3\n        /* \"#utility.yul\":7807:7821   */\n      add\n        /* \"#utility.yul\":7799:7821   */\n      swap1\n      pop\n        /* \"#utility.yul\":7696:7828   */\n      swap2\n      swap1\n      pop\n      jump\t// out\n        /* \"#utility.yul\":7834:7942   */\n    tag_174:\n        /* \"#utility.yul\":7911:7935   */\n      tag_295\n        /* \"#utility.yul\":7929:7934   */\n      dup2\n        /* \"#utility.yul\":7911:7935   */\n      tag_150\n      jump\t// in\n    tag_295:\n        /* \"#utility.yul\":7906:7909   */\n      dup3\n        /* \"#utility.yul\":7899:7936   */\n      mstore\n        /* \"#utility.yul\":7834:7942   */\n      pop\n      pop\n      jump\t// out\n        /* \"#utility.yul\":7948:8127   */\n    tag_175:\n        /* \"#utility.yul\":8017:8027   */\n      0x00\n        /* \"#utility.yul\":8038:8084   */\n      tag_297\n        /* \"#utility.yul\":8080:8083   */\n      dup4\n        /* \"#utility.yul\":8072:8078   */\n      dup4\n        /* \"#utility.yul\":8038:8084   */\n      tag_174\n      jump\t// in\n    tag_297:\n        /* \"#utility.yul\":8116:8120   */\n      0x20\n        /* \"#utility.yul\":8111:8114   */\n      dup4\n        /* \"#utility.yul\":8107:8121   */\n      add\n        /* \"#utility.yul\":8093:8121   */\n      swap1\n      pop\n        /* \"#utility.yul\":7948:8127   */\n      swap3\n      swap2\n      pop\n      pop\n      jump\t// out\n        /* \"#utility.yul\":8133:8246   */\n    tag_176:\n        /* \"#utility.yul\":8203:8207   */\n      0x00\n        /* \"#utility.yul\":8235:8239   */\n      0x20\n        /* \"#utility.yul\":8230:8233   */\n      dup3\n        /* \"#utility.yul\":8226:8240   */\n      add\n        /* \"#utility.yul\":8218:8240   */\n      swap1\n      pop\n        /* \"#utility.yul\":8133:8246   */\n      swap2\n      swap1\n      pop\n      jump\t// out\n        /* \"#utility.yul\":8282:9014   */\n    tag_177:\n        /* \"#utility.yul\":8401:8404   */\n      0x00\n        /* \"#utility.yul\":8430:8484   */\n      tag_300\n        /* \"#utility.yul\":8478:8483   */\n      dup3\n        /* \"#utility.yul\":8430:8484   */\n      tag_171\n      jump\t// in\n    tag_300:\n        /* \"#utility.yul\":8500:8586   */\n      tag_301\n        /* \"#utility.yul\":8579:8585   */\n      dup2\n        /* \"#utility.yul\":8574:8577   */\n      dup6\n        /* \"#utility.yul\":8500:8586   */\n      tag_172\n      jump\t// in\n    tag_301:\n        /* \"#utility.yul\":8493:8586   */\n      swap4\n      pop\n        /* \"#utility.yul\":8610:8666   */\n      tag_302\n        /* \"#utility.yul\":8660:8665   */\n      dup4\n        /* \"#utility.yul\":8610:8666   */\n      tag_173\n      jump\t// in\n    tag_302:\n        /* \"#utility.yul\":8689:8696   */\n      dup1\n        /* \"#utility.yul\":8720:8721   */\n      0x00\n        /* \"#utility.yul\":8705:8989   */\n    tag_303:\n        /* \"#utility.yul\":8730:8736   */\n      dup4\n        /* \"#utility.yul\":8727:8728   */\n      dup2\n        /* \"#utility.yul\":8724:8737   */\n      lt\n        /* \"#utility.yul\":8705:8989   */\n      iszero\n      tag_305\n      jumpi\n        /* \"#utility.yul\":8806:8812   */\n      dup2\n        /* \"#utility.yul\":8800:8813   */\n      mload\n        /* \"#utility.yul\":8833:8896   */\n      tag_306\n        /* \"#utility.yul\":8892:8895   */\n      dup9\n        /* \"#utility.yul\":8877:8890   */\n      dup3\n        /* \"#utility.yul\":8833:8896   */\n      tag_175\n      jump\t// in\n    tag_306:\n        /* \"#utility.yul\":8826:8896   */\n      swap8\n      pop\n        /* \"#utility.yul\":8919:8979   */\n      tag_307\n        /* \"#utility.yul\":8972:8978   */\n      dup4\n        /* \"#utility.yul\":8919:8979   */\n      tag_176\n      jump\t// in\n    tag_307:\n        /* \"#utility.yul\":8909:8979   */\n      swap3\n      pop\n        /* \"#utility.yul\":8765:8989   */\n      pop\n        /* \"#utility.yul\":8752:8753   */\n      0x01\n        /* \"#utility.yul\":8749:8750   */\n      dup2\n        /* \"#utility.yul\":8745:8754   */\n      add\n        /* \"#utility.yul\":8740:8754   */\n      swap1\n      pop\n        /* \"#utility.yul\":8705:8989   */\n      jump(tag_303)\n    tag_305:\n        /* \"#utility.yul\":8709:8723   */\n      pop\n        /* \"#utility.yul\":9005:9008   */\n      dup6\n        /* \"#utility.yul\":8998:9008   */\n      swap4\n      pop\n        /* \"#utility.yul\":8406:9014   */\n      pop\n      pop\n      pop\n        /* \"#utility.yul\":8282:9014   */\n      swap3\n      swap2\n      pop\n      pop\n      jump\t// out\n        /* \"#utility.yul\":9020:9694   */\n    tag_33:\n        /* \"#utility.yul\":9261:9265   */\n      0x00\n        /* \"#utility.yul\":9299:9301   */\n      0x40\n        /* \"#utility.yul\":9288:9297   */\n      dup3\n        /* \"#utility.yul\":9284:9302   */\n      add\n        /* \"#utility.yul\":9276:9302   */\n      swap1\n      pop\n        /* \"#utility.yul\":9348:9357   */\n      dup2\n        /* \"#utility.yul\":9342:9346   */\n      dup2\n        /* \"#utility.yul\":9338:9358   */\n      sub\n        /* \"#utility.yul\":9334:9335   */\n      0x00\n        /* \"#utility.yul\":9323:9332   */\n      dup4\n        /* \"#utility.yul\":9319:9336   */\n      add\n        /* \"#utility.yul\":9312:9359   */\n      mstore\n        /* \"#utility.yul\":9376:9504   */\n      tag_309\n        /* \"#utility.yul\":9499:9503   */\n      dup2\n        /* \"#utility.yul\":9490:9496   */\n      dup6\n        /* \"#utility.yul\":9376:9504   */\n      tag_170\n      jump\t// in\n    tag_309:\n        /* \"#utility.yul\":9368:9504   */\n      swap1\n      pop\n        /* \"#utility.yul\":9551:9560   */\n      dup2\n        /* \"#utility.yul\":9545:9549   */\n      dup2\n        /* \"#utility.yul\":9541:9561   */\n      sub\n        /* \"#utility.yul\":9536:9538   */\n      0x20\n        /* \"#utility.yul\":9525:9534   */\n      dup4\n        /* \"#utility.yul\":9521:9539   */\n      add\n        /* \"#utility.yul\":9514:9562   */\n      mstore\n        /* \"#utility.yul\":9579:9687   */\n      tag_310\n        /* \"#utility.yul\":9682:9686   */\n      dup2\n        /* \"#utility.yul\":9673:9679   */\n      dup5\n        /* \"#utility.yul\":9579:9687   */\n      tag_177\n      jump\t// in\n    tag_310:\n        /* \"#utility.yul\":9571:9687   */\n      swap1\n      pop\n        /* \"#utility.yul\":9020:9694   */\n      swap4\n      swap3\n      pop\n      pop\n      pop\n      jump\t// out\n        /* \"#utility.yul\":9700:9822   */\n    tag_178:\n        /* \"#utility.yul\":9773:9797   */\n      tag_312\n        /* \"#utility.yul\":9791:9796   */\n      dup2\n        /* \"#utility.yul\":9773:9797   */\n      tag_150\n      jump\t// in\n    tag_312:\n        /* \"#utility.yul\":9766:9771   */\n      dup2\n        /* \"#utility.yul\":9763:9798   */\n      eq\n        /* \"#utility.yul\":9753:9816   */\n      tag_313\n      jumpi\n        /* \"#utility.yul\":9812:9813   */\n      0x00\n        /* \"#utility.yul\":9809:9810   */\n      dup1\n        /* \"#utility.yul\":9802:9814   */\n      revert\n        /* \"#utility.yul\":9753:9816   */\n    tag_313:\n        /* \"#utility.yul\":9700:9822   */\n      pop\n      jump\t// out\n        /* \"#utility.yul\":9828:9967   */\n    tag_179:\n        /* \"#utility.yul\":9874:9879   */\n      0x00\n        /* \"#utility.yul\":9912:9918   */\n      dup2\n        /* \"#utility.yul\":9899:9919   */\n      calldataload\n        /* \"#utility.yul\":9890:9919   */\n      swap1\n      pop\n        /* \"#utility.yul\":9928:9961   */\n      tag_315\n        /* \"#utility.yul\":9955:9960   */\n      dup2\n        /* \"#utility.yul\":9928:9961   */\n      tag_178\n      jump\t// in\n    tag_315:\n        /* \"#utility.yul\":9828:9967   */\n      swap3\n      swap2\n      pop\n      pop\n      jump\t// out\n        /* \"#utility.yul\":9973:10302   */\n    tag_36:\n        /* \"#utility.yul\":10032:10038   */\n      0x00\n        /* \"#utility.yul\":10081:10083   */\n      0x20\n        /* \"#utility.yul\":10069:10078   */\n      dup3\n        /* \"#utility.yul\":10060:10067   */\n      dup5\n        /* \"#utility.yul\":10056:10079   */\n      sub\n        /* \"#utility.yul\":10052:10084   */\n      slt\n        /* \"#utility.yul\":10049:10168   */\n      iszero\n      tag_317\n      jumpi\n        /* \"#utility.yul\":10087:10166   */\n      tag_318\n      tag_142\n      jump\t// in\n    tag_318:\n        /* \"#utility.yul\":10049:10168   */\n    tag_317:\n        /* \"#utility.yul\":10207:10208   */\n      0x00\n        /* \"#utility.yul\":10232:10285   */\n      tag_319\n        /* \"#utility.yul\":10277:10284   */\n      dup5\n        /* \"#utility.yul\":10268:10274   */\n      dup3\n        /* \"#utility.yul\":10257:10266   */\n      dup6\n        /* \"#utility.yul\":10253:10275   */\n      add\n        /* \"#utility.yul\":10232:10285   */\n      tag_179\n      jump\t// in\n    tag_319:\n        /* \"#utility.yul\":10222:10285   */\n      swap2\n      pop\n        /* \"#utility.yul\":10178:10295   */\n      pop\n        /* \"#utility.yul\":9973:10302   */\n      swap3\n      swap2\n      pop\n      pop\n      jump\t// out\n        /* \"#utility.yul\":10308:10477   */\n    tag_180:\n        /* \"#utility.yul\":10392:10403   */\n      0x00\n        /* \"#utility.yul\":10426:10432   */\n      dup3\n        /* \"#utility.yul\":10421:10424   */\n      dup3\n        /* \"#utility.yul\":10414:10433   */\n      mstore\n        /* \"#utility.yul\":10466:10470   */\n      0x20\n        /* \"#utility.yul\":10461:10464   */\n      dup3\n        /* \"#utility.yul\":10457:10471   */\n      add\n        /* \"#utility.yul\":10442:10471   */\n      swap1\n      pop\n        /* \"#utility.yul\":10308:10477   */\n      swap3\n      swap2\n      pop\n      pop\n      jump\t// out\n        /* \"#utility.yul\":10483:10860   */\n    tag_181:\n        /* \"#utility.yul\":10571:10574   */\n      0x00\n        /* \"#utility.yul\":10599:10638   */\n      tag_322\n        /* \"#utility.yul\":10632:10637   */\n      dup3\n        /* \"#utility.yul\":10599:10638   */\n      tag_164\n      jump\t// in\n    tag_322:\n        /* \"#utility.yul\":10654:10725   */\n      tag_323\n        /* \"#utility.yul\":10718:10724   */\n      dup2\n        /* \"#utility.yul\":10713:10716   */\n      dup6\n        /* \"#utility.yul\":10654:10725   */\n      tag_180\n      jump\t// in\n    tag_323:\n        /* \"#utility.yul\":10647:10725   */\n      swap4\n      pop\n        /* \"#utility.yul\":10734:10799   */\n      tag_324\n        /* \"#utility.yul\":10792:10798   */\n      dup2\n        /* \"#utility.yul\":10787:10790   */\n      dup6\n        /* \"#utility.yul\":10780:10784   */\n      0x20\n        /* \"#utility.yul\":10773:10778   */\n      dup7\n        /* \"#utility.yul\":10769:10785   */\n      add\n        /* \"#utility.yul\":10734:10799   */\n      tag_166\n      jump\t// in\n    tag_324:\n        /* \"#utility.yul\":10824:10853   */\n      tag_325\n        /* \"#utility.yul\":10846:10852   */\n      dup2\n        /* \"#utility.yul\":10824:10853   */\n      tag_154\n      jump\t// in\n    tag_325:\n        /* \"#utility.yul\":10819:10822   */\n      dup5\n        /* \"#utility.yul\":10815:10854   */\n      add\n        /* \"#utility.yul\":10808:10854   */\n      swap2\n      pop\n        /* \"#utility.yul\":10575:10860   */\n      pop\n        /* \"#utility.yul\":10483:10860   */\n      swap3\n      swap2\n      pop\n      pop\n      jump\t// out\n        /* \"#utility.yul\":10866:11289   */\n    tag_39:\n        /* \"#utility.yul\":11007:11011   */\n      0x00\n        /* \"#utility.yul\":11045:11047   */\n      0x40\n        /* \"#utility.yul\":11034:11043   */\n      dup3\n        /* \"#utility.yul\":11030:11048   */\n      add\n        /* \"#utility.yul\":11022:11048   */\n      swap1\n      pop\n        /* \"#utility.yul\":11094:11103   */\n      dup2\n        /* \"#utility.yul\":11088:11092   */\n      dup2\n        /* \"#utility.yul\":11084:11104   */\n      sub\n        /* \"#utility.yul\":11080:11081   */\n      0x00\n        /* \"#utility.yul\":11069:11078   */\n      dup4\n        /* \"#utility.yul\":11065:11082   */\n      add\n        /* \"#utility.yul\":11058:11105   */\n      mstore\n        /* \"#utility.yul\":11122:11200   */\n      tag_327\n        /* \"#utility.yul\":11195:11199   */\n      dup2\n        /* \"#utility.yul\":11186:11192   */\n      dup6\n        /* \"#utility.yul\":11122:11200   */\n      tag_181\n      jump\t// in\n    tag_327:\n        /* \"#utility.yul\":11114:11200   */\n      swap1\n      pop\n        /* \"#utility.yul\":11210:11282   */\n      tag_328\n        /* \"#utility.yul\":11278:11280   */\n      0x20\n        /* \"#utility.yul\":11267:11276   */\n      dup4\n        /* \"#utility.yul\":11263:11281   */\n      add\n        /* \"#utility.yul\":11254:11260   */\n      dup5\n        /* \"#utility.yul\":11210:11282   */\n      tag_151\n      jump\t// in\n    tag_328:\n        /* \"#utility.yul\":10866:11289   */\n      swap4\n      swap3\n      pop\n      pop\n      pop\n      jump\t// out\n        /* \"#utility.yul\":11295:11413   */\n    tag_182:\n        /* \"#utility.yul\":11382:11406   */\n      tag_330\n        /* \"#utility.yul\":11400:11405   */\n      dup2\n        /* \"#utility.yul\":11382:11406   */\n      tag_145\n      jump\t// in\n    tag_330:\n        /* \"#utility.yul\":11377:11380   */\n      dup3\n        /* \"#utility.yul\":11370:11407   */\n      mstore\n        /* \"#utility.yul\":11295:11413   */\n      pop\n      pop\n      jump\t// out\n        /* \"#utility.yul\":11419:11641   */\n    tag_59:\n        /* \"#utility.yul\":11512:11516   */\n      0x00\n        /* \"#utility.yul\":11550:11552   */\n      0x20\n        /* \"#utility.yul\":11539:11548   */\n      dup3\n        /* \"#utility.yul\":11535:11553   */\n      add\n        /* \"#utility.yul\":11527:11553   */\n      swap1\n      pop\n        /* \"#utility.yul\":11563:11634   */\n      tag_332\n        /* \"#utility.yul\":11631:11632   */\n      0x00\n        /* \"#utility.yul\":11620:11629   */\n      dup4\n        /* \"#utility.yul\":11616:11633   */\n      add\n        /* \"#utility.yul\":11607:11613   */\n      dup5\n        /* \"#utility.yul\":11563:11634   */\n      tag_182\n      jump\t// in\n    tag_332:\n        /* \"#utility.yul\":11419:11641   */\n      swap3\n      swap2\n      pop\n      pop\n      jump\t// out\n        /* \"#utility.yul\":11647:11873   */\n    tag_183:\n        /* \"#utility.yul\":11787:11821   */\n      0x4f6e6c7920746865206f776e65722063616e20706572666f726d207468697320\n        /* \"#utility.yul\":11783:11784   */\n      0x00\n        /* \"#utility.yul\":11775:11781   */\n      dup3\n        /* \"#utility.yul\":11771:11785   */\n      add\n        /* \"#utility.yul\":11764:11822   */\n      mstore\n        /* \"#utility.yul\":11856:11865   */\n      0x616374696f6e2e00000000000000000000000000000000000000000000000000\n        /* \"#utility.yul\":11851:11853   */\n      0x20\n        /* \"#utility.yul\":11843:11849   */\n      dup3\n        /* \"#utility.yul\":11839:11854   */\n      add\n        /* \"#utility.yul\":11832:11866   */\n      mstore\n        /* \"#utility.yul\":11647:11873   */\n      pop\n      jump\t// out\n        /* \"#utility.yul\":11879:12245   */\n    tag_184:\n        /* \"#utility.yul\":12021:12024   */\n      0x00\n        /* \"#utility.yul\":12042:12109   */\n      tag_335\n        /* \"#utility.yul\":12106:12108   */\n      0x27\n        /* \"#utility.yul\":12101:12104   */\n      dup4\n        /* \"#utility.yul\":12042:12109   */\n      tag_180\n      jump\t// in\n    tag_335:\n        /* \"#utility.yul\":12035:12109   */\n      swap2\n      pop\n        /* \"#utility.yul\":12118:12211   */\n      tag_336\n        /* \"#utility.yul\":12207:12210   */\n      dup3\n        /* \"#utility.yul\":12118:12211   */\n      tag_183\n      jump\t// in\n    tag_336:\n        /* \"#utility.yul\":12236:12238   */\n      0x40\n        /* \"#utility.yul\":12231:12234   */\n      dup3\n        /* \"#utility.yul\":12227:12239   */\n      add\n        /* \"#utility.yul\":12220:12239   */\n      swap1\n      pop\n        /* \"#utility.yul\":11879:12245   */\n      swap2\n      swap1\n      pop\n      jump\t// out\n        /* \"#utility.yul\":12251:12670   */\n    tag_66:\n        /* \"#utility.yul\":12417:12421   */\n      0x00\n        /* \"#utility.yul\":12455:12457   */\n      0x20\n        /* \"#utility.yul\":12444:12453   */\n      dup3\n        /* \"#utility.yul\":12440:12458   */\n      add\n        /* \"#utility.yul\":12432:12458   */\n      swap1\n      pop\n        /* \"#utility.yul\":12504:12513   */\n      dup2\n        /* \"#utility.yul\":12498:12502   */\n      dup2\n        /* \"#utility.yul\":12494:12514   */\n      sub\n        /* \"#utility.yul\":12490:12491   */\n      0x00\n        /* \"#utility.yul\":12479:12488   */\n      dup4\n        /* \"#utility.yul\":12475:12492   */\n      add\n        /* \"#utility.yul\":12468:12515   */\n      mstore\n        /* \"#utility.yul\":12532:12663   */\n      tag_338\n        /* \"#utility.yul\":12658:12662   */\n      dup2\n        /* \"#utility.yul\":12532:12663   */\n      tag_184\n      jump\t// in\n    tag_338:\n        /* \"#utility.yul\":12524:12663   */\n      swap1\n      pop\n        /* \"#utility.yul\":12251:12670   */\n      swap2\n      swap1\n      pop\n      jump\t// out\n        /* \"#utility.yul\":12676:12856   */\n    tag_185:\n        /* \"#utility.yul\":12724:12801   */\n      0x4e487b7100000000000000000000000000000000000000000000000000000000\n        /* \"#utility.yul\":12721:12722   */\n      0x00\n        /* \"#utility.yul\":12714:12802   */\n      mstore\n        /* \"#utility.yul\":12821:12825   */\n      0x22\n        /* \"#utility.yul\":12818:12819   */\n      0x04\n        /* \"#utility.yul\":12811:12826   */\n      mstore\n        /* \"#utility.yul\":12845:12849   */\n      0x24\n        /* \"#utility.yul\":12842:12843   */\n      0x00\n        /* \"#utility.yul\":12835:12850   */\n      revert\n        /* \"#utility.yul\":12862:13182   */\n    tag_88:\n        /* \"#utility.yul\":12906:12912   */\n      0x00\n        /* \"#utility.yul\":12943:12944   */\n      0x02\n        /* \"#utility.yul\":12937:12941   */\n      dup3\n        /* \"#utility.yul\":12933:12945   */\n      div\n        /* \"#utility.yul\":12923:12945   */\n      swap1\n      pop\n        /* \"#utility.yul\":12990:12991   */\n      0x01\n        /* \"#utility.yul\":12984:12988   */\n      dup3\n        /* \"#utility.yul\":12980:12992   */\n      and\n        /* \"#utility.yul\":13011:13029   */\n      dup1\n        /* \"#utility.yul\":13001:13082   */\n      tag_341\n      jumpi\n        /* \"#utility.yul\":13067:13071   */\n      0x7f\n        /* \"#utility.yul\":13059:13065   */\n      dup3\n        /* \"#utility.yul\":13055:13072   */\n      and\n        /* \"#utility.yul\":13045:13072   */\n      swap2\n      pop\n        /* \"#utility.yul\":13001:13082   */\n    tag_341:\n        /* \"#utility.yul\":13129:13131   */\n      0x20\n        /* \"#utility.yul\":13121:13127   */\n      dup3\n        /* \"#utility.yul\":13118:13132   */\n      lt\n        /* \"#utility.yul\":13098:13116   */\n      dup2\n        /* \"#utility.yul\":13095:13133   */\n      sub\n        /* \"#utility.yul\":13092:13176   */\n      tag_342\n      jumpi\n        /* \"#utility.yul\":13148:13166   */\n      tag_343\n      tag_185\n      jump\t// in\n    tag_343:\n        /* \"#utility.yul\":13092:13176   */\n    tag_342:\n        /* \"#utility.yul\":12913:13182   */\n      pop\n        /* \"#utility.yul\":12862:13182   */\n      swap2\n      swap1\n      pop\n      jump\t// out\n        /* \"#utility.yul\":13188:13329   */\n    tag_186:\n        /* \"#utility.yul\":13237:13241   */\n      0x00\n        /* \"#utility.yul\":13260:13263   */\n      dup2\n        /* \"#utility.yul\":13252:13263   */\n      swap1\n      pop\n        /* \"#utility.yul\":13283:13286   */\n      dup2\n        /* \"#utility.yul\":13280:13281   */\n      0x00\n        /* \"#utility.yul\":13273:13287   */\n      mstore\n        /* \"#utility.yul\":13317:13321   */\n      0x20\n        /* \"#utility.yul\":13314:13315   */\n      0x00\n        /* \"#utility.yul\":13304:13322   */\n      keccak256\n        /* \"#utility.yul\":13296:13322   */\n      swap1\n      pop\n        /* \"#utility.yul\":13188:13329   */\n      swap2\n      swap1\n      pop\n      jump\t// out\n        /* \"#utility.yul\":13335:13428   */\n    tag_187:\n        /* \"#utility.yul\":13372:13378   */\n      0x00\n        /* \"#utility.yul\":13419:13421   */\n      0x20\n        /* \"#utility.yul\":13414:13416   */\n      0x1f\n        /* \"#utility.yul\":13407:13412   */\n      dup4\n        /* \"#utility.yul\":13403:13417   */\n      add\n        /* \"#utility.yul\":13399:13422   */\n      div\n        /* \"#utility.yul\":13389:13422   */\n      swap1\n      pop\n        /* \"#utility.yul\":13335:13428   */\n      swap2\n      swap1\n      pop\n      jump\t// out\n        /* \"#utility.yul\":13434:13541   */\n    tag_188:\n        /* \"#utility.yul\":13478:13486   */\n      0x00\n        /* \"#utility.yul\":13528:13533   */\n      dup3\n        /* \"#utility.yul\":13522:13526   */\n      dup3\n        /* \"#utility.yul\":13518:13534   */\n      shl\n        /* \"#utility.yul\":13497:13534   */\n      swap1\n      pop\n        /* \"#utility.yul\":13434:13541   */\n      swap3\n      swap2\n      pop\n      pop\n      jump\t// out\n        /* \"#utility.yul\":13547:13940   */\n    tag_189:\n        /* \"#utility.yul\":13616:13622   */\n      0x00\n        /* \"#utility.yul\":13666:13667   */\n      0x08\n        /* \"#utility.yul\":13654:13664   */\n      dup4\n        /* \"#utility.yul\":13650:13668   */\n      mul\n        /* \"#utility.yul\":13689:13786   */\n      tag_348\n        /* \"#utility.yul\":13719:13785   */\n      0xffffffffffffffffffffffffffffffffffffffffffffffffffffffffffffffff\n        /* \"#utility.yul\":13708:13717   */\n      dup3\n        /* \"#utility.yul\":13689:13786   */\n      tag_188\n      jump\t// in\n    tag_348:\n        /* \"#utility.yul\":13807:13846   */\n      tag_349\n        /* \"#utility.yul\":13837:13845   */\n      dup7\n        /* \"#utility.yul\":13826:13835   */\n      dup4\n        /* \"#utility.yul\":13807:13846   */\n      tag_188\n      jump\t// in\n    tag_349:\n        /* \"#utility.yul\":13795:13846   */\n      swap6\n      pop\n        /* \"#utility.yul\":13879:13883   */\n      dup1\n        /* \"#utility.yul\":13875:13884   */\n      not\n        /* \"#utility.yul\":13868:13873   */\n      dup5\n        /* \"#utility.yul\":13864:13885   */\n      and\n        /* \"#utility.yul\":13855:13885   */\n      swap4\n      pop\n        /* \"#utility.yul\":13928:13932   */\n      dup1\n        /* \"#utility.yul\":13918:13926   */\n      dup7\n        /* \"#utility.yul\":13914:13933   */\n      and\n        /* \"#utility.yul\":13907:13912   */\n      dup5\n        /* \"#utility.yul\":13904:13934   */\n      or\n        /* \"#utility.yul\":13894:13934   */\n      swap3\n      pop\n        /* \"#utility.yul\":13623:13940   */\n      pop\n      pop\n        /* \"#utility.yul\":13547:13940   */\n      swap4\n      swap3\n      pop\n      pop\n      pop\n      jump\t// out\n        /* \"#utility.yul\":13946:14006   */\n    tag_190:\n        /* \"#utility.yul\":13974:13977   */\n      0x00\n        /* \"#utility.yul\":13995:14000   */\n      dup2\n        /* \"#utility.yul\":13988:14000   */\n      swap1\n      pop\n        /* \"#utility.yul\":13946:14006   */\n      swap2\n      swap1\n      pop\n      jump\t// out\n        /* \"#utility.yul\":14012:14154   */\n    tag_191:\n        /* \"#utility.yul\":14062:14071   */\n      0x00\n        /* \"#utility.yul\":14095:14148   */\n      tag_352\n        /* \"#utility.yul\":14113:14147   */\n      tag_353\n        /* \"#utility.yul\":14122:14146   */\n      tag_354\n        /* \"#utility.yul\":14140:14145   */\n      dup5\n        /* \"#utility.yul\":14122:14146   */\n      tag_150\n      jump\t// in\n    tag_354:\n        /* \"#utility.yul\":14113:14147   */\n      tag_190\n      jump\t// in\n    tag_353:\n        /* \"#utility.yul\":14095:14148   */\n      tag_150\n      jump\t// in\n    tag_352:\n        /* \"#utility.yul\":14082:14148   */\n      swap1\n      pop\n        /* \"#utility.yul\":14012:14154   */\n      swap2\n      swap1\n      pop\n      jump\t// out\n        /* \"#utility.yul\":14160:14235   */\n    tag_192:\n        /* \"#utility.yul\":14203:14206   */\n      0x00\n        /* \"#utility.yul\":14224:14229   */\n      dup2\n        /* \"#utility.yul\":14217:14229   */\n      swap1\n      pop\n        /* \"#utility.yul\":14160:14235   */\n      swap2\n      swap1\n      pop\n      jump\t// out\n        /* \"#utility.yul\":14241:14510   */\n    tag_193:\n        /* \"#utility.yul\":14351:14390   */\n      tag_357\n        /* \"#utility.yul\":14382:14389   */\n      dup4\n        /* \"#utility.yul\":14351:14390   */\n      tag_191\n      jump\t// in\n    tag_357:\n        /* \"#utility.yul\":14412:14503   */\n      tag_358\n        /* \"#utility.yul\":14461:14502   */\n      tag_359\n        /* \"#utility.yul\":14485:14501   */\n      dup3\n        /* \"#utility.yul\":14461:14502   */\n      tag_192\n      jump\t// in\n    tag_359:\n        /* \"#utility.yul\":14453:14459   */\n      dup5\n        /* \"#utility.yul\":14446:14450   */\n      dup5\n        /* \"#utility.yul\":14440:14451   */\n      sload\n        /* \"#utility.yul\":14412:14503   */\n      tag_189\n      jump\t// in\n    tag_358:\n        /* \"#utility.yul\":14406:14410   */\n      dup3\n        /* \"#utility.yul\":14399:14504   */\n      sstore\n        /* \"#utility.yul\":14317:14510   */\n      pop\n        /* \"#utility.yul\":14241:14510   */\n      pop\n      pop\n      pop\n      jump\t// out\n        /* \"#utility.yul\":14516:14589   */\n    tag_194:\n        /* \"#utility.yul\":14561:14564   */\n      0x00\n        /* \"#utility.yul\":14516:14589   */\n      swap1\n      jump\t// out\n        /* \"#utility.yul\":14595:14784   */\n    tag_195:\n        /* \"#utility.yul\":14672:14704   */\n      tag_362\n      tag_194\n      jump\t// in\n    tag_362:\n        /* \"#utility.yul\":14713:14778   */\n      tag_363\n        /* \"#utility.yul\":14771:14777   */\n      dup2\n        /* \"#utility.yul\":14763:14769   */\n      dup5\n        /* \"#utility.yul\":14757:14761   */\n      dup5\n        /* \"#utility.yul\":14713:14778   */\n      tag_193\n      jump\t// in\n    tag_363:\n        /* \"#utility.yul\":14648:14784   */\n      pop\n        /* \"#utility.yul\":14595:14784   */\n      pop\n      pop\n      jump\t// out\n        /* \"#utility.yul\":14790:14976   */\n    tag_196:\n        /* \"#utility.yul\":14850:14970   */\n    tag_365:\n        /* \"#utility.yul\":14867:14870   */\n      dup2\n        /* \"#utility.yul\":14860:14865   */\n      dup2\n        /* \"#utility.yul\":14857:14871   */\n      lt\n        /* \"#utility.yul\":14850:14970   */\n      iszero\n      tag_367\n      jumpi\n        /* \"#utility.yul\":14921:14960   */\n      tag_368\n        /* \"#utility.yul\":14958:14959   */\n      0x00\n        /* \"#utility.yul\":14951:14956   */\n      dup3\n        /* \"#utility.yul\":14921:14960   */\n      tag_195\n      jump\t// in\n    tag_368:\n        /* \"#utility.yul\":14894:14895   */\n      0x01\n        /* \"#utility.yul\":14887:14892   */\n      dup2\n        /* \"#utility.yul\":14883:14896   */\n      add\n        /* \"#utility.yul\":14874:14896   */\n      swap1\n      pop\n        /* \"#utility.yul\":14850:14970   */\n      jump(tag_365)\n    tag_367:\n        /* \"#utility.yul\":14790:14976   */\n      pop\n      pop\n      jump\t// out\n        /* \"#utility.yul\":14982:15525   */\n    tag_197:\n        /* \"#utility.yul\":15083:15085   */\n      0x1f\n        /* \"#utility.yul\":15078:15081   */\n      dup3\n        /* \"#utility.yul\":15075:15086   */\n      gt\n        /* \"#utility.yul\":15072:15518   */\n      iszero\n      tag_370\n      jumpi\n        /* \"#utility.yul\":15117:15155   */\n      tag_371\n        /* \"#utility.yul\":15149:15154   */\n      dup2\n        /* \"#utility.yul\":15117:15155   */\n      tag_186\n      jump\t// in\n    tag_371:\n        /* \"#utility.yul\":15201:15230   */\n      tag_372\n        /* \"#utility.yul\":15219:15229   */\n      dup5\n        /* \"#utility.yul\":15201:15230   */\n      tag_187\n      jump\t// in\n    tag_372:\n        /* \"#utility.yul\":15191:15199   */\n      dup2\n        /* \"#utility.yul\":15187:15231   */\n      add\n        /* \"#utility.yul\":15384:15386   */\n      0x20\n        /* \"#utility.yul\":15372:15382   */\n      dup6\n        /* \"#utility.yul\":15369:15387   */\n      lt\n        /* \"#utility.yul\":15366:15415   */\n      iszero\n      tag_373\n      jumpi\n        /* \"#utility.yul\":15405:15413   */\n      dup2\n        /* \"#utility.yul\":15390:15413   */\n      swap1\n      pop\n        /* \"#utility.yul\":15366:15415   */\n    tag_373:\n        /* \"#utility.yul\":15428:15508   */\n      tag_374\n        /* \"#utility.yul\":15484:15506   */\n      tag_375\n        /* \"#utility.yul\":15502:15505   */\n      dup6\n        /* \"#utility.yul\":15484:15506   */\n      tag_187\n      jump\t// in\n    tag_375:\n        /* \"#utility.yul\":15474:15482   */\n      dup4\n        /* \"#utility.yul\":15470:15507   */\n      add\n        /* \"#utility.yul\":15457:15468   */\n      dup3\n        /* \"#utility.yul\":15428:15508   */\n      tag_196\n      jump\t// in\n    tag_374:\n        /* \"#utility.yul\":15087:15518   */\n      pop\n      pop\n        /* \"#utility.yul\":15072:15518   */\n    tag_370:\n        /* \"#utility.yul\":14982:15525   */\n      pop\n      pop\n      pop\n      jump\t// out\n        /* \"#utility.yul\":15531:15648   */\n    tag_198:\n        /* \"#utility.yul\":15585:15593   */\n      0x00\n        /* \"#utility.yul\":15635:15640   */\n      dup3\n        /* \"#utility.yul\":15629:15633   */\n      dup3\n        /* \"#utility.yul\":15625:15641   */\n      shr\n        /* \"#utility.yul\":15604:15641   */\n      swap1\n      pop\n        /* \"#utility.yul\":15531:15648   */\n      swap3\n      swap2\n      pop\n      pop\n      jump\t// out\n        /* \"#utility.yul\":15654:15823   */\n    tag_199:\n        /* \"#utility.yul\":15698:15704   */\n      0x00\n        /* \"#utility.yul\":15731:15782   */\n      tag_378\n        /* \"#utility.yul\":15779:15780   */\n      0x00\n        /* \"#utility.yul\":15775:15781   */\n      not\n        /* \"#utility.yul\":15767:15772   */\n      dup5\n        /* \"#utility.yul\":15764:15765   */\n      0x08\n        /* \"#utility.yul\":15760:15773   */\n      mul\n        /* \"#utility.yul\":15731:15782   */\n      tag_198\n      jump\t// in\n    tag_378:\n        /* \"#utility.yul\":15727:15783   */\n      not\n        /* \"#utility.yul\":15812:15816   */\n      dup1\n        /* \"#utility.yul\":15806:15810   */\n      dup4\n        /* \"#utility.yul\":15802:15817   */\n      and\n        /* \"#utility.yul\":15792:15817   */\n      swap2\n      pop\n        /* \"#utility.yul\":15705:15823   */\n      pop\n        /* \"#utility.yul\":15654:15823   */\n      swap3\n      swap2\n      pop\n      pop\n      jump\t// out\n        /* \"#utility.yul\":15828:16123   */\n    tag_200:\n        /* \"#utility.yul\":15904:15908   */\n      0x00\n        /* \"#utility.yul\":16050:16079   */\n      tag_380\n        /* \"#utility.yul\":16075:16078   */\n      dup4\n        /* \"#utility.yul\":16069:16073   */\n      dup4\n        /* \"#utility.yul\":16050:16079   */\n      tag_199\n      jump\t// in\n    tag_380:\n        /* \"#utility.yul\":16042:16079   */\n      swap2\n      pop\n        /* \"#utility.yul\":16112:16115   */\n      dup3\n        /* \"#utility.yul\":16109:16110   */\n      0x02\n        /* \"#utility.yul\":16105:16116   */\n      mul\n        /* \"#utility.yul\":16099:16103   */\n      dup3\n        /* \"#utility.yul\":16096:16117   */\n      or\n        /* \"#utility.yul\":16088:16117   */\n      swap1\n      pop\n        /* \"#utility.yul\":15828:16123   */\n      swap3\n      swap2\n      pop\n      pop\n      jump\t// out\n        /* \"#utility.yul\":16128:17523   */\n    tag_70:\n        /* \"#utility.yul\":16245:16282   */\n      tag_382\n        /* \"#utility.yul\":16278:16281   */\n      dup3\n        /* \"#utility.yul\":16245:16282   */\n      tag_164\n      jump\t// in\n    tag_382:\n        /* \"#utility.yul\":16347:16365   */\n      0xffffffffffffffff\n        /* \"#utility.yul\":16339:16345   */\n      dup2\n        /* \"#utility.yul\":16336:16366   */\n      gt\n        /* \"#utility.yul\":16333:16389   */\n      iszero\n      tag_383\n      jumpi\n        /* \"#utility.yul\":16369:16387   */\n      tag_384\n      tag_74\n      jump\t// in\n    tag_384:\n        /* \"#utility.yul\":16333:16389   */\n    tag_383:\n        /* \"#utility.yul\":16413:16451   */\n      tag_385\n        /* \"#utility.yul\":16445:16449   */\n      dup3\n        /* \"#utility.yul\":16439:16450   */\n      sload\n        /* \"#utility.yul\":16413:16451   */\n      tag_88\n      jump\t// in\n    tag_385:\n        /* \"#utility.yul\":16498:16565   */\n      tag_386\n        /* \"#utility.yul\":16558:16564   */\n      dup3\n        /* \"#utility.yul\":16550:16556   */\n      dup3\n        /* \"#utility.yul\":16544:16548   */\n      dup6\n        /* \"#utility.yul\":16498:16565   */\n      tag_197\n      jump\t// in\n    tag_386:\n        /* \"#utility.yul\":16592:16593   */\n      0x00\n        /* \"#utility.yul\":16616:16620   */\n      0x20\n        /* \"#utility.yul\":16603:16620   */\n      swap1\n      pop\n        /* \"#utility.yul\":16648:16650   */\n      0x1f\n        /* \"#utility.yul\":16640:16646   */\n      dup4\n        /* \"#utility.yul\":16637:16651   */\n      gt\n        /* \"#utility.yul\":16665:16666   */\n      0x01\n        /* \"#utility.yul\":16660:17278   */\n      dup2\n      eq\n      tag_388\n      jumpi\n        /* \"#utility.yul\":17322:17323   */\n      0x00\n        /* \"#utility.yul\":17339:17345   */\n      dup5\n        /* \"#utility.yul\":17336:17413   */\n      iszero\n      tag_389\n      jumpi\n        /* \"#utility.yul\":17388:17397   */\n      dup3\n        /* \"#utility.yul\":17383:17386   */\n      dup8\n        /* \"#utility.yul\":17379:17398   */\n      add\n        /* \"#utility.yul\":17373:17399   */\n      mload\n        /* \"#utility.yul\":17364:17399   */\n      swap1\n      pop\n        /* \"#utility.yul\":17336:17413   */\n    tag_389:\n        /* \"#utility.yul\":17439:17506   */\n      tag_390\n        /* \"#utility.yul\":17499:17505   */\n      dup6\n        /* \"#utility.yul\":17492:17497   */\n      dup3\n        /* \"#utility.yul\":17439:17506   */\n      tag_200\n      jump\t// in\n    tag_390:\n        /* \"#utility.yul\":17433:17437   */\n      dup7\n        /* \"#utility.yul\":17426:17507   */\n      sstore\n        /* \"#utility.yul\":17295:17517   */\n      pop\n        /* \"#utility.yul\":16630:17517   */\n      jump(tag_387)\n        /* \"#utility.yul\":16660:17278   */\n    tag_388:\n        /* \"#utility.yul\":16712:16716   */\n      0x1f\n        /* \"#utility.yul\":16708:16717   */\n      not\n        /* \"#utility.yul\":16700:16706   */\n      dup5\n        /* \"#utility.yul\":16696:16718   */\n      and\n        /* \"#utility.yul\":16746:16783   */\n      tag_391\n        /* \"#utility.yul\":16778:16782   */\n      dup7\n        /* \"#utility.yul\":16746:16783   */\n      tag_186\n      jump\t// in\n    tag_391:\n        /* \"#utility.yul\":16805:16806   */\n      0x00\n        /* \"#utility.yul\":16819:17027   */\n    tag_392:\n        /* \"#utility.yul\":16833:16840   */\n      dup3\n        /* \"#utility.yul\":16830:16831   */\n      dup2\n        /* \"#utility.yul\":16827:16841   */\n      lt\n        /* \"#utility.yul\":16819:17027   */\n      iszero\n      tag_394\n      jumpi\n        /* \"#utility.yul\":16912:16921   */\n      dup5\n        /* \"#utility.yul\":16907:16910   */\n      dup10\n        /* \"#utility.yul\":16903:16922   */\n      add\n        /* \"#utility.yul\":16897:16923   */\n      mload\n        /* \"#utility.yul\":16889:16895   */\n      dup3\n        /* \"#utility.yul\":16882:16924   */\n      sstore\n        /* \"#utility.yul\":16963:16964   */\n      0x01\n        /* \"#utility.yul\":16955:16961   */\n      dup3\n        /* \"#utility.yul\":16951:16965   */\n      add\n        /* \"#utility.yul\":16941:16965   */\n      swap2\n      pop\n        /* \"#utility.yul\":17010:17012   */\n      0x20\n        /* \"#utility.yul\":16999:17008   */\n      dup6\n        /* \"#utility.yul\":16995:17013   */\n      add\n        /* \"#utility.yul\":16982:17013   */\n      swap5\n      pop\n        /* \"#utility.yul\":16856:16860   */\n      0x20\n        /* \"#utility.yul\":16853:16854   */\n      dup2\n        /* \"#utility.yul\":16849:16861   */\n      add\n        /* \"#utility.yul\":16844:16861   */\n      swap1\n      pop\n        /* \"#utility.yul\":16819:17027   */\n      jump(tag_392)\n    tag_394:\n        /* \"#utility.yul\":17055:17061   */\n      dup7\n        /* \"#utility.yul\":17046:17053   */\n      dup4\n        /* \"#utility.yul\":17043:17062   */\n      lt\n        /* \"#utility.yul\":17040:17219   */\n      iszero\n      tag_395\n      jumpi\n        /* \"#utility.yul\":17113:17122   */\n      dup5\n        /* \"#utility.yul\":17108:17111   */\n      dup10\n        /* \"#utility.yul\":17104:17123   */\n      add\n        /* \"#utility.yul\":17098:17124   */\n      mload\n        /* \"#utility.yul\":17156:17204   */\n      tag_396\n        /* \"#utility.yul\":17198:17202   */\n      0x1f\n        /* \"#utility.yul\":17190:17196   */\n      dup10\n        /* \"#utility.yul\":17186:17203   */\n      and\n        /* \"#utility.yul\":17175:17184   */\n      dup3\n        /* \"#utility.yul\":17156:17204   */\n      tag_199\n      jump\t// in\n    tag_396:\n        /* \"#utility.yul\":17148:17154   */\n      dup4\n        /* \"#utility.yul\":17141:17205   */\n      sstore\n        /* \"#utility.yul\":17063:17219   */\n      pop\n        /* \"#utility.yul\":17040:17219   */\n    tag_395:\n        /* \"#utility.yul\":17265:17266   */\n      0x01\n        /* \"#utility.yul\":17261:17262   */\n      0x02\n        /* \"#utility.yul\":17253:17259   */\n      dup9\n        /* \"#utility.yul\":17249:17263   */\n      mul\n        /* \"#utility.yul\":17245:17267   */\n      add\n        /* \"#utility.yul\":17239:17243   */\n      dup9\n        /* \"#utility.yul\":17232:17268   */\n      sstore\n        /* \"#utility.yul\":16667:17278   */\n      pop\n      pop\n      pop\n        /* \"#utility.yul\":16630:17517   */\n    tag_387:\n      pop\n        /* \"#utility.yul\":16220:17523   */\n      pop\n      pop\n      pop\n        /* \"#utility.yul\":16128:17523   */\n      pop\n      pop\n      jump\t// out\n        /* \"#utility.yul\":17529:17709   */\n    tag_85:\n        /* \"#utility.yul\":17577:17654   */\n      0x4e487b7100000000000000000000000000000000000000000000000000000000\n        /* \"#utility.yul\":17574:17575   */\n      0x00\n        /* \"#utility.yul\":17567:17655   */\n      mstore\n        /* \"#utility.yul\":17674:17678   */\n      0x32\n        /* \"#utility.yul\":17671:17672   */\n      0x04\n        /* \"#utility.yul\":17664:17679   */\n      mstore\n        /* \"#utility.yul\":17698:17702   */\n      0x24\n        /* \"#utility.yul\":17695:17696   */\n      0x00\n        /* \"#utility.yul\":17688:17703   */\n      revert\n        /* \"#utility.yul\":17715:17889   */\n    tag_201:\n        /* \"#utility.yul\":17855:17881   */\n      0x496e76616c69642063616e64696461746520696e6465782e0000000000000000\n        /* \"#utility.yul\":17851:17852   */\n      0x00\n        /* \"#utility.yul\":17843:17849   */\n      dup3\n        /* \"#utility.yul\":17839:17853   */\n      add\n        /* \"#utility.yul\":17832:17882   */\n      mstore\n        /* \"#utility.yul\":17715:17889   */\n      pop\n      jump\t// out\n        /* \"#utility.yul\":17895:18261   */\n    tag_202:\n        /* \"#utility.yul\":18037:18040   */\n      0x00\n        /* \"#utility.yul\":18058:18125   */\n      tag_400\n        /* \"#utility.yul\":18122:18124   */\n      0x18\n        /* \"#utility.yul\":18117:18120   */\n      dup4\n        /* \"#utility.yul\":18058:18125   */\n      tag_180\n      jump\t// in\n    tag_400:\n        /* \"#utility.yul\":18051:18125   */\n      swap2\n      pop\n        /* \"#utility.yul\":18134:18227   */\n      tag_401\n        /* \"#utility.yul\":18223:18226   */\n      dup3\n        /* \"#utility.yul\":18134:18227   */\n      tag_201\n      jump\t// in\n    tag_401:\n        /* \"#utility.yul\":18252:18254   */\n      0x20\n        /* \"#utility.yul\":18247:18250   */\n      dup3\n        /* \"#utility.yul\":18243:18255   */\n      add\n        /* \"#utility.yul\":18236:18255   */\n      swap1\n      pop\n        /* \"#utility.yul\":17895:18261   */\n      swap2\n      swap1\n      pop\n      jump\t// out\n        /* \"#utility.yul\":18267:18686   */\n    tag_111:\n        /* \"#utility.yul\":18433:18437   */\n      0x00\n        /* \"#utility.yul\":18471:18473   */\n      0x20\n        /* \"#utility.yul\":18460:18469   */\n      dup3\n        /* \"#utility.yul\":18456:18474   */\n      add\n        /* \"#utility.yul\":18448:18474   */\n      swap1\n      pop\n        /* \"#utility.yul\":18520:18529   */\n      dup2\n        /* \"#utility.yul\":18514:18518   */\n      dup2\n        /* \"#utility.yul\":18510:18530   */\n      sub\n        /* \"#utility.yul\":18506:18507   */\n      0x00\n        /* \"#utility.yul\":18495:18504   */\n      dup4\n        /* \"#utility.yul\":18491:18508   */\n      add\n        /* \"#utility.yul\":18484:18531   */\n      mstore\n        /* \"#utility.yul\":18548:18679   */\n      tag_403\n        /* \"#utility.yul\":18674:18678   */\n      dup2\n        /* \"#utility.yul\":18548:18679   */\n      tag_202\n      jump\t// in\n    tag_403:\n        /* \"#utility.yul\":18540:18679   */\n      swap1\n      pop\n        /* \"#utility.yul\":18267:18686   */\n      swap2\n      swap1\n      pop\n      jump\t// out\n        /* \"#utility.yul\":18692:18865   */\n    tag_203:\n        /* \"#utility.yul\":18832:18857   */\n      0x596f75206861766520616c726561647920766f7465642e000000000000000000\n        /* \"#utility.yul\":18828:18829   */\n      0x00\n        /* \"#utility.yul\":18820:18826   */\n      dup3\n        /* \"#utility.yul\":18816:18830   */\n      add\n        /* \"#utility.yul\":18809:18858   */\n      mstore\n        /* \"#utility.yul\":18692:18865   */\n      pop\n      jump\t// out\n        /* \"#utility.yul\":18871:19237   */\n    tag_204:\n        /* \"#utility.yul\":19013:19016   */\n      0x00\n        /* \"#utility.yul\":19034:19101   */\n      tag_406\n        /* \"#utility.yul\":19098:19100   */\n      0x17\n        /* \"#utility.yul\":19093:19096   */\n      dup4\n        /* \"#utility.yul\":19034:19101   */\n      tag_180\n      jump\t// in\n    tag_406:\n        /* \"#utility.yul\":19027:19101   */\n      swap2\n      pop\n        /* \"#utility.yul\":19110:19203   */\n      tag_407\n        /* \"#utility.yul\":19199:19202   */\n      dup3\n        /* \"#utility.yul\":19110:19203   */\n      tag_203\n      jump\t// in\n    tag_407:\n        /* \"#utility.yul\":19228:19230   */\n      0x20\n        /* \"#utility.yul\":19223:19226   */\n      dup3\n        /* \"#utility.yul\":19219:19231   */\n      add\n        /* \"#utility.yul\":19212:19231   */\n      swap1\n      pop\n        /* \"#utility.yul\":18871:19237   */\n      swap2\n      swap1\n      pop\n      jump\t// out\n        /* \"#utility.yul\":19243:19662   */\n    tag_115:\n        /* \"#utility.yul\":19409:19413   */\n      0x00\n        /* \"#utility.yul\":19447:19449   */\n      0x20\n        /* \"#utility.yul\":19436:19445   */\n      dup3\n        /* \"#utility.yul\":19432:19450   */\n      add\n        /* \"#utility.yul\":19424:19450   */\n      swap1\n      pop\n        /* \"#utility.yul\":19496:19505   */\n      dup2\n        /* \"#utility.yul\":19490:19494   */\n      dup2\n        /* \"#utility.yul\":19486:19506   */\n      sub\n        /* \"#utility.yul\":19482:19483   */\n      0x00\n        /* \"#utility.yul\":19471:19480   */\n      dup4\n        /* \"#utility.yul\":19467:19484   */\n      add\n        /* \"#utility.yul\":19460:19507   */\n      mstore\n        /* \"#utility.yul\":19524:19655   */\n      tag_409\n        /* \"#utility.yul\":19650:19654   */\n      dup2\n        /* \"#utility.yul\":19524:19655   */\n      tag_204\n      jump\t// in\n    tag_409:\n        /* \"#utility.yul\":19516:19655   */\n      swap1\n      pop\n        /* \"#utility.yul\":19243:19662   */\n      swap2\n      swap1\n      pop\n      jump\t// out\n        /* \"#utility.yul\":19668:19837   */\n    tag_205:\n        /* \"#utility.yul\":19808:19829   */\n      0x566f74696e67206973206e6f74206f70656e2e00000000000000000000000000\n        /* \"#utility.yul\":19804:19805   */\n      0x00\n        /* \"#utility.yul\":19796:19802   */\n      dup3\n        /* \"#utility.yul\":19792:19806   */\n      add\n        /* \"#utility.yul\":19785:19830   */\n      mstore\n        /* \"#utility.yul\":19668:19837   */\n      pop\n      jump\t// out\n        /* \"#utility.yul\":19843:20209   */\n    tag_206:\n        /* \"#utility.yul\":19985:19988   */\n      0x00\n        /* \"#utility.yul\":20006:20073   */\n      tag_412\n        /* \"#utility.yul\":20070:20072   */\n      0x13\n        /* \"#utility.yul\":20065:20068   */\n      dup4\n        /* \"#utility.yul\":20006:20073   */\n      tag_180\n      jump\t// in\n    tag_412:\n        /* \"#utility.yul\":19999:20073   */\n      swap2\n      pop\n        /* \"#utility.yul\":20082:20175   */\n      tag_413\n        /* \"#utility.yul\":20171:20174   */\n      dup3\n        /* \"#utility.yul\":20082:20175   */\n      tag_205\n      jump\t// in\n    tag_413:\n        /* \"#utility.yul\":20200:20202   */\n      0x20\n        /* \"#utility.yul\":20195:20198   */\n      dup3\n        /* \"#utility.yul\":20191:20203   */\n      add\n        /* \"#utility.yul\":20184:20203   */\n      swap1\n      pop\n        /* \"#utility.yul\":19843:20209   */\n      swap2\n      swap1\n      pop\n      jump\t// out\n        /* \"#utility.yul\":20215:20634   */\n    tag_119:\n        /* \"#utility.yul\":20381:20385   */\n      0x00\n        /* \"#utility.yul\":20419:20421   */\n      0x20\n        /* \"#utility.yul\":20408:20417   */\n      dup3\n        /* \"#utility.yul\":20404:20422   */\n      add\n        /* \"#utility.yul\":20396:20422   */\n      swap1\n      pop\n        /* \"#utility.yul\":20468:20477   */\n      dup2\n        /* \"#utility.yul\":20462:20466   */\n      dup2\n        /* \"#utility.yul\":20458:20478   */\n      sub\n        /* \"#utility.yul\":20454:20455   */\n      0x00\n        /* \"#utility.yul\":20443:20452   */\n      dup4\n        /* \"#utility.yul\":20439:20456   */\n      add\n        /* \"#utility.yul\":20432:20479   */\n      mstore\n        /* \"#utility.yul\":20496:20627   */\n      tag_415\n        /* \"#utility.yul\":20622:20626   */\n      dup2\n        /* \"#utility.yul\":20496:20627   */\n      tag_206\n      jump\t// in\n    tag_415:\n        /* \"#utility.yul\":20488:20627   */\n      swap1\n      pop\n        /* \"#utility.yul\":20215:20634   */\n      swap2\n      swap1\n      pop\n      jump\t// out\n        /* \"#utility.yul\":20640:20820   */\n    tag_207:\n        /* \"#utility.yul\":20688:20765   */\n      0x4e487b7100000000000000000000000000000000000000000000000000000000\n        /* \"#utility.yul\":20685:20686   */\n      0x00\n        /* \"#utility.yul\":20678:20766   */\n      mstore\n        /* \"#utility.yul\":20785:20789   */\n      0x11\n        /* \"#utility.yul\":20782:20783   */\n      0x04\n        /* \"#utility.yul\":20775:20790   */\n      mstore\n        /* \"#utility.yul\":20809:20813   */\n      0x24\n        /* \"#utility.yul\":20806:20807   */\n      0x00\n        /* \"#utility.yul\":20799:20814   */\n      revert\n        /* \"#utility.yul\":20826:21059   */\n    tag_124:\n        /* \"#utility.yul\":20865:20868   */\n      0x00\n        /* \"#utility.yul\":20888:20912   */\n      tag_418\n        /* \"#utility.yul\":20906:20911   */\n      dup3\n        /* \"#utility.yul\":20888:20912   */\n      tag_150\n      jump\t// in\n    tag_418:\n        /* \"#utility.yul\":20879:20912   */\n      swap2\n      pop\n        /* \"#utility.yul\":20934:21000   */\n      0xffffffffffffffffffffffffffffffffffffffffffffffffffffffffffffffff\n        /* \"#utility.yul\":20927:20932   */\n      dup3\n        /* \"#utility.yul\":20924:21001   */\n      sub\n        /* \"#utility.yul\":20921:21024   */\n      tag_419\n      jumpi\n        /* \"#utility.yul\":21004:21022   */\n      tag_420\n      tag_207\n      jump\t// in\n    tag_420:\n        /* \"#utility.yul\":20921:21024   */\n    tag_419:\n        /* \"#utility.yul\":21051:21052   */\n      0x01\n        /* \"#utility.yul\":21044:21049   */\n      dup3\n        /* \"#utility.yul\":21040:21053   */\n      add\n        /* \"#utility.yul\":21033:21053   */\n      swap1\n      pop\n        /* \"#utility.yul\":20826:21059   */\n      swap2\n      swap1\n      pop\n      jump\t// out\n        /* \"#utility.yul\":21065:21242   */\n    tag_208:\n        /* \"#utility.yul\":21205:21234   */\n      0x566f74696e6720686173206e6f742073746172746564207965742e0000000000\n        /* \"#utility.yul\":21201:21202   */\n      0x00\n        /* \"#utility.yul\":21193:21199   */\n      dup3\n        /* \"#utility.yul\":21189:21203   */\n      add\n        /* \"#utility.yul\":21182:21235   */\n      mstore\n        /* \"#utility.yul\":21065:21242   */\n      pop\n      jump\t// out\n        /* \"#utility.yul\":21248:21614   */\n    tag_209:\n        /* \"#utility.yul\":21390:21393   */\n      0x00\n        /* \"#utility.yul\":21411:21478   */\n      tag_423\n        /* \"#utility.yul\":21475:21477   */\n      0x1b\n        /* \"#utility.yul\":21470:21473   */\n      dup4\n        /* \"#utility.yul\":21411:21478   */\n      tag_180\n      jump\t// in\n    tag_423:\n        /* \"#utility.yul\":21404:21478   */\n      swap2\n      pop\n        /* \"#utility.yul\":21487:21580   */\n      tag_424\n        /* \"#utility.yul\":21576:21579   */\n      dup3\n        /* \"#utility.yul\":21487:21580   */\n      tag_208\n      jump\t// in\n    tag_424:\n        /* \"#utility.yul\":21605:21607   */\n      0x20\n        /* \"#utility.yul\":21600:21603   */\n      dup3\n        /* \"#utility.yul\":21596:21608   */\n      add\n        /* \"#utility.yul\":21589:21608   */\n      swap1\n      pop\n        /* \"#utility.yul\":21248:21614   */\n      swap2\n      swap1\n      pop\n      jump\t// out\n        /* \"#utility.yul\":21620:22039   */\n    tag_137:\n        /* \"#utility.yul\":21786:21790   */\n      0x00\n        /* \"#utility.yul\":21824:21826   */\n      0x20\n        /* \"#utility.yul\":21813:21822   */\n      dup3\n        /* \"#utility.yul\":21809:21827   */\n      add\n        /* \"#utility.yul\":21801:21827   */\n      swap1\n      pop\n        /* \"#utility.yul\":21873:21882   */\n      dup2\n        /* \"#utility.yul\":21867:21871   */\n      dup2\n        /* \"#utility.yul\":21863:21883   */\n      sub\n        /* \"#utility.yul\":21859:21860   */\n      0x00\n        /* \"#utility.yul\":21848:21857   */\n      dup4\n        /* \"#utility.yul\":21844:21861   */\n      add\n        /* \"#utility.yul\":21837:21884   */\n      mstore\n        /* \"#utility.yul\":21901:22032   */\n      tag_426\n        /* \"#utility.yul\":22027:22031   */\n      dup2\n        /* \"#utility.yul\":21901:22032   */\n      tag_209\n      jump\t// in\n    tag_426:\n        /* \"#utility.yul\":21893:22032   */\n      swap1\n      pop\n        /* \"#utility.yul\":21620:22039   */\n      swap2\n      swap1\n      pop\n      jump\t// out\n        /* \"#utility.yul\":22045:22239   */\n    tag_140:\n        /* \"#utility.yul\":22085:22089   */\n      0x00\n        /* \"#utility.yul\":22105:22125   */\n      tag_428\n        /* \"#utility.yul\":22123:22124   */\n      dup3\n        /* \"#utility.yul\":22105:22125   */\n      tag_150\n      jump\t// in\n    tag_428:\n        /* \"#utility.yul\":22100:22125   */\n      swap2\n      pop\n        /* \"#utility.yul\":22139:22159   */\n      tag_429\n        /* \"#utility.yul\":22157:22158   */\n      dup4\n        /* \"#utility.yul\":22139:22159   */\n      tag_150\n      jump\t// in\n    tag_429:\n        /* \"#utility.yul\":22134:22159   */\n      swap3\n      pop\n        /* \"#utility.yul\":22183:22184   */\n      dup3\n        /* \"#utility.yul\":22180:22181   */\n      dup3\n        /* \"#utility.yul\":22176:22185   */\n      sub\n        /* \"#utility.yul\":22168:22185   */\n      swap1\n      pop\n        /* \"#utility.yul\":22207:22208   */\n      dup2\n        /* \"#utility.yul\":22201:22205   */\n      dup2\n        /* \"#utility.yul\":22198:22209   */\n      gt\n        /* \"#utility.yul\":22195:22232   */\n      iszero\n      tag_430\n      jumpi\n        /* \"#utility.yul\":22212:22230   */\n      tag_431\n      tag_207\n      jump\t// in\n    tag_431:\n        /* \"#utility.yul\":22195:22232   */\n    tag_430:\n        /* \"#utility.yul\":22045:22239   */\n      swap3\n      swap2\n      pop\n      pop\n      jump\t// out\n\n    auxdata: 0xa26469706673582212201ace2efe0d89568d9eef06d0d5df83590504e5888ab3b0cb1ba426da489c54bc64736f6c63430008190033\n}\n",
				"bytecode": {
					"linkReferences": {},
					"object": "608060405234801561000f575f80fd5b50604051611bdd380380611bdd8339818101604052810190610031919061038e565b5f5b82518110156100bf575f604051806040016040528085848151811061005b5761005a6103e8565b5b602002602001015181526020015f815250908060018154018082558091505060019003905f5260205f2090600202015f909190919091505f820151815f0190816100a59190610619565b506020820151816001015550508080600101915050610033565b503360015f6101000a81548173ffffffffffffffffffffffffffffffffffffffff021916908373ffffffffffffffffffffffffffffffffffffffff16021790555042600381905550603c816101149190610715565b4261011f9190610756565b6004819055505050610789565b5f604051905090565b5f80fd5b5f80fd5b5f80fd5b5f601f19601f8301169050919050565b7f4e487b71000000000000000000000000000000000000000000000000000000005f52604160045260245ffd5b61018782610141565b810181811067ffffffffffffffff821117156101a6576101a5610151565b5b80604052505050565b5f6101b861012c565b90506101c4828261017e565b919050565b5f67ffffffffffffffff8211156101e3576101e2610151565b5b602082029050602081019050919050565b5f80fd5b5f80fd5b5f67ffffffffffffffff82111561021657610215610151565b5b61021f82610141565b9050602081019050919050565b8281835e5f83830152505050565b5f61024c610247846101fc565b6101af565b905082815260208101848484011115610268576102676101f8565b5b61027384828561022c565b509392505050565b5f82601f83011261028f5761028e61013d565b5b815161029f84826020860161023a565b91505092915050565b5f6102ba6102b5846101c9565b6101af565b905080838252602082019050602084028301858111156102dd576102dc6101f4565b5b835b8181101561032457805167ffffffffffffffff8111156103025761030161013d565b5b80860161030f898261027b565b855260208501945050506020810190506102df565b5050509392505050565b5f82601f8301126103425761034161013d565b5b81516103528482602086016102a8565b91505092915050565b5f819050919050565b61036d8161035b565b8114610377575f80fd5b50565b5f8151905061038881610364565b92915050565b5f80604083850312156103a4576103a3610135565b5b5f83015167ffffffffffffffff8111156103c1576103c0610139565b5b6103cd8582860161032e565b92505060206103de8582860161037a565b9150509250929050565b7f4e487b71000000000000000000000000000000000000000000000000000000005f52603260045260245ffd5b5f81519050919050565b7f4e487b71000000000000000000000000000000000000000000000000000000005f52602260045260245ffd5b5f600282049050600182168061046357607f821691505b6020821081036104765761047561041f565b5b50919050565b5f819050815f5260205f209050919050565b5f6020601f8301049050919050565b5f82821b905092915050565b5f600883026104d87fffffffffffffffffffffffffffffffffffffffffffffffffffffffffffffffff8261049d565b6104e2868361049d565b95508019841693508086168417925050509392505050565b5f819050919050565b5f61051d6105186105138461035b565b6104fa565b61035b565b9050919050565b5f819050919050565b61053683610503565b61054a61054282610524565b8484546104a9565b825550505050565b5f90565b61055e610552565b61056981848461052d565b505050565b5b8181101561058c576105815f82610556565b60018101905061056f565b5050565b601f8211156105d1576105a28161047c565b6105ab8461048e565b810160208510156105ba578190505b6105ce6105c68561048e565b83018261056e565b50505b505050565b5f82821c905092915050565b5f6105f15f19846008026105d6565b1980831691505092915050565b5f61060983836105e2565b9150826002028217905092915050565b61062282610415565b67ffffffffffffffff81111561063b5761063a610151565b5b610645825461044c565b610650828285610590565b5f60209050601f831160018114610681575f841561066f578287015190505b61067985826105fe565b8655506106e0565b601f19841661068f8661047c565b5f5b828110156106b657848901518255600182019150602085019450602081019050610691565b868310156106d357848901516106cf601f8916826105e2565b8355505b6001600288020188555050505b505050505050565b7f4e487b71000000000000000000000000000000000000000000000000000000005f52601160045260245ffd5b5f61071f8261035b565b915061072a8361035b565b92508282026107388161035b565b9150828204841483151761074f5761074e6106e8565b5b5092915050565b5f6107608261035b565b915061076b8361035b565b9250828201905080821115610783576107826106e8565b5b92915050565b611447806107965f395ff3fe608060405234801561000f575f80fd5b50600436106100b2575f3560e01c80633eb76b9c1161006f5780633eb76b9c1461018e578063581c281c146101aa57806385a38635146101c8578063866163c0146101e65780638da5cb5b14610216578063efb98bcf14610234576100b2565b806309eef43e146100b6578063101158af146100e65780632d307d60146101045780632e6997fe146101205780633477ee2e1461013f57806337836c8d14610170575b5f80fd5b6100d060048036038101906100cb919061093a565b610252565b6040516100dd919061097f565b60405180910390f35b6100ee61026f565b6040516100fb91906109b0565b60405180910390f35b61011e60048036038101906101199190610b05565b610275565b005b610128610363565b604051610136929190610d1e565b60405180910390f35b61015960048036038101906101549190610d7d565b61053b565b604051610167929190610df0565b60405180910390f35b6101786105ef565b60405161018591906109b0565b60405180910390f35b6101a860048036038101906101a39190610d7d565b6105fa565b005b6101b26107ad565b6040516101bf919061097f565b60405180910390f35b6101d06107c6565b6040516101dd91906109b0565b60405180910390f35b61020060048036038101906101fb9190610d7d565b6107cc565b60405161020d91906109b0565b60405180910390f35b61021e61083f565b60405161022b9190610e2d565b60405180910390f35b61023c610864565b60405161024991906109b0565b60405180910390f35b6002602052805f5260405f205f915054906101000a900460ff1681565b60035481565b60015f9054906101000a900473ffffffffffffffffffffffffffffffffffffffff1673ffffffffffffffffffffffffffffffffffffffff163373ffffffffffffffffffffffffffffffffffffffff1614610304576040517f08c379a00000000000000000000000000000000000000000000000000000000081526004016102fb90610eb6565b60405180910390fd5b5f60405180604001604052808381526020015f815250908060018154018082558091505060019003905f5260205f2090600202015f909190919091505f820151815f01908161035391906110ce565b5060208201518160010155505050565b6060805f808054905067ffffffffffffffff811115610385576103846109e1565b5b6040519080825280602002602001820160405280156103b857816020015b60608152602001906001900390816103a35790505b5090505f808054905067ffffffffffffffff8111156103da576103d96109e1565b5b6040519080825280602002602001820160405280156104085781602001602082028036833780820191505090505b5090505f5b5f8054905081101561052e575f818154811061042c5761042b61119d565b5b905f5260205f2090600202015f01805461044590610f01565b80601f016020809104026020016040519081016040528092919081815260200182805461047190610f01565b80156104bc5780601f10610493576101008083540402835291602001916104bc565b820191905f5260205f20905b81548152906001019060200180831161049f57829003601f168201915b50505050508382815181106104d4576104d361119d565b5b60200260200101819052505f81815481106104f2576104f161119d565b5b905f5260205f209060020201600101548282815181106105155761051461119d565b5b602002602001018181525050808060010191505061040d565b5081819350935050509091565b5f8181548110610549575f80fd5b905f5260205f2090600202015f91509050805f01805461056890610f01565b80601f016020809104026020016040519081016040528092919081815260200182805461059490610f01565b80156105df5780601f106105b6576101008083540402835291602001916105df565b820191905f5260205f20905b8154815290600101906020018083116105c257829003601f168201915b5050505050908060010154905082565b5f8080549050905090565b805f805490508110610641576040517f08c379a000000000000000000000000000000000000000000000000000000000815260040161063890611214565b60405180910390fd5b60025f3373ffffffffffffffffffffffffffffffffffffffff1673ffffffffffffffffffffffffffffffffffffffff1681526020019081526020015f205f9054906101000a900460ff16156106cb576040517f08c379a00000000000000000000000000000000000000000000000000000000081526004016106c29061127c565b60405180910390fd5b60035442101580156106de575060045442105b61071d576040517f08c379a0000000000000000000000000000000000000000000000000000000008152600401610714906112e4565b60405180910390fd5b5f82815481106107305761072f61119d565b5b905f5260205f2090600202016001015f81548092919061074f9061132f565b9190505550600160025f3373ffffffffffffffffffffffffffffffffffffffff1673ffffffffffffffffffffffffffffffffffffffff1681526020019081526020015f205f6101000a81548160ff0219169083151502179055505050565b5f60035442101580156107c1575060045442105b905090565b60045481565b5f815f805490508110610814576040517f08c379a000000000000000000000000000000000000000000000000000000000815260040161080b90611214565b60405180910390fd5b5f83815481106108275761082661119d565b5b905f5260205f20906002020160010154915050919050565b60015f9054906101000a900473ffffffffffffffffffffffffffffffffffffffff1681565b5f6003544210156108aa576040517f08c379a00000000000000000000000000000000000000000000000000000000081526004016108a1906113c0565b60405180910390fd5b60045442106108bb575f90506108cc565b426004546108c991906113de565b90505b90565b5f604051905090565b5f80fd5b5f80fd5b5f73ffffffffffffffffffffffffffffffffffffffff82169050919050565b5f610909826108e0565b9050919050565b610919816108ff565b8114610923575f80fd5b50565b5f8135905061093481610910565b92915050565b5f6020828403121561094f5761094e6108d8565b5b5f61095c84828501610926565b91505092915050565b5f8115159050919050565b61097981610965565b82525050565b5f6020820190506109925f830184610970565b92915050565b5f819050919050565b6109aa81610998565b82525050565b5f6020820190506109c35f8301846109a1565b92915050565b5f80fd5b5f80fd5b5f601f19601f8301169050919050565b7f4e487b71000000000000000000000000000000000000000000000000000000005f52604160045260245ffd5b610a17826109d1565b810181811067ffffffffffffffff82111715610a3657610a356109e1565b5b80604052505050565b5f610a486108cf565b9050610a548282610a0e565b919050565b5f67ffffffffffffffff821115610a7357610a726109e1565b5b610a7c826109d1565b9050602081019050919050565b828183375f83830152505050565b5f610aa9610aa484610a59565b610a3f565b905082815260208101848484011115610ac557610ac46109cd565b5b610ad0848285610a89565b509392505050565b5f82601f830112610aec57610aeb6109c9565b5b8135610afc848260208601610a97565b91505092915050565b5f60208284031215610b1a57610b196108d8565b5b5f82013567ffffffffffffffff811115610b3757610b366108dc565b5b610b4384828501610ad8565b91505092915050565b5f81519050919050565b5f82825260208201905092915050565b5f819050602082019050919050565b5f81519050919050565b5f82825260208201905092915050565b8281835e5f83830152505050565b5f610ba782610b75565b610bb18185610b7f565b9350610bc1818560208601610b8f565b610bca816109d1565b840191505092915050565b5f610be08383610b9d565b905092915050565b5f602082019050919050565b5f610bfe82610b4c565b610c088185610b56565b935083602082028501610c1a85610b66565b805f5b85811015610c555784840389528151610c368582610bd5565b9450610c4183610be8565b925060208a01995050600181019050610c1d565b50829750879550505050505092915050565b5f81519050919050565b5f82825260208201905092915050565b5f819050602082019050919050565b610c9981610998565b82525050565b5f610caa8383610c90565b60208301905092915050565b5f602082019050919050565b5f610ccc82610c67565b610cd68185610c71565b9350610ce183610c81565b805f5b83811015610d11578151610cf88882610c9f565b9750610d0383610cb6565b925050600181019050610ce4565b5085935050505092915050565b5f6040820190508181035f830152610d368185610bf4565b90508181036020830152610d4a8184610cc2565b90509392505050565b610d5c81610998565b8114610d66575f80fd5b50565b5f81359050610d7781610d53565b92915050565b5f60208284031215610d9257610d916108d8565b5b5f610d9f84828501610d69565b91505092915050565b5f82825260208201905092915050565b5f610dc282610b75565b610dcc8185610da8565b9350610ddc818560208601610b8f565b610de5816109d1565b840191505092915050565b5f6040820190508181035f830152610e088185610db8565b9050610e1760208301846109a1565b9392505050565b610e27816108ff565b82525050565b5f602082019050610e405f830184610e1e565b92915050565b7f4f6e6c7920746865206f776e65722063616e20706572666f726d2074686973205f8201527f616374696f6e2e00000000000000000000000000000000000000000000000000602082015250565b5f610ea0602783610da8565b9150610eab82610e46565b604082019050919050565b5f6020820190508181035f830152610ecd81610e94565b9050919050565b7f4e487b71000000000000000000000000000000000000000000000000000000005f52602260045260245ffd5b5f6002820490506001821680610f1857607f821691505b602082108103610f2b57610f2a610ed4565b5b50919050565b5f819050815f5260205f209050919050565b5f6020601f8301049050919050565b5f82821b905092915050565b5f60088302610f8d7fffffffffffffffffffffffffffffffffffffffffffffffffffffffffffffffff82610f52565b610f978683610f52565b95508019841693508086168417925050509392505050565b5f819050919050565b5f610fd2610fcd610fc884610998565b610faf565b610998565b9050919050565b5f819050919050565b610feb83610fb8565b610fff610ff782610fd9565b848454610f5e565b825550505050565b5f90565b611013611007565b61101e818484610fe2565b505050565b5b81811015611041576110365f8261100b565b600181019050611024565b5050565b601f8211156110865761105781610f31565b61106084610f43565b8101602085101561106f578190505b61108361107b85610f43565b830182611023565b50505b505050565b5f82821c905092915050565b5f6110a65f198460080261108b565b1980831691505092915050565b5f6110be8383611097565b9150826002028217905092915050565b6110d782610b75565b67ffffffffffffffff8111156110f0576110ef6109e1565b5b6110fa8254610f01565b611105828285611045565b5f60209050601f831160018114611136575f8415611124578287015190505b61112e85826110b3565b865550611195565b601f19841661114486610f31565b5f5b8281101561116b57848901518255600182019150602085019450602081019050611146565b868310156111885784890151611184601f891682611097565b8355505b6001600288020188555050505b505050505050565b7f4e487b71000000000000000000000000000000000000000000000000000000005f52603260045260245ffd5b7f496e76616c69642063616e64696461746520696e6465782e00000000000000005f82015250565b5f6111fe601883610da8565b9150611209826111ca565b602082019050919050565b5f6020820190508181035f83015261122b816111f2565b9050919050565b7f596f75206861766520616c726561647920766f7465642e0000000000000000005f82015250565b5f611266601783610da8565b915061127182611232565b602082019050919050565b5f6020820190508181035f8301526112938161125a565b9050919050565b7f566f74696e67206973206e6f74206f70656e2e000000000000000000000000005f82015250565b5f6112ce601383610da8565b91506112d98261129a565b602082019050919050565b5f6020820190508181035f8301526112fb816112c2565b9050919050565b7f4e487b71000000000000000000000000000000000000000000000000000000005f52601160045260245ffd5b5f61133982610998565b91507fffffffffffffffffffffffffffffffffffffffffffffffffffffffffffffffff820361136b5761136a611302565b5b600182019050919050565b7f566f74696e6720686173206e6f742073746172746564207965742e00000000005f82015250565b5f6113aa601b83610da8565b91506113b582611376565b602082019050919050565b5f6020820190508181035f8301526113d78161139e565b9050919050565b5f6113e882610998565b91506113f383610998565b925082820390508181111561140b5761140a611302565b5b9291505056fea26469706673582212201ace2efe0d89568d9eef06d0d5df83590504e5888ab3b0cb1ba426da489c54bc64736f6c63430008190033",
					"opcodes": "PUSH1 0x80 PUSH1 0x40 MSTORE CALLVALUE DUP1 ISZERO PUSH2 0xF JUMPI PUSH0 DUP1 REVERT JUMPDEST POP PUSH1 0x40 MLOAD PUSH2 0x1BDD CODESIZE SUB DUP1 PUSH2 0x1BDD DUP4 CODECOPY DUP2 DUP2 ADD PUSH1 0x40 MSTORE DUP2 ADD SWAP1 PUSH2 0x31 SWAP2 SWAP1 PUSH2 0x38E JUMP JUMPDEST PUSH0 JUMPDEST DUP3 MLOAD DUP2 LT ISZERO PUSH2 0xBF JUMPI PUSH0 PUSH1 0x40 MLOAD DUP1 PUSH1 0x40 ADD PUSH1 0x40 MSTORE DUP1 DUP6 DUP5 DUP2 MLOAD DUP2 LT PUSH2 0x5B JUMPI PUSH2 0x5A PUSH2 0x3E8 JUMP JUMPDEST JUMPDEST PUSH1 0x20 MUL PUSH1 0x20 ADD ADD MLOAD DUP2 MSTORE PUSH1 0x20 ADD PUSH0 DUP2 MSTORE POP SWAP1 DUP1 PUSH1 0x1 DUP2 SLOAD ADD DUP1 DUP3 SSTORE DUP1 SWAP2 POP POP PUSH1 0x1 SWAP1 SUB SWAP1 PUSH0 MSTORE PUSH1 0x20 PUSH0 KECCAK256 SWAP1 PUSH1 0x2 MUL ADD PUSH0 SWAP1 SWAP2 SWAP1 SWAP2 SWAP1 SWAP2 POP PUSH0 DUP3 ADD MLOAD DUP2 PUSH0 ADD SWAP1 DUP2 PUSH2 0xA5 SWAP2 SWAP1 PUSH2 0x619 JUMP JUMPDEST POP PUSH1 0x20 DUP3 ADD MLOAD DUP2 PUSH1 0x1 ADD SSTORE POP POP DUP1 DUP1 PUSH1 0x1 ADD SWAP2 POP POP PUSH2 0x33 JUMP JUMPDEST POP CALLER PUSH1 0x1 PUSH0 PUSH2 0x100 EXP DUP2 SLOAD DUP2 PUSH20 0xFFFFFFFFFFFFFFFFFFFFFFFFFFFFFFFFFFFFFFFF MUL NOT AND SWAP1 DUP4 PUSH20 0xFFFFFFFFFFFFFFFFFFFFFFFFFFFFFFFFFFFFFFFF AND MUL OR SWAP1 SSTORE POP TIMESTAMP PUSH1 0x3 DUP2 SWAP1 SSTORE POP PUSH1 0x3C DUP2 PUSH2 0x114 SWAP2 SWAP1 PUSH2 0x715 JUMP JUMPDEST TIMESTAMP PUSH2 0x11F SWAP2 SWAP1 PUSH2 0x756 JUMP JUMPDEST PUSH1 0x4 DUP2 SWAP1 SSTORE POP POP POP PUSH2 0x789 JUMP JUMPDEST PUSH0 PUSH1 0x40 MLOAD SWAP1 POP SWAP1 JUMP JUMPDEST PUSH0 DUP1 REVERT JUMPDEST PUSH0 DUP1 REVERT JUMPDEST PUSH0 DUP1 REVERT JUMPDEST PUSH0 PUSH1 0x1F NOT PUSH1 0x1F DUP4 ADD AND SWAP1 POP SWAP2 SWAP1 POP JUMP JUMPDEST PUSH32 0x4E487B7100000000000000000000000000000000000000000000000000000000 PUSH0 MSTORE PUSH1 0x41 PUSH1 0x4 MSTORE PUSH1 0x24 PUSH0 REVERT JUMPDEST PUSH2 0x187 DUP3 PUSH2 0x141 JUMP JUMPDEST DUP2 ADD DUP2 DUP2 LT PUSH8 0xFFFFFFFFFFFFFFFF DUP3 GT OR ISZERO PUSH2 0x1A6 JUMPI PUSH2 0x1A5 PUSH2 0x151 JUMP JUMPDEST JUMPDEST DUP1 PUSH1 0x40 MSTORE POP POP POP JUMP JUMPDEST PUSH0 PUSH2 0x1B8 PUSH2 0x12C JUMP JUMPDEST SWAP1 POP PUSH2 0x1C4 DUP3 DUP3 PUSH2 0x17E JUMP JUMPDEST SWAP2 SWAP1 POP JUMP JUMPDEST PUSH0 PUSH8 0xFFFFFFFFFFFFFFFF DUP3 GT ISZERO PUSH2 0x1E3 JUMPI PUSH2 0x1E2 PUSH2 0x151 JUMP JUMPDEST JUMPDEST PUSH1 0x20 DUP3 MUL SWAP1 POP PUSH1 0x20 DUP2 ADD SWAP1 POP SWAP2 SWAP1 POP JUMP JUMPDEST PUSH0 DUP1 REVERT JUMPDEST PUSH0 DUP1 REVERT JUMPDEST PUSH0 PUSH8 0xFFFFFFFFFFFFFFFF DUP3 GT ISZERO PUSH2 0x216 JUMPI PUSH2 0x215 PUSH2 0x151 JUMP JUMPDEST JUMPDEST PUSH2 0x21F DUP3 PUSH2 0x141 JUMP JUMPDEST SWAP1 POP PUSH1 0x20 DUP2 ADD SWAP1 POP SWAP2 SWAP1 POP JUMP JUMPDEST DUP3 DUP2 DUP4 MCOPY PUSH0 DUP4 DUP4 ADD MSTORE POP POP POP JUMP JUMPDEST PUSH0 PUSH2 0x24C PUSH2 0x247 DUP5 PUSH2 0x1FC JUMP JUMPDEST PUSH2 0x1AF JUMP JUMPDEST SWAP1 POP DUP3 DUP2 MSTORE PUSH1 0x20 DUP2 ADD DUP5 DUP5 DUP5 ADD GT ISZERO PUSH2 0x268 JUMPI PUSH2 0x267 PUSH2 0x1F8 JUMP JUMPDEST JUMPDEST PUSH2 0x273 DUP5 DUP3 DUP6 PUSH2 0x22C JUMP JUMPDEST POP SWAP4 SWAP3 POP POP POP JUMP JUMPDEST PUSH0 DUP3 PUSH1 0x1F DUP4 ADD SLT PUSH2 0x28F JUMPI PUSH2 0x28E PUSH2 0x13D JUMP JUMPDEST JUMPDEST DUP2 MLOAD PUSH2 0x29F DUP5 DUP3 PUSH1 0x20 DUP7 ADD PUSH2 0x23A JUMP JUMPDEST SWAP2 POP POP SWAP3 SWAP2 POP POP JUMP JUMPDEST PUSH0 PUSH2 0x2BA PUSH2 0x2B5 DUP5 PUSH2 0x1C9 JUMP JUMPDEST PUSH2 0x1AF JUMP JUMPDEST SWAP1 POP DUP1 DUP4 DUP3 MSTORE PUSH1 0x20 DUP3 ADD SWAP1 POP PUSH1 0x20 DUP5 MUL DUP4 ADD DUP6 DUP2 GT ISZERO PUSH2 0x2DD JUMPI PUSH2 0x2DC PUSH2 0x1F4 JUMP JUMPDEST JUMPDEST DUP4 JUMPDEST DUP2 DUP2 LT ISZERO PUSH2 0x324 JUMPI DUP1 MLOAD PUSH8 0xFFFFFFFFFFFFFFFF DUP2 GT ISZERO PUSH2 0x302 JUMPI PUSH2 0x301 PUSH2 0x13D JUMP JUMPDEST JUMPDEST DUP1 DUP7 ADD PUSH2 0x30F DUP10 DUP3 PUSH2 0x27B JUMP JUMPDEST DUP6 MSTORE PUSH1 0x20 DUP6 ADD SWAP5 POP POP POP PUSH1 0x20 DUP2 ADD SWAP1 POP PUSH2 0x2DF JUMP JUMPDEST POP POP POP SWAP4 SWAP3 POP POP POP JUMP JUMPDEST PUSH0 DUP3 PUSH1 0x1F DUP4 ADD SLT PUSH2 0x342 JUMPI PUSH2 0x341 PUSH2 0x13D JUMP JUMPDEST JUMPDEST DUP2 MLOAD PUSH2 0x352 DUP5 DUP3 PUSH1 0x20 DUP7 ADD PUSH2 0x2A8 JUMP JUMPDEST SWAP2 POP POP SWAP3 SWAP2 POP POP JUMP JUMPDEST PUSH0 DUP2 SWAP1 POP SWAP2 SWAP1 POP JUMP JUMPDEST PUSH2 0x36D DUP2 PUSH2 0x35B JUMP JUMPDEST DUP2 EQ PUSH2 0x377 JUMPI PUSH0 DUP1 REVERT JUMPDEST POP JUMP JUMPDEST PUSH0 DUP2 MLOAD SWAP1 POP PUSH2 0x388 DUP2 PUSH2 0x364 JUMP JUMPDEST SWAP3 SWAP2 POP POP JUMP JUMPDEST PUSH0 DUP1 PUSH1 0x40 DUP4 DUP6 SUB SLT ISZERO PUSH2 0x3A4 JUMPI PUSH2 0x3A3 PUSH2 0x135 JUMP JUMPDEST JUMPDEST PUSH0 DUP4 ADD MLOAD PUSH8 0xFFFFFFFFFFFFFFFF DUP2 GT ISZERO PUSH2 0x3C1 JUMPI PUSH2 0x3C0 PUSH2 0x139 JUMP JUMPDEST JUMPDEST PUSH2 0x3CD DUP6 DUP3 DUP7 ADD PUSH2 0x32E JUMP JUMPDEST SWAP3 POP POP PUSH1 0x20 PUSH2 0x3DE DUP6 DUP3 DUP7 ADD PUSH2 0x37A JUMP JUMPDEST SWAP2 POP POP SWAP3 POP SWAP3 SWAP1 POP JUMP JUMPDEST PUSH32 0x4E487B7100000000000000000000000000000000000000000000000000000000 PUSH0 MSTORE PUSH1 0x32 PUSH1 0x4 MSTORE PUSH1 0x24 PUSH0 REVERT JUMPDEST PUSH0 DUP2 MLOAD SWAP1 POP SWAP2 SWAP1 POP JUMP JUMPDEST PUSH32 0x4E487B7100000000000000000000000000000000000000000000000000000000 PUSH0 MSTORE PUSH1 0x22 PUSH1 0x4 MSTORE PUSH1 0x24 PUSH0 REVERT JUMPDEST PUSH0 PUSH1 0x2 DUP3 DIV SWAP1 POP PUSH1 0x1 DUP3 AND DUP1 PUSH2 0x463 JUMPI PUSH1 0x7F DUP3 AND SWAP2 POP JUMPDEST PUSH1 0x20 DUP3 LT DUP2 SUB PUSH2 0x476 JUMPI PUSH2 0x475 PUSH2 0x41F JUMP JUMPDEST JUMPDEST POP SWAP2 SWAP1 POP JUMP JUMPDEST PUSH0 DUP2 SWAP1 POP DUP2 PUSH0 MSTORE PUSH1 0x20 PUSH0 KECCAK256 SWAP1 POP SWAP2 SWAP1 POP JUMP JUMPDEST PUSH0 PUSH1 0x20 PUSH1 0x1F DUP4 ADD DIV SWAP1 POP SWAP2 SWAP1 POP JUMP JUMPDEST PUSH0 DUP3 DUP3 SHL SWAP1 POP SWAP3 SWAP2 POP POP JUMP JUMPDEST PUSH0 PUSH1 0x8 DUP4 MUL PUSH2 0x4D8 PUSH32 0xFFFFFFFFFFFFFFFFFFFFFFFFFFFFFFFFFFFFFFFFFFFFFFFFFFFFFFFFFFFFFFFF DUP3 PUSH2 0x49D JUMP JUMPDEST PUSH2 0x4E2 DUP7 DUP4 PUSH2 0x49D JUMP JUMPDEST SWAP6 POP DUP1 NOT DUP5 AND SWAP4 POP DUP1 DUP7 AND DUP5 OR SWAP3 POP POP POP SWAP4 SWAP3 POP POP POP JUMP JUMPDEST PUSH0 DUP2 SWAP1 POP SWAP2 SWAP1 POP JUMP JUMPDEST PUSH0 PUSH2 0x51D PUSH2 0x518 PUSH2 0x513 DUP5 PUSH2 0x35B JUMP JUMPDEST PUSH2 0x4FA JUMP JUMPDEST PUSH2 0x35B JUMP JUMPDEST SWAP1 POP SWAP2 SWAP1 POP JUMP JUMPDEST PUSH0 DUP2 SWAP1 POP SWAP2 SWAP1 POP JUMP JUMPDEST PUSH2 0x536 DUP4 PUSH2 0x503 JUMP JUMPDEST PUSH2 0x54A PUSH2 0x542 DUP3 PUSH2 0x524 JUMP JUMPDEST DUP5 DUP5 SLOAD PUSH2 0x4A9 JUMP JUMPDEST DUP3 SSTORE POP POP POP POP JUMP JUMPDEST PUSH0 SWAP1 JUMP JUMPDEST PUSH2 0x55E PUSH2 0x552 JUMP JUMPDEST PUSH2 0x569 DUP2 DUP5 DUP5 PUSH2 0x52D JUMP JUMPDEST POP POP POP JUMP JUMPDEST JUMPDEST DUP2 DUP2 LT ISZERO PUSH2 0x58C JUMPI PUSH2 0x581 PUSH0 DUP3 PUSH2 0x556 JUMP JUMPDEST PUSH1 0x1 DUP2 ADD SWAP1 POP PUSH2 0x56F JUMP JUMPDEST POP POP JUMP JUMPDEST PUSH1 0x1F DUP3 GT ISZERO PUSH2 0x5D1 JUMPI PUSH2 0x5A2 DUP2 PUSH2 0x47C JUMP JUMPDEST PUSH2 0x5AB DUP5 PUSH2 0x48E JUMP JUMPDEST DUP2 ADD PUSH1 0x20 DUP6 LT ISZERO PUSH2 0x5BA JUMPI DUP2 SWAP1 POP JUMPDEST PUSH2 0x5CE PUSH2 0x5C6 DUP6 PUSH2 0x48E JUMP JUMPDEST DUP4 ADD DUP3 PUSH2 0x56E JUMP JUMPDEST POP POP JUMPDEST POP POP POP JUMP JUMPDEST PUSH0 DUP3 DUP3 SHR SWAP1 POP SWAP3 SWAP2 POP POP JUMP JUMPDEST PUSH0 PUSH2 0x5F1 PUSH0 NOT DUP5 PUSH1 0x8 MUL PUSH2 0x5D6 JUMP JUMPDEST NOT DUP1 DUP4 AND SWAP2 POP POP SWAP3 SWAP2 POP POP JUMP JUMPDEST PUSH0 PUSH2 0x609 DUP4 DUP4 PUSH2 0x5E2 JUMP JUMPDEST SWAP2 POP DUP3 PUSH1 0x2 MUL DUP3 OR SWAP1 POP SWAP3 SWAP2 POP POP JUMP JUMPDEST PUSH2 0x622 DUP3 PUSH2 0x415 JUMP JUMPDEST PUSH8 0xFFFFFFFFFFFFFFFF DUP2 GT ISZERO PUSH2 0x63B JUMPI PUSH2 0x63A PUSH2 0x151 JUMP JUMPDEST JUMPDEST PUSH2 0x645 DUP3 SLOAD PUSH2 0x44C JUMP JUMPDEST PUSH2 0x650 DUP3 DUP3 DUP6 PUSH2 0x590 JUMP JUMPDEST PUSH0 PUSH1 0x20 SWAP1 POP PUSH1 0x1F DUP4 GT PUSH1 0x1 DUP2 EQ PUSH2 0x681 JUMPI PUSH0 DUP5 ISZERO PUSH2 0x66F JUMPI DUP3 DUP8 ADD MLOAD SWAP1 POP JUMPDEST PUSH2 0x679 DUP6 DUP3 PUSH2 0x5FE JUMP JUMPDEST DUP7 SSTORE POP PUSH2 0x6E0 JUMP JUMPDEST PUSH1 0x1F NOT DUP5 AND PUSH2 0x68F DUP7 PUSH2 0x47C JUMP JUMPDEST PUSH0 JUMPDEST DUP3 DUP2 LT ISZERO PUSH2 0x6B6 JUMPI DUP5 DUP10 ADD MLOAD DUP3 SSTORE PUSH1 0x1 DUP3 ADD SWAP2 POP PUSH1 0x20 DUP6 ADD SWAP5 POP PUSH1 0x20 DUP2 ADD SWAP1 POP PUSH2 0x691 JUMP JUMPDEST DUP7 DUP4 LT ISZERO PUSH2 0x6D3 JUMPI DUP5 DUP10 ADD MLOAD PUSH2 0x6CF PUSH1 0x1F DUP10 AND DUP3 PUSH2 0x5E2 JUMP JUMPDEST DUP4 SSTORE POP JUMPDEST PUSH1 0x1 PUSH1 0x2 DUP9 MUL ADD DUP9 SSTORE POP POP POP JUMPDEST POP POP POP POP POP POP JUMP JUMPDEST PUSH32 0x4E487B7100000000000000000000000000000000000000000000000000000000 PUSH0 MSTORE PUSH1 0x11 PUSH1 0x4 MSTORE PUSH1 0x24 PUSH0 REVERT JUMPDEST PUSH0 PUSH2 0x71F DUP3 PUSH2 0x35B JUMP JUMPDEST SWAP2 POP PUSH2 0x72A DUP4 PUSH2 0x35B JUMP JUMPDEST SWAP3 POP DUP3 DUP3 MUL PUSH2 0x738 DUP2 PUSH2 0x35B JUMP JUMPDEST SWAP2 POP DUP3 DUP3 DIV DUP5 EQ DUP4 ISZERO OR PUSH2 0x74F JUMPI PUSH2 0x74E PUSH2 0x6E8 JUMP JUMPDEST JUMPDEST POP SWAP3 SWAP2 POP POP JUMP JUMPDEST PUSH0 PUSH2 0x760 DUP3 PUSH2 0x35B JUMP JUMPDEST SWAP2 POP PUSH2 0x76B DUP4 PUSH2 0x35B JUMP JUMPDEST SWAP3 POP DUP3 DUP3 ADD SWAP1 POP DUP1 DUP3 GT ISZERO PUSH2 0x783 JUMPI PUSH2 0x782 PUSH2 0x6E8 JUMP JUMPDEST JUMPDEST SWAP3 SWAP2 POP POP JUMP JUMPDEST PUSH2 0x1447 DUP1 PUSH2 0x796 PUSH0 CODECOPY PUSH0 RETURN INVALID PUSH1 0x80 PUSH1 0x40 MSTORE CALLVALUE DUP1 ISZERO PUSH2 0xF JUMPI PUSH0 DUP1 REVERT JUMPDEST POP PUSH1 0x4 CALLDATASIZE LT PUSH2 0xB2 JUMPI PUSH0 CALLDATALOAD PUSH1 0xE0 SHR DUP1 PUSH4 0x3EB76B9C GT PUSH2 0x6F JUMPI DUP1 PUSH4 0x3EB76B9C EQ PUSH2 0x18E JUMPI DUP1 PUSH4 0x581C281C EQ PUSH2 0x1AA JUMPI DUP1 PUSH4 0x85A38635 EQ PUSH2 0x1C8 JUMPI DUP1 PUSH4 0x866163C0 EQ PUSH2 0x1E6 JUMPI DUP1 PUSH4 0x8DA5CB5B EQ PUSH2 0x216 JUMPI DUP1 PUSH4 0xEFB98BCF EQ PUSH2 0x234 JUMPI PUSH2 0xB2 JUMP JUMPDEST DUP1 PUSH4 0x9EEF43E EQ PUSH2 0xB6 JUMPI DUP1 PUSH4 0x101158AF EQ PUSH2 0xE6 JUMPI DUP1 PUSH4 0x2D307D60 EQ PUSH2 0x104 JUMPI DUP1 PUSH4 0x2E6997FE EQ PUSH2 0x120 JUMPI DUP1 PUSH4 0x3477EE2E EQ PUSH2 0x13F JUMPI DUP1 PUSH4 0x37836C8D EQ PUSH2 0x170 JUMPI JUMPDEST PUSH0 DUP1 REVERT JUMPDEST PUSH2 0xD0 PUSH1 0x4 DUP1 CALLDATASIZE SUB DUP2 ADD SWAP1 PUSH2 0xCB SWAP2 SWAP1 PUSH2 0x93A JUMP JUMPDEST PUSH2 0x252 JUMP JUMPDEST PUSH1 0x40 MLOAD PUSH2 0xDD SWAP2 SWAP1 PUSH2 0x97F JUMP JUMPDEST PUSH1 0x40 MLOAD DUP1 SWAP2 SUB SWAP1 RETURN JUMPDEST PUSH2 0xEE PUSH2 0x26F JUMP JUMPDEST PUSH1 0x40 MLOAD PUSH2 0xFB SWAP2 SWAP1 PUSH2 0x9B0 JUMP JUMPDEST PUSH1 0x40 MLOAD DUP1 SWAP2 SUB SWAP1 RETURN JUMPDEST PUSH2 0x11E PUSH1 0x4 DUP1 CALLDATASIZE SUB DUP2 ADD SWAP1 PUSH2 0x119 SWAP2 SWAP1 PUSH2 0xB05 JUMP JUMPDEST PUSH2 0x275 JUMP JUMPDEST STOP JUMPDEST PUSH2 0x128 PUSH2 0x363 JUMP JUMPDEST PUSH1 0x40 MLOAD PUSH2 0x136 SWAP3 SWAP2 SWAP1 PUSH2 0xD1E JUMP JUMPDEST PUSH1 0x40 MLOAD DUP1 SWAP2 SUB SWAP1 RETURN JUMPDEST PUSH2 0x159 PUSH1 0x4 DUP1 CALLDATASIZE SUB DUP2 ADD SWAP1 PUSH2 0x154 SWAP2 SWAP1 PUSH2 0xD7D JUMP JUMPDEST PUSH2 0x53B JUMP JUMPDEST PUSH1 0x40 MLOAD PUSH2 0x167 SWAP3 SWAP2 SWAP1 PUSH2 0xDF0 JUMP JUMPDEST PUSH1 0x40 MLOAD DUP1 SWAP2 SUB SWAP1 RETURN JUMPDEST PUSH2 0x178 PUSH2 0x5EF JUMP JUMPDEST PUSH1 0x40 MLOAD PUSH2 0x185 SWAP2 SWAP1 PUSH2 0x9B0 JUMP JUMPDEST PUSH1 0x40 MLOAD DUP1 SWAP2 SUB SWAP1 RETURN JUMPDEST PUSH2 0x1A8 PUSH1 0x4 DUP1 CALLDATASIZE SUB DUP2 ADD SWAP1 PUSH2 0x1A3 SWAP2 SWAP1 PUSH2 0xD7D JUMP JUMPDEST PUSH2 0x5FA JUMP JUMPDEST STOP JUMPDEST PUSH2 0x1B2 PUSH2 0x7AD JUMP JUMPDEST PUSH1 0x40 MLOAD PUSH2 0x1BF SWAP2 SWAP1 PUSH2 0x97F JUMP JUMPDEST PUSH1 0x40 MLOAD DUP1 SWAP2 SUB SWAP1 RETURN JUMPDEST PUSH2 0x1D0 PUSH2 0x7C6 JUMP JUMPDEST PUSH1 0x40 MLOAD PUSH2 0x1DD SWAP2 SWAP1 PUSH2 0x9B0 JUMP JUMPDEST PUSH1 0x40 MLOAD DUP1 SWAP2 SUB SWAP1 RETURN JUMPDEST PUSH2 0x200 PUSH1 0x4 DUP1 CALLDATASIZE SUB DUP2 ADD SWAP1 PUSH2 0x1FB SWAP2 SWAP1 PUSH2 0xD7D JUMP JUMPDEST PUSH2 0x7CC JUMP JUMPDEST PUSH1 0x40 MLOAD PUSH2 0x20D SWAP2 SWAP1 PUSH2 0x9B0 JUMP JUMPDEST PUSH1 0x40 MLOAD DUP1 SWAP2 SUB SWAP1 RETURN JUMPDEST PUSH2 0x21E PUSH2 0x83F JUMP JUMPDEST PUSH1 0x40 MLOAD PUSH2 0x22B SWAP2 SWAP1 PUSH2 0xE2D JUMP JUMPDEST PUSH1 0x40 MLOAD DUP1 SWAP2 SUB SWAP1 RETURN JUMPDEST PUSH2 0x23C PUSH2 0x864 JUMP JUMPDEST PUSH1 0x40 MLOAD PUSH2 0x249 SWAP2 SWAP1 PUSH2 0x9B0 JUMP JUMPDEST PUSH1 0x40 MLOAD DUP1 SWAP2 SUB SWAP1 RETURN JUMPDEST PUSH1 0x2 PUSH1 0x20 MSTORE DUP1 PUSH0 MSTORE PUSH1 0x40 PUSH0 KECCAK256 PUSH0 SWAP2 POP SLOAD SWAP1 PUSH2 0x100 EXP SWAP1 DIV PUSH1 0xFF AND DUP2 JUMP JUMPDEST PUSH1 0x3 SLOAD DUP2 JUMP JUMPDEST PUSH1 0x1 PUSH0 SWAP1 SLOAD SWAP1 PUSH2 0x100 EXP SWAP1 DIV PUSH20 0xFFFFFFFFFFFFFFFFFFFFFFFFFFFFFFFFFFFFFFFF AND PUSH20 0xFFFFFFFFFFFFFFFFFFFFFFFFFFFFFFFFFFFFFFFF AND CALLER PUSH20 0xFFFFFFFFFFFFFFFFFFFFFFFFFFFFFFFFFFFFFFFF AND EQ PUSH2 0x304 JUMPI PUSH1 0x40 MLOAD PUSH32 0x8C379A000000000000000000000000000000000000000000000000000000000 DUP2 MSTORE PUSH1 0x4 ADD PUSH2 0x2FB SWAP1 PUSH2 0xEB6 JUMP JUMPDEST PUSH1 0x40 MLOAD DUP1 SWAP2 SUB SWAP1 REVERT JUMPDEST PUSH0 PUSH1 0x40 MLOAD DUP1 PUSH1 0x40 ADD PUSH1 0x40 MSTORE DUP1 DUP4 DUP2 MSTORE PUSH1 0x20 ADD PUSH0 DUP2 MSTORE POP SWAP1 DUP1 PUSH1 0x1 DUP2 SLOAD ADD DUP1 DUP3 SSTORE DUP1 SWAP2 POP POP PUSH1 0x1 SWAP1 SUB SWAP1 PUSH0 MSTORE PUSH1 0x20 PUSH0 KECCAK256 SWAP1 PUSH1 0x2 MUL ADD PUSH0 SWAP1 SWAP2 SWAP1 SWAP2 SWAP1 SWAP2 POP PUSH0 DUP3 ADD MLOAD DUP2 PUSH0 ADD SWAP1 DUP2 PUSH2 0x353 SWAP2 SWAP1 PUSH2 0x10CE JUMP JUMPDEST POP PUSH1 0x20 DUP3 ADD MLOAD DUP2 PUSH1 0x1 ADD SSTORE POP POP POP JUMP JUMPDEST PUSH1 0x60 DUP1 PUSH0 DUP1 DUP1 SLOAD SWAP1 POP PUSH8 0xFFFFFFFFFFFFFFFF DUP2 GT ISZERO PUSH2 0x385 JUMPI PUSH2 0x384 PUSH2 0x9E1 JUMP JUMPDEST JUMPDEST PUSH1 0x40 MLOAD SWAP1 DUP1 DUP3 MSTORE DUP1 PUSH1 0x20 MUL PUSH1 0x20 ADD DUP3 ADD PUSH1 0x40 MSTORE DUP1 ISZERO PUSH2 0x3B8 JUMPI DUP2 PUSH1 0x20 ADD JUMPDEST PUSH1 0x60 DUP2 MSTORE PUSH1 0x20 ADD SWAP1 PUSH1 0x1 SWAP1 SUB SWAP1 DUP2 PUSH2 0x3A3 JUMPI SWAP1 POP JUMPDEST POP SWAP1 POP PUSH0 DUP1 DUP1 SLOAD SWAP1 POP PUSH8 0xFFFFFFFFFFFFFFFF DUP2 GT ISZERO PUSH2 0x3DA JUMPI PUSH2 0x3D9 PUSH2 0x9E1 JUMP JUMPDEST JUMPDEST PUSH1 0x40 MLOAD SWAP1 DUP1 DUP3 MSTORE DUP1 PUSH1 0x20 MUL PUSH1 0x20 ADD DUP3 ADD PUSH1 0x40 MSTORE DUP1 ISZERO PUSH2 0x408 JUMPI DUP2 PUSH1 0x20 ADD PUSH1 0x20 DUP3 MUL DUP1 CALLDATASIZE DUP4 CALLDATACOPY DUP1 DUP3 ADD SWAP2 POP POP SWAP1 POP JUMPDEST POP SWAP1 POP PUSH0 JUMPDEST PUSH0 DUP1 SLOAD SWAP1 POP DUP2 LT ISZERO PUSH2 0x52E JUMPI PUSH0 DUP2 DUP2 SLOAD DUP2 LT PUSH2 0x42C JUMPI PUSH2 0x42B PUSH2 0x119D JUMP JUMPDEST JUMPDEST SWAP1 PUSH0 MSTORE PUSH1 0x20 PUSH0 KECCAK256 SWAP1 PUSH1 0x2 MUL ADD PUSH0 ADD DUP1 SLOAD PUSH2 0x445 SWAP1 PUSH2 0xF01 JUMP JUMPDEST DUP1 PUSH1 0x1F ADD PUSH1 0x20 DUP1 SWAP2 DIV MUL PUSH1 0x20 ADD PUSH1 0x40 MLOAD SWAP1 DUP2 ADD PUSH1 0x40 MSTORE DUP1 SWAP3 SWAP2 SWAP1 DUP2 DUP2 MSTORE PUSH1 0x20 ADD DUP3 DUP1 SLOAD PUSH2 0x471 SWAP1 PUSH2 0xF01 JUMP JUMPDEST DUP1 ISZERO PUSH2 0x4BC JUMPI DUP1 PUSH1 0x1F LT PUSH2 0x493 JUMPI PUSH2 0x100 DUP1 DUP4 SLOAD DIV MUL DUP4 MSTORE SWAP2 PUSH1 0x20 ADD SWAP2 PUSH2 0x4BC JUMP JUMPDEST DUP3 ADD SWAP2 SWAP1 PUSH0 MSTORE PUSH1 0x20 PUSH0 KECCAK256 SWAP1 JUMPDEST DUP2 SLOAD DUP2 MSTORE SWAP1 PUSH1 0x1 ADD SWAP1 PUSH1 0x20 ADD DUP1 DUP4 GT PUSH2 0x49F JUMPI DUP3 SWAP1 SUB PUSH1 0x1F AND DUP3 ADD SWAP2 JUMPDEST POP POP POP POP POP DUP4 DUP3 DUP2 MLOAD DUP2 LT PUSH2 0x4D4 JUMPI PUSH2 0x4D3 PUSH2 0x119D JUMP JUMPDEST JUMPDEST PUSH1 0x20 MUL PUSH1 0x20 ADD ADD DUP2 SWAP1 MSTORE POP PUSH0 DUP2 DUP2 SLOAD DUP2 LT PUSH2 0x4F2 JUMPI PUSH2 0x4F1 PUSH2 0x119D JUMP JUMPDEST JUMPDEST SWAP1 PUSH0 MSTORE PUSH1 0x20 PUSH0 KECCAK256 SWAP1 PUSH1 0x2 MUL ADD PUSH1 0x1 ADD SLOAD DUP3 DUP3 DUP2 MLOAD DUP2 LT PUSH2 0x515 JUMPI PUSH2 0x514 PUSH2 0x119D JUMP JUMPDEST JUMPDEST PUSH1 0x20 MUL PUSH1 0x20 ADD ADD DUP2 DUP2 MSTORE POP POP DUP1 DUP1 PUSH1 0x1 ADD SWAP2 POP POP PUSH2 0x40D JUMP JUMPDEST POP DUP2 DUP2 SWAP4 POP SWAP4 POP POP POP SWAP1 SWAP2 JUMP JUMPDEST PUSH0 DUP2 DUP2 SLOAD DUP2 LT PUSH2 0x549 JUMPI PUSH0 DUP1 REVERT JUMPDEST SWAP1 PUSH0 MSTORE PUSH1 0x20 PUSH0 KECCAK256 SWAP1 PUSH1 0x2 MUL ADD PUSH0 SWAP2 POP SWAP1 POP DUP1 PUSH0 ADD DUP1 SLOAD PUSH2 0x568 SWAP1 PUSH2 0xF01 JUMP JUMPDEST DUP1 PUSH1 0x1F ADD PUSH1 0x20 DUP1 SWAP2 DIV MUL PUSH1 0x20 ADD PUSH1 0x40 MLOAD SWAP1 DUP2 ADD PUSH1 0x40 MSTORE DUP1 SWAP3 SWAP2 SWAP1 DUP2 DUP2 MSTORE PUSH1 0x20 ADD DUP3 DUP1 SLOAD PUSH2 0x594 SWAP1 PUSH2 0xF01 JUMP JUMPDEST DUP1 ISZERO PUSH2 0x5DF JUMPI DUP1 PUSH1 0x1F LT PUSH2 0x5B6 JUMPI PUSH2 0x100 DUP1 DUP4 SLOAD DIV MUL DUP4 MSTORE SWAP2 PUSH1 0x20 ADD SWAP2 PUSH2 0x5DF JUMP JUMPDEST DUP3 ADD SWAP2 SWAP1 PUSH0 MSTORE PUSH1 0x20 PUSH0 KECCAK256 SWAP1 JUMPDEST DUP2 SLOAD DUP2 MSTORE SWAP1 PUSH1 0x1 ADD SWAP1 PUSH1 0x20 ADD DUP1 DUP4 GT PUSH2 0x5C2 JUMPI DUP3 SWAP1 SUB PUSH1 0x1F AND DUP3 ADD SWAP2 JUMPDEST POP POP POP POP POP SWAP1 DUP1 PUSH1 0x1 ADD SLOAD SWAP1 POP DUP3 JUMP JUMPDEST PUSH0 DUP1 DUP1 SLOAD SWAP1 POP SWAP1 POP SWAP1 JUMP JUMPDEST DUP1 PUSH0 DUP1 SLOAD SWAP1 POP DUP2 LT PUSH2 0x641 JUMPI PUSH1 0x40 MLOAD PUSH32 0x8C379A000000000000000000000000000000000000000000000000000000000 DUP2 MSTORE PUSH1 0x4 ADD PUSH2 0x638 SWAP1 PUSH2 0x1214 JUMP JUMPDEST PUSH1 0x40 MLOAD DUP1 SWAP2 SUB SWAP1 REVERT JUMPDEST PUSH1 0x2 PUSH0 CALLER PUSH20 0xFFFFFFFFFFFFFFFFFFFFFFFFFFFFFFFFFFFFFFFF AND PUSH20 0xFFFFFFFFFFFFFFFFFFFFFFFFFFFFFFFFFFFFFFFF AND DUP2 MSTORE PUSH1 0x20 ADD SWAP1 DUP2 MSTORE PUSH1 0x20 ADD PUSH0 KECCAK256 PUSH0 SWAP1 SLOAD SWAP1 PUSH2 0x100 EXP SWAP1 DIV PUSH1 0xFF AND ISZERO PUSH2 0x6CB JUMPI PUSH1 0x40 MLOAD PUSH32 0x8C379A000000000000000000000000000000000000000000000000000000000 DUP2 MSTORE PUSH1 0x4 ADD PUSH2 0x6C2 SWAP1 PUSH2 0x127C JUMP JUMPDEST PUSH1 0x40 MLOAD DUP1 SWAP2 SUB SWAP1 REVERT JUMPDEST PUSH1 0x3 SLOAD TIMESTAMP LT ISZERO DUP1 ISZERO PUSH2 0x6DE JUMPI POP PUSH1 0x4 SLOAD TIMESTAMP LT JUMPDEST PUSH2 0x71D JUMPI PUSH1 0x40 MLOAD PUSH32 0x8C379A000000000000000000000000000000000000000000000000000000000 DUP2 MSTORE PUSH1 0x4 ADD PUSH2 0x714 SWAP1 PUSH2 0x12E4 JUMP JUMPDEST PUSH1 0x40 MLOAD DUP1 SWAP2 SUB SWAP1 REVERT JUMPDEST PUSH0 DUP3 DUP2 SLOAD DUP2 LT PUSH2 0x730 JUMPI PUSH2 0x72F PUSH2 0x119D JUMP JUMPDEST JUMPDEST SWAP1 PUSH0 MSTORE PUSH1 0x20 PUSH0 KECCAK256 SWAP1 PUSH1 0x2 MUL ADD PUSH1 0x1 ADD PUSH0 DUP2 SLOAD DUP1 SWAP3 SWAP2 SWAP1 PUSH2 0x74F SWAP1 PUSH2 0x132F JUMP JUMPDEST SWAP2 SWAP1 POP SSTORE POP PUSH1 0x1 PUSH1 0x2 PUSH0 CALLER PUSH20 0xFFFFFFFFFFFFFFFFFFFFFFFFFFFFFFFFFFFFFFFF AND PUSH20 0xFFFFFFFFFFFFFFFFFFFFFFFFFFFFFFFFFFFFFFFF AND DUP2 MSTORE PUSH1 0x20 ADD SWAP1 DUP2 MSTORE PUSH1 0x20 ADD PUSH0 KECCAK256 PUSH0 PUSH2 0x100 EXP DUP2 SLOAD DUP2 PUSH1 0xFF MUL NOT AND SWAP1 DUP4 ISZERO ISZERO MUL OR SWAP1 SSTORE POP POP POP JUMP JUMPDEST PUSH0 PUSH1 0x3 SLOAD TIMESTAMP LT ISZERO DUP1 ISZERO PUSH2 0x7C1 JUMPI POP PUSH1 0x4 SLOAD TIMESTAMP LT JUMPDEST SWAP1 POP SWAP1 JUMP JUMPDEST PUSH1 0x4 SLOAD DUP2 JUMP JUMPDEST PUSH0 DUP2 PUSH0 DUP1 SLOAD SWAP1 POP DUP2 LT PUSH2 0x814 JUMPI PUSH1 0x40 MLOAD PUSH32 0x8C379A000000000000000000000000000000000000000000000000000000000 DUP2 MSTORE PUSH1 0x4 ADD PUSH2 0x80B SWAP1 PUSH2 0x1214 JUMP JUMPDEST PUSH1 0x40 MLOAD DUP1 SWAP2 SUB SWAP1 REVERT JUMPDEST PUSH0 DUP4 DUP2 SLOAD DUP2 LT PUSH2 0x827 JUMPI PUSH2 0x826 PUSH2 0x119D JUMP JUMPDEST JUMPDEST SWAP1 PUSH0 MSTORE PUSH1 0x20 PUSH0 KECCAK256 SWAP1 PUSH1 0x2 MUL ADD PUSH1 0x1 ADD SLOAD SWAP2 POP POP SWAP2 SWAP1 POP JUMP JUMPDEST PUSH1 0x1 PUSH0 SWAP1 SLOAD SWAP1 PUSH2 0x100 EXP SWAP1 DIV PUSH20 0xFFFFFFFFFFFFFFFFFFFFFFFFFFFFFFFFFFFFFFFF AND DUP2 JUMP JUMPDEST PUSH0 PUSH1 0x3 SLOAD TIMESTAMP LT ISZERO PUSH2 0x8AA JUMPI PUSH1 0x40 MLOAD PUSH32 0x8C379A000000000000000000000000000000000000000000000000000000000 DUP2 MSTORE PUSH1 0x4 ADD PUSH2 0x8A1 SWAP1 PUSH2 0x13C0 JUMP JUMPDEST PUSH1 0x40 MLOAD DUP1 SWAP2 SUB SWAP1 REVERT JUMPDEST PUSH1 0x4 SLOAD TIMESTAMP LT PUSH2 0x8BB JUMPI PUSH0 SWAP1 POP PUSH2 0x8CC JUMP JUMPDEST TIMESTAMP PUSH1 0x4 SLOAD PUSH2 0x8C9 SWAP2 SWAP1 PUSH2 0x13DE JUMP JUMPDEST SWAP1 POP JUMPDEST SWAP1 JUMP JUMPDEST PUSH0 PUSH1 0x40 MLOAD SWAP1 POP SWAP1 JUMP JUMPDEST PUSH0 DUP1 REVERT JUMPDEST PUSH0 DUP1 REVERT JUMPDEST PUSH0 PUSH20 0xFFFFFFFFFFFFFFFFFFFFFFFFFFFFFFFFFFFFFFFF DUP3 AND SWAP1 POP SWAP2 SWAP1 POP JUMP JUMPDEST PUSH0 PUSH2 0x909 DUP3 PUSH2 0x8E0 JUMP JUMPDEST SWAP1 POP SWAP2 SWAP1 POP JUMP JUMPDEST PUSH2 0x919 DUP2 PUSH2 0x8FF JUMP JUMPDEST DUP2 EQ PUSH2 0x923 JUMPI PUSH0 DUP1 REVERT JUMPDEST POP JUMP JUMPDEST PUSH0 DUP2 CALLDATALOAD SWAP1 POP PUSH2 0x934 DUP2 PUSH2 0x910 JUMP JUMPDEST SWAP3 SWAP2 POP POP JUMP JUMPDEST PUSH0 PUSH1 0x20 DUP3 DUP5 SUB SLT ISZERO PUSH2 0x94F JUMPI PUSH2 0x94E PUSH2 0x8D8 JUMP JUMPDEST JUMPDEST PUSH0 PUSH2 0x95C DUP5 DUP3 DUP6 ADD PUSH2 0x926 JUMP JUMPDEST SWAP2 POP POP SWAP3 SWAP2 POP POP JUMP JUMPDEST PUSH0 DUP2 ISZERO ISZERO SWAP1 POP SWAP2 SWAP1 POP JUMP JUMPDEST PUSH2 0x979 DUP2 PUSH2 0x965 JUMP JUMPDEST DUP3 MSTORE POP POP JUMP JUMPDEST PUSH0 PUSH1 0x20 DUP3 ADD SWAP1 POP PUSH2 0x992 PUSH0 DUP4 ADD DUP5 PUSH2 0x970 JUMP JUMPDEST SWAP3 SWAP2 POP POP JUMP JUMPDEST PUSH0 DUP2 SWAP1 POP SWAP2 SWAP1 POP JUMP JUMPDEST PUSH2 0x9AA DUP2 PUSH2 0x998 JUMP JUMPDEST DUP3 MSTORE POP POP JUMP JUMPDEST PUSH0 PUSH1 0x20 DUP3 ADD SWAP1 POP PUSH2 0x9C3 PUSH0 DUP4 ADD DUP5 PUSH2 0x9A1 JUMP JUMPDEST SWAP3 SWAP2 POP POP JUMP JUMPDEST PUSH0 DUP1 REVERT JUMPDEST PUSH0 DUP1 REVERT JUMPDEST PUSH0 PUSH1 0x1F NOT PUSH1 0x1F DUP4 ADD AND SWAP1 POP SWAP2 SWAP1 POP JUMP JUMPDEST PUSH32 0x4E487B7100000000000000000000000000000000000000000000000000000000 PUSH0 MSTORE PUSH1 0x41 PUSH1 0x4 MSTORE PUSH1 0x24 PUSH0 REVERT JUMPDEST PUSH2 0xA17 DUP3 PUSH2 0x9D1 JUMP JUMPDEST DUP2 ADD DUP2 DUP2 LT PUSH8 0xFFFFFFFFFFFFFFFF DUP3 GT OR ISZERO PUSH2 0xA36 JUMPI PUSH2 0xA35 PUSH2 0x9E1 JUMP JUMPDEST JUMPDEST DUP1 PUSH1 0x40 MSTORE POP POP POP JUMP JUMPDEST PUSH0 PUSH2 0xA48 PUSH2 0x8CF JUMP JUMPDEST SWAP1 POP PUSH2 0xA54 DUP3 DUP3 PUSH2 0xA0E JUMP JUMPDEST SWAP2 SWAP1 POP JUMP JUMPDEST PUSH0 PUSH8 0xFFFFFFFFFFFFFFFF DUP3 GT ISZERO PUSH2 0xA73 JUMPI PUSH2 0xA72 PUSH2 0x9E1 JUMP JUMPDEST JUMPDEST PUSH2 0xA7C DUP3 PUSH2 0x9D1 JUMP JUMPDEST SWAP1 POP PUSH1 0x20 DUP2 ADD SWAP1 POP SWAP2 SWAP1 POP JUMP JUMPDEST DUP3 DUP2 DUP4 CALLDATACOPY PUSH0 DUP4 DUP4 ADD MSTORE POP POP POP JUMP JUMPDEST PUSH0 PUSH2 0xAA9 PUSH2 0xAA4 DUP5 PUSH2 0xA59 JUMP JUMPDEST PUSH2 0xA3F JUMP JUMPDEST SWAP1 POP DUP3 DUP2 MSTORE PUSH1 0x20 DUP2 ADD DUP5 DUP5 DUP5 ADD GT ISZERO PUSH2 0xAC5 JUMPI PUSH2 0xAC4 PUSH2 0x9CD JUMP JUMPDEST JUMPDEST PUSH2 0xAD0 DUP5 DUP3 DUP6 PUSH2 0xA89 JUMP JUMPDEST POP SWAP4 SWAP3 POP POP POP JUMP JUMPDEST PUSH0 DUP3 PUSH1 0x1F DUP4 ADD SLT PUSH2 0xAEC JUMPI PUSH2 0xAEB PUSH2 0x9C9 JUMP JUMPDEST JUMPDEST DUP2 CALLDATALOAD PUSH2 0xAFC DUP5 DUP3 PUSH1 0x20 DUP7 ADD PUSH2 0xA97 JUMP JUMPDEST SWAP2 POP POP SWAP3 SWAP2 POP POP JUMP JUMPDEST PUSH0 PUSH1 0x20 DUP3 DUP5 SUB SLT ISZERO PUSH2 0xB1A JUMPI PUSH2 0xB19 PUSH2 0x8D8 JUMP JUMPDEST JUMPDEST PUSH0 DUP3 ADD CALLDATALOAD PUSH8 0xFFFFFFFFFFFFFFFF DUP2 GT ISZERO PUSH2 0xB37 JUMPI PUSH2 0xB36 PUSH2 0x8DC JUMP JUMPDEST JUMPDEST PUSH2 0xB43 DUP5 DUP3 DUP6 ADD PUSH2 0xAD8 JUMP JUMPDEST SWAP2 POP POP SWAP3 SWAP2 POP POP JUMP JUMPDEST PUSH0 DUP2 MLOAD SWAP1 POP SWAP2 SWAP1 POP JUMP JUMPDEST PUSH0 DUP3 DUP3 MSTORE PUSH1 0x20 DUP3 ADD SWAP1 POP SWAP3 SWAP2 POP POP JUMP JUMPDEST PUSH0 DUP2 SWAP1 POP PUSH1 0x20 DUP3 ADD SWAP1 POP SWAP2 SWAP1 POP JUMP JUMPDEST PUSH0 DUP2 MLOAD SWAP1 POP SWAP2 SWAP1 POP JUMP JUMPDEST PUSH0 DUP3 DUP3 MSTORE PUSH1 0x20 DUP3 ADD SWAP1 POP SWAP3 SWAP2 POP POP JUMP JUMPDEST DUP3 DUP2 DUP4 MCOPY PUSH0 DUP4 DUP4 ADD MSTORE POP POP POP JUMP JUMPDEST PUSH0 PUSH2 0xBA7 DUP3 PUSH2 0xB75 JUMP JUMPDEST PUSH2 0xBB1 DUP2 DUP6 PUSH2 0xB7F JUMP JUMPDEST SWAP4 POP PUSH2 0xBC1 DUP2 DUP6 PUSH1 0x20 DUP7 ADD PUSH2 0xB8F JUMP JUMPDEST PUSH2 0xBCA DUP2 PUSH2 0x9D1 JUMP JUMPDEST DUP5 ADD SWAP2 POP POP SWAP3 SWAP2 POP POP JUMP JUMPDEST PUSH0 PUSH2 0xBE0 DUP4 DUP4 PUSH2 0xB9D JUMP JUMPDEST SWAP1 POP SWAP3 SWAP2 POP POP JUMP JUMPDEST PUSH0 PUSH1 0x20 DUP3 ADD SWAP1 POP SWAP2 SWAP1 POP JUMP JUMPDEST PUSH0 PUSH2 0xBFE DUP3 PUSH2 0xB4C JUMP JUMPDEST PUSH2 0xC08 DUP2 DUP6 PUSH2 0xB56 JUMP JUMPDEST SWAP4 POP DUP4 PUSH1 0x20 DUP3 MUL DUP6 ADD PUSH2 0xC1A DUP6 PUSH2 0xB66 JUMP JUMPDEST DUP1 PUSH0 JUMPDEST DUP6 DUP2 LT ISZERO PUSH2 0xC55 JUMPI DUP5 DUP5 SUB DUP10 MSTORE DUP2 MLOAD PUSH2 0xC36 DUP6 DUP3 PUSH2 0xBD5 JUMP JUMPDEST SWAP5 POP PUSH2 0xC41 DUP4 PUSH2 0xBE8 JUMP JUMPDEST SWAP3 POP PUSH1 0x20 DUP11 ADD SWAP10 POP POP PUSH1 0x1 DUP2 ADD SWAP1 POP PUSH2 0xC1D JUMP JUMPDEST POP DUP3 SWAP8 POP DUP8 SWAP6 POP POP POP POP POP POP SWAP3 SWAP2 POP POP JUMP JUMPDEST PUSH0 DUP2 MLOAD SWAP1 POP SWAP2 SWAP1 POP JUMP JUMPDEST PUSH0 DUP3 DUP3 MSTORE PUSH1 0x20 DUP3 ADD SWAP1 POP SWAP3 SWAP2 POP POP JUMP JUMPDEST PUSH0 DUP2 SWAP1 POP PUSH1 0x20 DUP3 ADD SWAP1 POP SWAP2 SWAP1 POP JUMP JUMPDEST PUSH2 0xC99 DUP2 PUSH2 0x998 JUMP JUMPDEST DUP3 MSTORE POP POP JUMP JUMPDEST PUSH0 PUSH2 0xCAA DUP4 DUP4 PUSH2 0xC90 JUMP JUMPDEST PUSH1 0x20 DUP4 ADD SWAP1 POP SWAP3 SWAP2 POP POP JUMP JUMPDEST PUSH0 PUSH1 0x20 DUP3 ADD SWAP1 POP SWAP2 SWAP1 POP JUMP JUMPDEST PUSH0 PUSH2 0xCCC DUP3 PUSH2 0xC67 JUMP JUMPDEST PUSH2 0xCD6 DUP2 DUP6 PUSH2 0xC71 JUMP JUMPDEST SWAP4 POP PUSH2 0xCE1 DUP4 PUSH2 0xC81 JUMP JUMPDEST DUP1 PUSH0 JUMPDEST DUP4 DUP2 LT ISZERO PUSH2 0xD11 JUMPI DUP2 MLOAD PUSH2 0xCF8 DUP9 DUP3 PUSH2 0xC9F JUMP JUMPDEST SWAP8 POP PUSH2 0xD03 DUP4 PUSH2 0xCB6 JUMP JUMPDEST SWAP3 POP POP PUSH1 0x1 DUP2 ADD SWAP1 POP PUSH2 0xCE4 JUMP JUMPDEST POP DUP6 SWAP4 POP POP POP POP SWAP3 SWAP2 POP POP JUMP JUMPDEST PUSH0 PUSH1 0x40 DUP3 ADD SWAP1 POP DUP2 DUP2 SUB PUSH0 DUP4 ADD MSTORE PUSH2 0xD36 DUP2 DUP6 PUSH2 0xBF4 JUMP JUMPDEST SWAP1 POP DUP2 DUP2 SUB PUSH1 0x20 DUP4 ADD MSTORE PUSH2 0xD4A DUP2 DUP5 PUSH2 0xCC2 JUMP JUMPDEST SWAP1 POP SWAP4 SWAP3 POP POP POP JUMP JUMPDEST PUSH2 0xD5C DUP2 PUSH2 0x998 JUMP JUMPDEST DUP2 EQ PUSH2 0xD66 JUMPI PUSH0 DUP1 REVERT JUMPDEST POP JUMP JUMPDEST PUSH0 DUP2 CALLDATALOAD SWAP1 POP PUSH2 0xD77 DUP2 PUSH2 0xD53 JUMP JUMPDEST SWAP3 SWAP2 POP POP JUMP JUMPDEST PUSH0 PUSH1 0x20 DUP3 DUP5 SUB SLT ISZERO PUSH2 0xD92 JUMPI PUSH2 0xD91 PUSH2 0x8D8 JUMP JUMPDEST JUMPDEST PUSH0 PUSH2 0xD9F DUP5 DUP3 DUP6 ADD PUSH2 0xD69 JUMP JUMPDEST SWAP2 POP POP SWAP3 SWAP2 POP POP JUMP JUMPDEST PUSH0 DUP3 DUP3 MSTORE PUSH1 0x20 DUP3 ADD SWAP1 POP SWAP3 SWAP2 POP POP JUMP JUMPDEST PUSH0 PUSH2 0xDC2 DUP3 PUSH2 0xB75 JUMP JUMPDEST PUSH2 0xDCC DUP2 DUP6 PUSH2 0xDA8 JUMP JUMPDEST SWAP4 POP PUSH2 0xDDC DUP2 DUP6 PUSH1 0x20 DUP7 ADD PUSH2 0xB8F JUMP JUMPDEST PUSH2 0xDE5 DUP2 PUSH2 0x9D1 JUMP JUMPDEST DUP5 ADD SWAP2 POP POP SWAP3 SWAP2 POP POP JUMP JUMPDEST PUSH0 PUSH1 0x40 DUP3 ADD SWAP1 POP DUP2 DUP2 SUB PUSH0 DUP4 ADD MSTORE PUSH2 0xE08 DUP2 DUP6 PUSH2 0xDB8 JUMP JUMPDEST SWAP1 POP PUSH2 0xE17 PUSH1 0x20 DUP4 ADD DUP5 PUSH2 0x9A1 JUMP JUMPDEST SWAP4 SWAP3 POP POP POP JUMP JUMPDEST PUSH2 0xE27 DUP2 PUSH2 0x8FF JUMP JUMPDEST DUP3 MSTORE POP POP JUMP JUMPDEST PUSH0 PUSH1 0x20 DUP3 ADD SWAP1 POP PUSH2 0xE40 PUSH0 DUP4 ADD DUP5 PUSH2 0xE1E JUMP JUMPDEST SWAP3 SWAP2 POP POP JUMP JUMPDEST PUSH32 0x4F6E6C7920746865206F776E65722063616E20706572666F726D207468697320 PUSH0 DUP3 ADD MSTORE PUSH32 0x616374696F6E2E00000000000000000000000000000000000000000000000000 PUSH1 0x20 DUP3 ADD MSTORE POP JUMP JUMPDEST PUSH0 PUSH2 0xEA0 PUSH1 0x27 DUP4 PUSH2 0xDA8 JUMP JUMPDEST SWAP2 POP PUSH2 0xEAB DUP3 PUSH2 0xE46 JUMP JUMPDEST PUSH1 0x40 DUP3 ADD SWAP1 POP SWAP2 SWAP1 POP JUMP JUMPDEST PUSH0 PUSH1 0x20 DUP3 ADD SWAP1 POP DUP2 DUP2 SUB PUSH0 DUP4 ADD MSTORE PUSH2 0xECD DUP2 PUSH2 0xE94 JUMP JUMPDEST SWAP1 POP SWAP2 SWAP1 POP JUMP JUMPDEST PUSH32 0x4E487B7100000000000000000000000000000000000000000000000000000000 PUSH0 MSTORE PUSH1 0x22 PUSH1 0x4 MSTORE PUSH1 0x24 PUSH0 REVERT JUMPDEST PUSH0 PUSH1 0x2 DUP3 DIV SWAP1 POP PUSH1 0x1 DUP3 AND DUP1 PUSH2 0xF18 JUMPI PUSH1 0x7F DUP3 AND SWAP2 POP JUMPDEST PUSH1 0x20 DUP3 LT DUP2 SUB PUSH2 0xF2B JUMPI PUSH2 0xF2A PUSH2 0xED4 JUMP JUMPDEST JUMPDEST POP SWAP2 SWAP1 POP JUMP JUMPDEST PUSH0 DUP2 SWAP1 POP DUP2 PUSH0 MSTORE PUSH1 0x20 PUSH0 KECCAK256 SWAP1 POP SWAP2 SWAP1 POP JUMP JUMPDEST PUSH0 PUSH1 0x20 PUSH1 0x1F DUP4 ADD DIV SWAP1 POP SWAP2 SWAP1 POP JUMP JUMPDEST PUSH0 DUP3 DUP3 SHL SWAP1 POP SWAP3 SWAP2 POP POP JUMP JUMPDEST PUSH0 PUSH1 0x8 DUP4 MUL PUSH2 0xF8D PUSH32 0xFFFFFFFFFFFFFFFFFFFFFFFFFFFFFFFFFFFFFFFFFFFFFFFFFFFFFFFFFFFFFFFF DUP3 PUSH2 0xF52 JUMP JUMPDEST PUSH2 0xF97 DUP7 DUP4 PUSH2 0xF52 JUMP JUMPDEST SWAP6 POP DUP1 NOT DUP5 AND SWAP4 POP DUP1 DUP7 AND DUP5 OR SWAP3 POP POP POP SWAP4 SWAP3 POP POP POP JUMP JUMPDEST PUSH0 DUP2 SWAP1 POP SWAP2 SWAP1 POP JUMP JUMPDEST PUSH0 PUSH2 0xFD2 PUSH2 0xFCD PUSH2 0xFC8 DUP5 PUSH2 0x998 JUMP JUMPDEST PUSH2 0xFAF JUMP JUMPDEST PUSH2 0x998 JUMP JUMPDEST SWAP1 POP SWAP2 SWAP1 POP JUMP JUMPDEST PUSH0 DUP2 SWAP1 POP SWAP2 SWAP1 POP JUMP JUMPDEST PUSH2 0xFEB DUP4 PUSH2 0xFB8 JUMP JUMPDEST PUSH2 0xFFF PUSH2 0xFF7 DUP3 PUSH2 0xFD9 JUMP JUMPDEST DUP5 DUP5 SLOAD PUSH2 0xF5E JUMP JUMPDEST DUP3 SSTORE POP POP POP POP JUMP JUMPDEST PUSH0 SWAP1 JUMP JUMPDEST PUSH2 0x1013 PUSH2 0x1007 JUMP JUMPDEST PUSH2 0x101E DUP2 DUP5 DUP5 PUSH2 0xFE2 JUMP JUMPDEST POP POP POP JUMP JUMPDEST JUMPDEST DUP2 DUP2 LT ISZERO PUSH2 0x1041 JUMPI PUSH2 0x1036 PUSH0 DUP3 PUSH2 0x100B JUMP JUMPDEST PUSH1 0x1 DUP2 ADD SWAP1 POP PUSH2 0x1024 JUMP JUMPDEST POP POP JUMP JUMPDEST PUSH1 0x1F DUP3 GT ISZERO PUSH2 0x1086 JUMPI PUSH2 0x1057 DUP2 PUSH2 0xF31 JUMP JUMPDEST PUSH2 0x1060 DUP5 PUSH2 0xF43 JUMP JUMPDEST DUP2 ADD PUSH1 0x20 DUP6 LT ISZERO PUSH2 0x106F JUMPI DUP2 SWAP1 POP JUMPDEST PUSH2 0x1083 PUSH2 0x107B DUP6 PUSH2 0xF43 JUMP JUMPDEST DUP4 ADD DUP3 PUSH2 0x1023 JUMP JUMPDEST POP POP JUMPDEST POP POP POP JUMP JUMPDEST PUSH0 DUP3 DUP3 SHR SWAP1 POP SWAP3 SWAP2 POP POP JUMP JUMPDEST PUSH0 PUSH2 0x10A6 PUSH0 NOT DUP5 PUSH1 0x8 MUL PUSH2 0x108B JUMP JUMPDEST NOT DUP1 DUP4 AND SWAP2 POP POP SWAP3 SWAP2 POP POP JUMP JUMPDEST PUSH0 PUSH2 0x10BE DUP4 DUP4 PUSH2 0x1097 JUMP JUMPDEST SWAP2 POP DUP3 PUSH1 0x2 MUL DUP3 OR SWAP1 POP SWAP3 SWAP2 POP POP JUMP JUMPDEST PUSH2 0x10D7 DUP3 PUSH2 0xB75 JUMP JUMPDEST PUSH8 0xFFFFFFFFFFFFFFFF DUP2 GT ISZERO PUSH2 0x10F0 JUMPI PUSH2 0x10EF PUSH2 0x9E1 JUMP JUMPDEST JUMPDEST PUSH2 0x10FA DUP3 SLOAD PUSH2 0xF01 JUMP JUMPDEST PUSH2 0x1105 DUP3 DUP3 DUP6 PUSH2 0x1045 JUMP JUMPDEST PUSH0 PUSH1 0x20 SWAP1 POP PUSH1 0x1F DUP4 GT PUSH1 0x1 DUP2 EQ PUSH2 0x1136 JUMPI PUSH0 DUP5 ISZERO PUSH2 0x1124 JUMPI DUP3 DUP8 ADD MLOAD SWAP1 POP JUMPDEST PUSH2 0x112E DUP6 DUP3 PUSH2 0x10B3 JUMP JUMPDEST DUP7 SSTORE POP PUSH2 0x1195 JUMP JUMPDEST PUSH1 0x1F NOT DUP5 AND PUSH2 0x1144 DUP7 PUSH2 0xF31 JUMP JUMPDEST PUSH0 JUMPDEST DUP3 DUP2 LT ISZERO PUSH2 0x116B JUMPI DUP5 DUP10 ADD MLOAD DUP3 SSTORE PUSH1 0x1 DUP3 ADD SWAP2 POP PUSH1 0x20 DUP6 ADD SWAP5 POP PUSH1 0x20 DUP2 ADD SWAP1 POP PUSH2 0x1146 JUMP JUMPDEST DUP7 DUP4 LT ISZERO PUSH2 0x1188 JUMPI DUP5 DUP10 ADD MLOAD PUSH2 0x1184 PUSH1 0x1F DUP10 AND DUP3 PUSH2 0x1097 JUMP JUMPDEST DUP4 SSTORE POP JUMPDEST PUSH1 0x1 PUSH1 0x2 DUP9 MUL ADD DUP9 SSTORE POP POP POP JUMPDEST POP POP POP POP POP POP JUMP JUMPDEST PUSH32 0x4E487B7100000000000000000000000000000000000000000000000000000000 PUSH0 MSTORE PUSH1 0x32 PUSH1 0x4 MSTORE PUSH1 0x24 PUSH0 REVERT JUMPDEST PUSH32 0x496E76616C69642063616E64696461746520696E6465782E0000000000000000 PUSH0 DUP3 ADD MSTORE POP JUMP JUMPDEST PUSH0 PUSH2 0x11FE PUSH1 0x18 DUP4 PUSH2 0xDA8 JUMP JUMPDEST SWAP2 POP PUSH2 0x1209 DUP3 PUSH2 0x11CA JUMP JUMPDEST PUSH1 0x20 DUP3 ADD SWAP1 POP SWAP2 SWAP1 POP JUMP JUMPDEST PUSH0 PUSH1 0x20 DUP3 ADD SWAP1 POP DUP2 DUP2 SUB PUSH0 DUP4 ADD MSTORE PUSH2 0x122B DUP2 PUSH2 0x11F2 JUMP JUMPDEST SWAP1 POP SWAP2 SWAP1 POP JUMP JUMPDEST PUSH32 0x596F75206861766520616C726561647920766F7465642E000000000000000000 PUSH0 DUP3 ADD MSTORE POP JUMP JUMPDEST PUSH0 PUSH2 0x1266 PUSH1 0x17 DUP4 PUSH2 0xDA8 JUMP JUMPDEST SWAP2 POP PUSH2 0x1271 DUP3 PUSH2 0x1232 JUMP JUMPDEST PUSH1 0x20 DUP3 ADD SWAP1 POP SWAP2 SWAP1 POP JUMP JUMPDEST PUSH0 PUSH1 0x20 DUP3 ADD SWAP1 POP DUP2 DUP2 SUB PUSH0 DUP4 ADD MSTORE PUSH2 0x1293 DUP2 PUSH2 0x125A JUMP JUMPDEST SWAP1 POP SWAP2 SWAP1 POP JUMP JUMPDEST PUSH32 0x566F74696E67206973206E6F74206F70656E2E00000000000000000000000000 PUSH0 DUP3 ADD MSTORE POP JUMP JUMPDEST PUSH0 PUSH2 0x12CE PUSH1 0x13 DUP4 PUSH2 0xDA8 JUMP JUMPDEST SWAP2 POP PUSH2 0x12D9 DUP3 PUSH2 0x129A JUMP JUMPDEST PUSH1 0x20 DUP3 ADD SWAP1 POP SWAP2 SWAP1 POP JUMP JUMPDEST PUSH0 PUSH1 0x20 DUP3 ADD SWAP1 POP DUP2 DUP2 SUB PUSH0 DUP4 ADD MSTORE PUSH2 0x12FB DUP2 PUSH2 0x12C2 JUMP JUMPDEST SWAP1 POP SWAP2 SWAP1 POP JUMP JUMPDEST PUSH32 0x4E487B7100000000000000000000000000000000000000000000000000000000 PUSH0 MSTORE PUSH1 0x11 PUSH1 0x4 MSTORE PUSH1 0x24 PUSH0 REVERT JUMPDEST PUSH0 PUSH2 0x1339 DUP3 PUSH2 0x998 JUMP JUMPDEST SWAP2 POP PUSH32 0xFFFFFFFFFFFFFFFFFFFFFFFFFFFFFFFFFFFFFFFFFFFFFFFFFFFFFFFFFFFFFFFF DUP3 SUB PUSH2 0x136B JUMPI PUSH2 0x136A PUSH2 0x1302 JUMP JUMPDEST JUMPDEST PUSH1 0x1 DUP3 ADD SWAP1 POP SWAP2 SWAP1 POP JUMP JUMPDEST PUSH32 0x566F74696E6720686173206E6F742073746172746564207965742E0000000000 PUSH0 DUP3 ADD MSTORE POP JUMP JUMPDEST PUSH0 PUSH2 0x13AA PUSH1 0x1B DUP4 PUSH2 0xDA8 JUMP JUMPDEST SWAP2 POP PUSH2 0x13B5 DUP3 PUSH2 0x1376 JUMP JUMPDEST PUSH1 0x20 DUP3 ADD SWAP1 POP SWAP2 SWAP1 POP JUMP JUMPDEST PUSH0 PUSH1 0x20 DUP3 ADD SWAP1 POP DUP2 DUP2 SUB PUSH0 DUP4 ADD MSTORE PUSH2 0x13D7 DUP2 PUSH2 0x139E JUMP JUMPDEST SWAP1 POP SWAP2 SWAP1 POP JUMP JUMPDEST PUSH0 PUSH2 0x13E8 DUP3 PUSH2 0x998 JUMP JUMPDEST SWAP2 POP PUSH2 0x13F3 DUP4 PUSH2 0x998 JUMP JUMPDEST SWAP3 POP DUP3 DUP3 SUB SWAP1 POP DUP2 DUP2 GT ISZERO PUSH2 0x140B JUMPI PUSH2 0x140A PUSH2 0x1302 JUMP JUMPDEST JUMPDEST SWAP3 SWAP2 POP POP JUMP INVALID LOG2 PUSH5 0x6970667358 0x22 SLT KECCAK256 BYTE 0xCE 0x2E INVALID 0xD DUP10 JUMP DUP14 SWAP15 0xEF MOD 0xD0 0xD5 0xDF DUP4 MSIZE SDIV DIV 0xE5 DUP9 DUP11 0xB3 0xB0 0xCB SHL LOG4 0x26 0xDA BASEFEE SWAP13 SLOAD 0xBC PUSH5 0x736F6C6343 STOP ADDMOD NOT STOP CALLER "
				},
				"gasEstimates": {
					"creation": {
						"codeDepositCost": "1038200",
						"executionCost": "infinite",
						"totalCost": "infinite"
					},
					"external": {
						"NumberOfCandidates()": "2551",
						"addNewCandidate(string)": "infinite",
						"candidates(uint256)": "infinite",
						"castVote(uint256)": "infinite",
						"getAllCandidates()": "infinite",
						"getCandidateVotes(uint256)": "infinite",
						"getRemainingTime()": "infinite",
						"getVotingStatus()": "4598",
						"hasVoted(address)": "2834",
						"owner()": "2596",
						"votingEnd()": "2469",
						"votingStart()": "2448"
					}
				},
				"methodIdentifiers": {
					"NumberOfCandidates()": "37836c8d",
					"addNewCandidate(string)": "2d307d60",
					"candidates(uint256)": "3477ee2e",
					"castVote(uint256)": "3eb76b9c",
					"getAllCandidates()": "2e6997fe",
					"getCandidateVotes(uint256)": "866163c0",
					"getRemainingTime()": "efb98bcf",
					"getVotingStatus()": "581c281c",
					"hasVoted(address)": "09eef43e",
					"owner()": "8da5cb5b",
					"votingEnd()": "85a38635",
					"votingStart()": "101158af"
				}
			},
			"storageLayout": {
				"storage": [
					{
						"astId": 10,
						"contract": "contracts/1_Storage.sol:CustomVoting",
						"label": "candidates",
						"offset": 0,
						"slot": "0",
						"type": "t_array(t_struct(Candidate)6_storage)dyn_storage"
					},
					{
						"astId": 12,
						"contract": "contracts/1_Storage.sol:CustomVoting",
						"label": "owner",
						"offset": 0,
						"slot": "1",
						"type": "t_address"
					},
					{
						"astId": 16,
						"contract": "contracts/1_Storage.sol:CustomVoting",
						"label": "hasVoted",
						"offset": 0,
						"slot": "2",
						"type": "t_mapping(t_address,t_bool)"
					},
					{
						"astId": 18,
						"contract": "contracts/1_Storage.sol:CustomVoting",
						"label": "votingStart",
						"offset": 0,
						"slot": "3",
						"type": "t_uint256"
					},
					{
						"astId": 20,
						"contract": "contracts/1_Storage.sol:CustomVoting",
						"label": "votingEnd",
						"offset": 0,
						"slot": "4",
						"type": "t_uint256"
					}
				],
				"types": {
					"t_address": {
						"encoding": "inplace",
						"label": "address",
						"numberOfBytes": "20"
					},
					"t_array(t_struct(Candidate)6_storage)dyn_storage": {
						"base": "t_struct(Candidate)6_storage",
						"encoding": "dynamic_array",
						"label": "struct CustomVoting.Candidate[]",
						"numberOfBytes": "32"
					},
					"t_bool": {
						"encoding": "inplace",
						"label": "bool",
						"numberOfBytes": "1"
					},
					"t_mapping(t_address,t_bool)": {
						"encoding": "mapping",
						"key": "t_address",
						"label": "mapping(address => bool)",
						"numberOfBytes": "32",
						"value": "t_bool"
					},
					"t_string_storage": {
						"encoding": "bytes",
						"label": "string",
						"numberOfBytes": "32"
					},
					"t_struct(Candidate)6_storage": {
						"encoding": "inplace",
						"label": "struct CustomVoting.Candidate",
						"members": [
							{
								"astId": 3,
								"contract": "contracts/1_Storage.sol:CustomVoting",
								"label": "name",
								"offset": 0,
								"slot": "0",
								"type": "t_string_storage"
							},
							{
								"astId": 5,
								"contract": "contracts/1_Storage.sol:CustomVoting",
								"label": "voteCount",
								"offset": 0,
								"slot": "1",
								"type": "t_uint256"
							}
						],
						"numberOfBytes": "64"
					},
					"t_uint256": {
						"encoding": "inplace",
						"label": "uint256",
						"numberOfBytes": "32"
					}
				}
			},
			"userdoc": {
				"kind": "user",
				"methods": {},
				"version": 1
			}
		}
	}
}